{
  "contractName": "EulerStaking",
  "abi": [
    {
      "anonymous": false,
      "inputs": [
        {
          "indexed": true,
          "internalType": "address",
          "name": "user",
          "type": "address"
        },
        {
          "indexed": true,
          "internalType": "uint256",
          "name": "pid",
          "type": "uint256"
        },
        {
          "indexed": false,
          "internalType": "uint256",
          "name": "amount",
          "type": "uint256"
        }
      ],
      "name": "Claim",
      "type": "event"
    },
    {
      "anonymous": false,
      "inputs": [
        {
          "indexed": true,
          "internalType": "address",
          "name": "user",
          "type": "address"
        },
        {
          "indexed": true,
          "internalType": "uint256",
          "name": "pid",
          "type": "uint256"
        },
        {
          "indexed": false,
          "internalType": "uint256",
          "name": "amount",
          "type": "uint256"
        }
      ],
      "name": "Deposit",
      "type": "event"
    },
    {
      "anonymous": false,
      "inputs": [
        {
          "indexed": true,
          "internalType": "address",
          "name": "previousOwner",
          "type": "address"
        },
        {
          "indexed": true,
          "internalType": "address",
          "name": "newOwner",
          "type": "address"
        }
      ],
      "name": "OwnershipTransferred",
      "type": "event"
    },
    {
      "anonymous": false,
      "inputs": [
        {
          "indexed": true,
          "internalType": "address",
          "name": "user",
          "type": "address"
        },
        {
          "indexed": true,
          "internalType": "uint256",
          "name": "pid",
          "type": "uint256"
        },
        {
          "indexed": false,
          "internalType": "uint256",
          "name": "amount",
          "type": "uint256"
        }
      ],
      "name": "Withdraw",
      "type": "event"
    },
    {
      "inputs": [],
      "name": "euler",
      "outputs": [
        {
          "internalType": "contract IERC20",
          "name": "",
          "type": "address"
        }
      ],
      "stateMutability": "view",
      "type": "function",
      "constant": true
    },
    {
      "inputs": [],
      "name": "eulerPerBlock",
      "outputs": [
        {
          "internalType": "uint256",
          "name": "",
          "type": "uint256"
        }
      ],
      "stateMutability": "view",
      "type": "function",
      "constant": true
    },
    {
      "inputs": [],
      "name": "eulerTxFee",
      "outputs": [
        {
          "internalType": "uint256",
          "name": "",
          "type": "uint256"
        }
      ],
      "stateMutability": "view",
      "type": "function",
      "constant": true
    },
    {
      "inputs": [],
      "name": "maxDepositAmount",
      "outputs": [
        {
          "internalType": "uint256",
          "name": "",
          "type": "uint256"
        }
      ],
      "stateMutability": "view",
      "type": "function",
      "constant": true
    },
    {
      "inputs": [],
      "name": "maxFee",
      "outputs": [
        {
          "internalType": "uint256",
          "name": "",
          "type": "uint256"
        }
      ],
      "stateMutability": "view",
      "type": "function",
      "constant": true
    },
    {
      "inputs": [],
      "name": "minDepositAmount",
      "outputs": [
        {
          "internalType": "uint256",
          "name": "",
          "type": "uint256"
        }
      ],
      "stateMutability": "view",
      "type": "function",
      "constant": true
    },
    {
      "inputs": [],
      "name": "owner",
      "outputs": [
        {
          "internalType": "address",
          "name": "",
          "type": "address"
        }
      ],
      "stateMutability": "view",
      "type": "function",
      "constant": true
    },
    {
      "inputs": [
        {
          "internalType": "uint256",
          "name": "",
          "type": "uint256"
        }
      ],
      "name": "poolInfo",
      "outputs": [
        {
          "internalType": "uint256",
          "name": "allocPoint",
          "type": "uint256"
        },
        {
          "internalType": "uint256",
          "name": "lastRewardBlock",
          "type": "uint256"
        },
        {
          "internalType": "uint256",
          "name": "accEulerPerShare",
          "type": "uint256"
        },
        {
          "internalType": "uint256",
          "name": "depositedAmount",
          "type": "uint256"
        },
        {
          "internalType": "uint256",
          "name": "rewardsAmount",
          "type": "uint256"
        },
        {
          "internalType": "uint256",
          "name": "lockupDuration",
          "type": "uint256"
        }
      ],
      "stateMutability": "view",
      "type": "function",
      "constant": true
    },
    {
      "inputs": [],
      "name": "renounceOwnership",
      "outputs": [],
      "stateMutability": "nonpayable",
      "type": "function"
    },
    {
      "inputs": [],
      "name": "totalAllocPoint",
      "outputs": [
        {
          "internalType": "uint256",
          "name": "",
          "type": "uint256"
        }
      ],
      "stateMutability": "view",
      "type": "function",
      "constant": true
    },
    {
      "inputs": [
        {
          "internalType": "address",
          "name": "newOwner",
          "type": "address"
        }
      ],
      "name": "transferOwnership",
      "outputs": [],
      "stateMutability": "nonpayable",
      "type": "function"
    },
    {
      "inputs": [
        {
          "internalType": "uint256",
          "name": "",
          "type": "uint256"
        },
        {
          "internalType": "address",
          "name": "",
          "type": "address"
        }
      ],
      "name": "userInfo",
      "outputs": [
        {
          "internalType": "uint256",
          "name": "amount",
          "type": "uint256"
        },
        {
          "internalType": "uint256",
          "name": "rewardDebt",
          "type": "uint256"
        },
        {
          "internalType": "uint256",
          "name": "pendingRewards",
          "type": "uint256"
        },
        {
          "internalType": "uint256",
          "name": "lastClaim",
          "type": "uint256"
        }
      ],
      "stateMutability": "view",
      "type": "function",
      "constant": true
    },
    {
      "inputs": [
        {
          "internalType": "contract IERC20",
          "name": "_euler",
          "type": "address"
        }
      ],
      "name": "setEulerToken",
      "outputs": [],
      "stateMutability": "nonpayable",
      "type": "function"
    },
    {
      "inputs": [
        {
          "internalType": "uint256",
          "name": "startBlock",
          "type": "uint256"
        }
      ],
      "name": "startStaking",
      "outputs": [],
      "stateMutability": "nonpayable",
      "type": "function"
    },
    {
      "inputs": [
        {
          "internalType": "uint256",
          "name": "_lockupDuration",
          "type": "uint256"
        },
        {
          "internalType": "uint256",
          "name": "pid",
          "type": "uint256"
        }
      ],
      "name": "setLockupDuration",
      "outputs": [],
      "stateMutability": "nonpayable",
      "type": "function"
    },
    {
      "inputs": [
        {
          "internalType": "uint256",
          "name": "pid",
          "type": "uint256"
        },
        {
          "internalType": "address",
          "name": "_user",
          "type": "address"
        }
      ],
      "name": "pendingRewards",
      "outputs": [
        {
          "internalType": "uint256",
          "name": "",
          "type": "uint256"
        }
      ],
      "stateMutability": "view",
      "type": "function",
      "constant": true
    },
    {
      "inputs": [
        {
          "internalType": "uint256",
          "name": "pid",
          "type": "uint256"
        },
        {
          "internalType": "uint256",
          "name": "amount",
          "type": "uint256"
        }
      ],
      "name": "deposit",
      "outputs": [],
      "stateMutability": "nonpayable",
      "type": "function"
    },
    {
      "inputs": [
        {
          "internalType": "uint256",
          "name": "pid",
          "type": "uint256"
        },
        {
          "internalType": "uint256",
          "name": "amount",
          "type": "uint256"
        }
      ],
      "name": "withdraw",
      "outputs": [],
      "stateMutability": "nonpayable",
      "type": "function"
    },
    {
      "inputs": [
        {
          "internalType": "uint256",
          "name": "pid",
          "type": "uint256"
        }
      ],
      "name": "withdrawAll",
      "outputs": [],
      "stateMutability": "nonpayable",
      "type": "function"
    },
    {
      "inputs": [
        {
          "internalType": "uint256",
          "name": "pid",
          "type": "uint256"
        }
      ],
      "name": "claim",
      "outputs": [],
      "stateMutability": "nonpayable",
      "type": "function"
    },
    {
      "inputs": [
        {
          "internalType": "uint256",
          "name": "_eulerPerBlock",
          "type": "uint256"
        }
      ],
      "name": "setEulerPerBlock",
      "outputs": [],
      "stateMutability": "nonpayable",
      "type": "function"
    },
    {
      "inputs": [
        {
          "internalType": "uint256",
          "name": "_amount",
          "type": "uint256"
        }
      ],
      "name": "setMinDepositAmount",
      "outputs": [],
      "stateMutability": "nonpayable",
      "type": "function"
    },
    {
      "inputs": [
        {
          "internalType": "uint256",
          "name": "_amount",
          "type": "uint256"
        }
      ],
      "name": "setMaxDepositAmount",
      "outputs": [],
      "stateMutability": "nonpayable",
      "type": "function"
    },
    {
      "inputs": [
        {
          "internalType": "uint256",
          "name": "_fee",
          "type": "uint256"
        }
      ],
      "name": "setEulerTxFee",
      "outputs": [],
      "stateMutability": "nonpayable",
      "type": "function"
    }
  ],
  "bytecode": "0x60806040526064600255612710600355670de0b6b3a764000060045560006005557fffffffffffffffffffffffffffffffffffffffffffffffffffffffffffffffff600655600a6009553480156200005657600080fd5b50620000776200006b6200007d60201b60201c565b6200008560201b60201c565b62000149565b600033905090565b60008060009054906101000a900473ffffffffffffffffffffffffffffffffffffffff169050816000806101000a81548173ffffffffffffffffffffffffffffffffffffffff021916908373ffffffffffffffffffffffffffffffffffffffff1602179055508173ffffffffffffffffffffffffffffffffffffffff168173ffffffffffffffffffffffffffffffffffffffff167f8be0079c531659141344cd1fd0a4f28419497f9722a3daafe3b4186f6b6457e060405160405180910390a35050565b612e1c80620001596000396000f3fe608060405234801561001057600080fd5b50600436106101585760003560e01c80638ed83271116100c3578063da690f861161007c578063da690f8614610393578063db661b71146103af578063e2bbb158146103cd578063ebce8389146103e9578063f2fde38b14610405578063fcdea5791461042157610158565b80638ed83271146102be57806393f1a40b146102dc578063958e2d311461030f578063c4511c6a1461032b578063d18df53c14610347578063d208c3821461037757610158565b8063645006ca11610115578063645006ca1461022257806366dd54a014610240578063715018a61461025e578063762b1c92146102685780637ab28707146102845780638da5cb5b146102a057610158565b806301f59d161461015d5780631526fe271461017b57806317caf6f1146101b05780632a80cda3146101ce578063379607f5146101ea578063441a3e7014610206575b600080fd5b61016561043f565b60405161017291906126f7565b60405180910390f35b610195600480360381019061019091906120ca565b610445565b6040516101a796959493929190612757565b60405180910390f35b6101b8610491565b6040516101c591906126f7565b60405180910390f35b6101e860048036038101906101e391906120ca565b610497565b005b61020460048036038101906101ff91906120ca565b610560565b005b610220600480360381019061021b9190612164565b610751565b005b61022a610a13565b60405161023791906126f7565b60405180910390f35b610248610a19565b60405161025591906126f7565b60405180910390f35b610266610a1f565b005b610282600480360381019061027d91906120ca565b610aa7565b005b61029e600480360381019061029991906120ca565b610bba565b005b6102a8610c83565b6040516102b5919061245f565b60405180910390f35b6102c6610cac565b6040516102d391906126f7565b60405180910390f35b6102f660048036038101906102f19190612124565b610cb2565b6040516103069493929190612712565b60405180910390f35b610329600480360381019061032491906120ca565b610cef565b005b610345600480360381019061034091906120ca565b610d55565b005b610361600480360381019061035c9190612124565b610e1f565b60405161036e91906126f7565b60405180910390f35b610391600480360381019061038c9190612164565b611063565b005b6103ad60048036038101906103a891906120ca565b611113565b005b6103b76111dd565b6040516103c491906124da565b60405180910390f35b6103e760048036038101906103e29190612164565b611203565b005b61040360048036038101906103fe919061209d565b6114dd565b005b61041f600480360381019061041a9190612043565b61163c565b005b610429611734565b60405161043691906126f7565b60405180910390f35b60035481565b6007818154811061045557600080fd5b90600052602060002090600602016000915090508060000154908060010154908060020154908060030154908060040154908060050154905086565b60095481565b61049f61173a565b73ffffffffffffffffffffffffffffffffffffffff166104bd610c83565b73ffffffffffffffffffffffffffffffffffffffff1614610513576040517f08c379a000000000000000000000000000000000000000000000000000000000815260040161050a90612617565b60405180910390fd5b60008111610556576040517f08c379a000000000000000000000000000000000000000000000000000000000815260040161054d90612557565b60405180910390fd5b8060058190555050565b60006007828154811061057657610575612a20565b5b9060005260206000209060060201905060006008600084815260200190815260200160002060003373ffffffffffffffffffffffffffffffffffffffff1673ffffffffffffffffffffffffffffffffffffffff16815260200190815260200160002090506105e383611742565b600061062d826001015461061f64e8d4a510006106118760020154876000015461190e90919063ffffffff16565b61192490919063ffffffff16565b61193a90919063ffffffff16565b90506000811180610642575060008260020154115b156107115761065e81836002015461195090919063ffffffff16565b8260020181905550600061067733846002015487611966565b9050843373ffffffffffffffffffffffffffffffffffffffff167f34fcbac0073d7c3d388e51312faf357774904998eeb8fca628b9e6f65ee1cbf7836040516106c091906126f7565b60405180910390a36106df81846002015461193a90919063ffffffff16565b836002018190555042836003018190555061070781856004015461193a90919063ffffffff16565b8460040181905550505b61074364e8d4a510006107358560020154856000015461190e90919063ffffffff16565b61192490919063ffffffff16565b826001018190555050505050565b60006007838154811061076757610766612a20565b5b9060005260206000209060060201905060006008600085815260200190815260200160002060003373ffffffffffffffffffffffffffffffffffffffff1673ffffffffffffffffffffffffffffffffffffffff1681526020019081526020016000209050816005015481600301546107df91906127ea565b4211610820576040517f08c379a000000000000000000000000000000000000000000000000000000000815260040161081790612517565b60405180910390fd5b8281600001541015610867576040517f08c379a000000000000000000000000000000000000000000000000000000000815260040161085e90612697565b60405180910390fd5b61087084611742565b60006108ba82600101546108ac64e8d4a5100061089e8760020154876000015461190e90919063ffffffff16565b61192490919063ffffffff16565b61193a90919063ffffffff16565b905060008111156108e5576108dc81836002015461195090919063ffffffff16565b82600201819055505b600084111561097a5761093b3385600160009054906101000a900473ffffffffffffffffffffffffffffffffffffffff1673ffffffffffffffffffffffffffffffffffffffff16611afc9092919063ffffffff16565b61095284836000015461193a90919063ffffffff16565b826000018190555061097184846003015461193a90919063ffffffff16565b83600301819055505b6109ac64e8d4a5100061099e8560020154856000015461190e90919063ffffffff16565b61192490919063ffffffff16565b8260010181905550428260030181905550843373ffffffffffffffffffffffffffffffffffffffff167ff279e6a1f5e320cca91135676d9cb6e44ca8a08c0b88342bcdb1144f6511b56886604051610a0491906126f7565b60405180910390a35050505050565b60055481565b60025481565b610a2761173a565b73ffffffffffffffffffffffffffffffffffffffff16610a45610c83565b73ffffffffffffffffffffffffffffffffffffffff1614610a9b576040517f08c379a0000000000000000000000000000000000000000000000000000000008152600401610a9290612617565b60405180910390fd5b610aa56000611b82565b565b610aaf61173a565b73ffffffffffffffffffffffffffffffffffffffff16610acd610c83565b73ffffffffffffffffffffffffffffffffffffffff1614610b23576040517f08c379a0000000000000000000000000000000000000000000000000000000008152600401610b1a90612617565b60405180910390fd5b60006007600081548110610b3a57610b39612a20565b5b90600052602060002090600602016001015414610b8c576040517f08c379a0000000000000000000000000000000000000000000000000000000008152600401610b83906125f7565b60405180910390fd5b806007600081548110610ba257610ba1612a20565b5b90600052602060002090600602016001018190555050565b610bc261173a565b73ffffffffffffffffffffffffffffffffffffffff16610be0610c83565b73ffffffffffffffffffffffffffffffffffffffff1614610c36576040517f08c379a0000000000000000000000000000000000000000000000000000000008152600401610c2d90612617565b60405180910390fd5b60008111610c79576040517f08c379a0000000000000000000000000000000000000000000000000000000008152600401610c7090612657565b60405180910390fd5b8060048190555050565b60008060009054906101000a900473ffffffffffffffffffffffffffffffffffffffff16905090565b60065481565b6008602052816000526040600020602052806000526040600020600091509150508060000154908060010154908060020154908060030154905084565b60006008600083815260200190815260200160002060003373ffffffffffffffffffffffffffffffffffffffff1673ffffffffffffffffffffffffffffffffffffffff1681526020019081526020016000209050610d51828260000154610751565b5050565b610d5d61173a565b73ffffffffffffffffffffffffffffffffffffffff16610d7b610c83565b73ffffffffffffffffffffffffffffffffffffffff1614610dd1576040517f08c379a0000000000000000000000000000000000000000000000000000000008152600401610dc890612617565b60405180910390fd5b6005548111610e15576040517f08c379a0000000000000000000000000000000000000000000000000000000008152600401610e0c906125b7565b60405180910390fd5b8060068190555050565b60008060078481548110610e3657610e35612a20565b5b906000526020600020906006020160010154118015610e7a575060078381548110610e6457610e63612a20565b5b9060005260206000209060060201600101544310155b610eb9576040517f08c379a0000000000000000000000000000000000000000000000000000000008152600401610eb090612637565b60405180910390fd5b600060078481548110610ecf57610ece612a20565b5b9060005260206000209060060201905060006008600086815260200190815260200160002060008573ffffffffffffffffffffffffffffffffffffffff1673ffffffffffffffffffffffffffffffffffffffff1681526020019081526020016000209050600082600201549050600083600301549050836001015443118015610f59575060008114155b15610ffd576000610f7785600101544361193a90919063ffffffff16565b90506000610fba600954610fac8860000154610f9e6004548761190e90919063ffffffff16565b61190e90919063ffffffff16565b61192490919063ffffffff16565b9050610ff8610fe984610fdb64e8d4a510008561190e90919063ffffffff16565b61192490919063ffffffff16565b8561195090919063ffffffff16565b935050505b6110578360020154611049856001015461103b64e8d4a5100061102d888a6000015461190e90919063ffffffff16565b61192490919063ffffffff16565b61193a90919063ffffffff16565b61195090919063ffffffff16565b94505050505092915050565b61106b61173a565b73ffffffffffffffffffffffffffffffffffffffff16611089610c83565b73ffffffffffffffffffffffffffffffffffffffff16146110df576040517f08c379a00000000000000000000000000000000000000000000000000000000081526004016110d690612617565b60405180910390fd5b6000600782815481106110f5576110f4612a20565b5b90600052602060002090600602019050828160050181905550505050565b61111b61173a565b73ffffffffffffffffffffffffffffffffffffffff16611139610c83565b73ffffffffffffffffffffffffffffffffffffffff161461118f576040517f08c379a000000000000000000000000000000000000000000000000000000000815260040161118690612617565b60405180910390fd5b61271081106111d3576040517f08c379a00000000000000000000000000000000000000000000000000000000081526004016111ca90612597565b60405180910390fd5b8060028190555050565b600160009054906101000a900473ffffffffffffffffffffffffffffffffffffffff1681565b60006007838154811061121957611218612a20565b5b9060005260206000209060060201905060006008600085815260200190815260200160002060003373ffffffffffffffffffffffffffffffffffffffff1673ffffffffffffffffffffffffffffffffffffffff1681526020019081526020016000209050600081600001548461128f91906127ea565b905060055481101580156112a4575060065481105b6112e3576040517f08c379a00000000000000000000000000000000000000000000000000000000081526004016112da906126d7565b60405180910390fd5b6112ec85611742565b600082600001541115611370576000611343836001015461133564e8d4a510006113278860020154886000015461190e90919063ffffffff16565b61192490919063ffffffff16565b61193a90919063ffffffff16565b9050600081111561136e5761136581846002015461195090919063ffffffff16565b83600201819055505b505b6000841115611444576113c8333086600160009054906101000a900473ffffffffffffffffffffffffffffffffffffffff1673ffffffffffffffffffffffffffffffffffffffff16611c46909392919063ffffffff16565b6114036113f46003546113e66002548861190e90919063ffffffff16565b61192490919063ffffffff16565b8561193a90919063ffffffff16565b935061141c84836000015461195090919063ffffffff16565b826000018190555061143b84846003015461195090919063ffffffff16565b83600301819055505b61147664e8d4a510006114688560020154856000015461190e90919063ffffffff16565b61192490919063ffffffff16565b8260010181905550428260030181905550843373ffffffffffffffffffffffffffffffffffffffff167f90890809c654f11d6e72a28fa60149770a0d11ec6c92319d6ceb2bb0a4ea1a15866040516114ce91906126f7565b60405180910390a35050505050565b6114e561173a565b73ffffffffffffffffffffffffffffffffffffffff16611503610c83565b73ffffffffffffffffffffffffffffffffffffffff1614611559576040517f08c379a000000000000000000000000000000000000000000000000000000000815260040161155090612617565b60405180910390fd5b600073ffffffffffffffffffffffffffffffffffffffff16600160009054906101000a900473ffffffffffffffffffffffffffffffffffffffff1673ffffffffffffffffffffffffffffffffffffffff16146115ea576040517f08c379a00000000000000000000000000000000000000000000000000000000081526004016115e1906125d7565b60405180910390fd5b80600160006101000a81548173ffffffffffffffffffffffffffffffffffffffff021916908373ffffffffffffffffffffffffffffffffffffffff160217905550611639600a62278d00611ccf565b50565b61164461173a565b73ffffffffffffffffffffffffffffffffffffffff16611662610c83565b73ffffffffffffffffffffffffffffffffffffffff16146116b8576040517f08c379a00000000000000000000000000000000000000000000000000000000081526004016116af90612617565b60405180910390fd5b600073ffffffffffffffffffffffffffffffffffffffff168173ffffffffffffffffffffffffffffffffffffffff161415611728576040517f08c379a000000000000000000000000000000000000000000000000000000000815260040161171f90612537565b60405180910390fd5b61173181611b82565b50565b60045481565b600033905090565b60006007828154811061175857611757612a20565b5b90600052602060002090600602016001015411801561179c57506007818154811061178657611785612a20565b5b9060005260206000209060060201600101544310155b6117db576040517f08c379a00000000000000000000000000000000000000000000000000000000081526004016117d290612637565b60405180910390fd5b6000600782815481106117f1576117f0612a20565b5b9060005260206000209060060201905080600101544311611812575061190b565b60008160030154905060008260030154141561183857438260010181905550505061190b565b600061185183600101544361193a90919063ffffffff16565b9050600061189460095461188686600001546118786004548761190e90919063ffffffff16565b61190e90919063ffffffff16565b61192490919063ffffffff16565b90506118ad81856004015461195090919063ffffffff16565b84600401819055506118f56118e2846118d464e8d4a510008561190e90919063ffffffff16565b61192490919063ffffffff16565b856002015461195090919063ffffffff16565b8460020181905550438460010181905550505050505b50565b6000818361191c9190612871565b905092915050565b600081836119329190612840565b905092915050565b6000818361194891906128cb565b905092915050565b6000818361195e91906127ea565b905092915050565b6000806007838154811061197d5761197c612a20565b5b90600052602060002090600602016040518060c0016040529081600082015481526020016001820154815260200160028201548152602001600382015481526020016004820154815260200160058201548152505090506000600160009054906101000a900473ffffffffffffffffffffffffffffffffffffffff1673ffffffffffffffffffffffffffffffffffffffff166370a08231306040518263ffffffff1660e01b8152600401611a31919061245f565b60206040518083038186803b158015611a4957600080fd5b505afa158015611a5d573d6000803e3d6000fd5b505050506040513d601f19601f82011682018060405250810190611a8191906120f7565b90508160800151851115611a9757816080015194505b80851115611aa3578094505b611af08686600160009054906101000a900473ffffffffffffffffffffffffffffffffffffffff1673ffffffffffffffffffffffffffffffffffffffff16611afc9092919063ffffffff16565b84925050509392505050565b611b7d8363a9059cbb60e01b8484604051602401611b1b9291906124b1565b604051602081830303815290604052907bffffffffffffffffffffffffffffffffffffffffffffffffffffffff19166020820180517bffffffffffffffffffffffffffffffffffffffffffffffffffffffff8381831617835250505050611d6d565b505050565b60008060009054906101000a900473ffffffffffffffffffffffffffffffffffffffff169050816000806101000a81548173ffffffffffffffffffffffffffffffffffffffff021916908373ffffffffffffffffffffffffffffffffffffffff1602179055508173ffffffffffffffffffffffffffffffffffffffff168173ffffffffffffffffffffffffffffffffffffffff167f8be0079c531659141344cd1fd0a4f28419497f9722a3daafe3b4186f6b6457e060405160405180910390a35050565b611cc9846323b872dd60e01b858585604051602401611c679392919061247a565b604051602081830303815290604052907bffffffffffffffffffffffffffffffffffffffffffffffffffffffff19166020820180517bffffffffffffffffffffffffffffffffffffffffffffffffffffffff8381831617835250505050611d6d565b50505050565b60076040518060c0016040528084815260200160008152602001600081526020016000815260200160008152602001838152509080600181540180825580915050600190039060005260206000209060060201600090919091909150600082015181600001556020820151816001015560408201518160020155606082015181600301556080820151816004015560a0820151816005015550505050565b6000611dcf826040518060400160405280602081526020017f5361666545524332303a206c6f772d6c6576656c2063616c6c206661696c65648152508573ffffffffffffffffffffffffffffffffffffffff16611e349092919063ffffffff16565b9050600081511115611e2f5780806020019051810190611def9190612070565b611e2e576040517f08c379a0000000000000000000000000000000000000000000000000000000008152600401611e25906126b7565b60405180910390fd5b5b505050565b6060611e438484600085611e4c565b90509392505050565b606082471015611e91576040517f08c379a0000000000000000000000000000000000000000000000000000000008152600401611e8890612577565b60405180910390fd5b611e9a85611f60565b611ed9576040517f08c379a0000000000000000000000000000000000000000000000000000000008152600401611ed090612677565b60405180910390fd5b6000808673ffffffffffffffffffffffffffffffffffffffff168587604051611f029190612448565b60006040518083038185875af1925050503d8060008114611f3f576040519150601f19603f3d011682016040523d82523d6000602084013e611f44565b606091505b5091509150611f54828286611f73565b92505050949350505050565b600080823b905060008111915050919050565b60608315611f8357829050611fd3565b600083511115611f965782518084602001fd5b816040517f08c379a0000000000000000000000000000000000000000000000000000000008152600401611fca91906124f5565b60405180910390fd5b9392505050565b600081359050611fe981612d8a565b92915050565b600081519050611ffe81612da1565b92915050565b60008135905061201381612db8565b92915050565b60008135905061202881612dcf565b92915050565b60008151905061203d81612dcf565b92915050565b60006020828403121561205957612058612a4f565b5b600061206784828501611fda565b91505092915050565b60006020828403121561208657612085612a4f565b5b600061209484828501611fef565b91505092915050565b6000602082840312156120b3576120b2612a4f565b5b60006120c184828501612004565b91505092915050565b6000602082840312156120e0576120df612a4f565b5b60006120ee84828501612019565b91505092915050565b60006020828403121561210d5761210c612a4f565b5b600061211b8482850161202e565b91505092915050565b6000806040838503121561213b5761213a612a4f565b5b600061214985828601612019565b925050602061215a85828601611fda565b9150509250929050565b6000806040838503121561217b5761217a612a4f565b5b600061218985828601612019565b925050602061219a85828601612019565b9150509250929050565b6121ad816128ff565b82525050565b60006121be826127b8565b6121c881856127ce565b93506121d881856020860161298f565b80840191505092915050565b6121ed81612959565b82525050565b60006121fe826127c3565b61220881856127d9565b935061221881856020860161298f565b61222181612a54565b840191505092915050565b60006122396018836127d9565b915061224482612a65565b602082019050919050565b600061225c6026836127d9565b915061226782612a8e565b604082019050919050565b600061227f600d836127d9565b915061228a82612add565b602082019050919050565b60006122a26026836127d9565b91506122ad82612b06565b604082019050919050565b60006122c5600b836127d9565b91506122d082612b55565b602082019050919050565b60006122e86034836127d9565b91506122f382612b7e565b604082019050919050565b600061230b6012836127d9565b915061231682612bcd565b602082019050919050565b600061232e6017836127d9565b915061233982612bf6565b602082019050919050565b60006123516020836127d9565b915061235c82612c1f565b602082019050919050565b60006123746017836127d9565b915061237f82612c48565b602082019050919050565b60006123976029836127d9565b91506123a282612c71565b604082019050919050565b60006123ba601d836127d9565b91506123c582612cc0565b602082019050919050565b60006123dd601f836127d9565b91506123e882612ce9565b602082019050919050565b6000612400602a836127d9565b915061240b82612d12565b604082019050919050565b60006124236016836127d9565b915061242e82612d61565b602082019050919050565b6124428161294f565b82525050565b600061245482846121b3565b915081905092915050565b600060208201905061247460008301846121a4565b92915050565b600060608201905061248f60008301866121a4565b61249c60208301856121a4565b6124a96040830184612439565b949350505050565b60006040820190506124c660008301856121a4565b6124d36020830184612439565b9392505050565b60006020820190506124ef60008301846121e4565b92915050565b6000602082019050818103600083015261250f81846121f3565b905092915050565b600060208201905081810360008301526125308161222c565b9050919050565b600060208201905081810360008301526125508161224f565b9050919050565b6000602082019050818103600083015261257081612272565b9050919050565b6000602082019050818103600083015261259081612295565b9050919050565b600060208201905081810360008301526125b0816122b8565b9050919050565b600060208201905081810360008301526125d0816122db565b9050919050565b600060208201905081810360008301526125f0816122fe565b9050919050565b6000602082019050818103600083015261261081612321565b9050919050565b6000602082019050818103600083015261263081612344565b9050919050565b6000602082019050818103600083015261265081612367565b9050919050565b600060208201905081810360008301526126708161238a565b9050919050565b60006020820190508181036000830152612690816123ad565b9050919050565b600060208201905081810360008301526126b0816123d0565b9050919050565b600060208201905081810360008301526126d0816123f3565b9050919050565b600060208201905081810360008301526126f081612416565b9050919050565b600060208201905061270c6000830184612439565b92915050565b60006080820190506127276000830187612439565b6127346020830186612439565b6127416040830185612439565b61274e6060830184612439565b95945050505050565b600060c08201905061276c6000830189612439565b6127796020830188612439565b6127866040830187612439565b6127936060830186612439565b6127a06080830185612439565b6127ad60a0830184612439565b979650505050505050565b600081519050919050565b600081519050919050565b600081905092915050565b600082825260208201905092915050565b60006127f58261294f565b91506128008361294f565b9250827fffffffffffffffffffffffffffffffffffffffffffffffffffffffffffffffff03821115612835576128346129c2565b5b828201905092915050565b600061284b8261294f565b91506128568361294f565b925082612866576128656129f1565b5b828204905092915050565b600061287c8261294f565b91506128878361294f565b9250817fffffffffffffffffffffffffffffffffffffffffffffffffffffffffffffffff04831182151516156128c0576128bf6129c2565b5b828202905092915050565b60006128d68261294f565b91506128e18361294f565b9250828210156128f4576128f36129c2565b5b828203905092915050565b600061290a8261292f565b9050919050565b60008115159050919050565b6000612928826128ff565b9050919050565b600073ffffffffffffffffffffffffffffffffffffffff82169050919050565b6000819050919050565b60006129648261296b565b9050919050565b60006129768261297d565b9050919050565b60006129888261292f565b9050919050565b60005b838110156129ad578082015181840152602081019050612992565b838111156129bc576000848401525b50505050565b7f4e487b7100000000000000000000000000000000000000000000000000000000600052601160045260246000fd5b7f4e487b7100000000000000000000000000000000000000000000000000000000600052601260045260246000fd5b7f4e487b7100000000000000000000000000000000000000000000000000000000600052603260045260246000fd5b600080fd5b6000601f19601f8301169050919050565b7f596f752063616e6e6f7420776974686472617720796574210000000000000000600082015250565b7f4f776e61626c653a206e6577206f776e657220697320746865207a65726f206160008201527f6464726573730000000000000000000000000000000000000000000000000000602082015250565b7f696e76616c69642076616c756500000000000000000000000000000000000000600082015250565b7f416464726573733a20696e73756666696369656e742062616c616e636520666f60008201527f722063616c6c0000000000000000000000000000000000000000000000000000602082015250565b7f696e76616c696420666565000000000000000000000000000000000000000000600082015250565b7f696e76616c69642076616c75652c2073686f756c64206265206772656174657260008201527f207468616e206d696e696e756d20616d6f756e74000000000000000000000000602082015250565b7f546f6b656e20616c726561647920736574210000000000000000000000000000600082015250565b7f5374616b696e6720616c72656164792073746172746564000000000000000000600082015250565b7f4f776e61626c653a2063616c6c6572206973206e6f7420746865206f776e6572600082015250565b7f5374616b696e67206e6f74207965742073746172746564000000000000000000600082015250565b7f45554c45522070657220626c6f636b2073686f756c642062652067726561746560008201527f72207468616e2030210000000000000000000000000000000000000000000000602082015250565b7f416464726573733a2063616c6c20746f206e6f6e2d636f6e7472616374000000600082015250565b7f5769746864726177696e67206d6f7265207468616e20796f7520686176652100600082015250565b7f5361666545524332303a204552433230206f7065726174696f6e20646964206e60008201527f6f74207375636365656400000000000000000000000000000000000000000000602082015250565b7f696e76616c6964206465706f73697420616d6f756e7400000000000000000000600082015250565b612d93816128ff565b8114612d9e57600080fd5b50565b612daa81612911565b8114612db557600080fd5b50565b612dc18161291d565b8114612dcc57600080fd5b50565b612dd88161294f565b8114612de357600080fd5b5056fea2646970667358221220976007ab4294bdd96e612c5111b21330e1caa271cf2e48139d17d9bd040e251864736f6c63430008070033",
  "immutableReferences": {},
  "source": "//SPDX-License-Identifier: Unlicense\npragma solidity >=0.8.0 <=0.9.0;\n\nimport \"@openzeppelin/contracts/access/Ownable.sol\";\nimport \"@openzeppelin/contracts/token/ERC20/utils/SafeERC20.sol\";\nimport \"@openzeppelin/contracts/utils/math/SafeMath.sol\";\n\ncontract EulerStaking is Ownable {\n  using SafeMath for uint256;\n  using SafeERC20 for IERC20;\n\n  struct UserInfo {\n    uint256 amount;\n    uint256 rewardDebt;\n    uint256 pendingRewards;\n    uint256 lastClaim;\n  }\n\n  struct PoolInfo {\n    uint256 allocPoint;\n    uint256 lastRewardBlock;\n    uint256 accEulerPerShare;\n    uint256 depositedAmount;\n    uint256 rewardsAmount;\n    uint256 lockupDuration;\n  }\n\n  IERC20 public euler;\n  uint256 public eulerTxFee = 100;\n  uint256 public maxFee = 10000;\n  uint256 public eulerPerBlock = uint256(1 ether);\n  uint256 public minDepositAmount = 0;\n  uint256 public maxDepositAmount = type(uint256).max;\n\n  PoolInfo[] public poolInfo;\n  mapping(uint256 => mapping(address => UserInfo)) public userInfo;\n  uint256 public totalAllocPoint = 10;\n\n  event Deposit(address indexed user, uint256 indexed pid, uint256 amount);\n  event Withdraw(address indexed user, uint256 indexed pid, uint256 amount);\n  event Claim(address indexed user, uint256 indexed pid, uint256 amount);\n\n  function addPool(uint256 _allocPoint, uint256 _lockupDuration) internal {\n    poolInfo.push(\n      PoolInfo({\n        allocPoint: _allocPoint,\n        lastRewardBlock: 0,\n        accEulerPerShare: 0,\n        depositedAmount: 0,\n        rewardsAmount: 0,\n        lockupDuration: _lockupDuration\n      })\n    );\n  }\n\n  function setEulerToken(IERC20 _euler) external onlyOwner {\n    require(address(euler) == address(0), \"Token already set!\");\n    euler = _euler;\n    addPool(10, 30 days);\n  }\n\n  function startStaking(uint256 startBlock) external onlyOwner {\n    require(poolInfo[0].lastRewardBlock == 0, \"Staking already started\");\n    poolInfo[0].lastRewardBlock = startBlock;\n  }\n\n  function setLockupDuration(uint256 _lockupDuration, uint256 pid)\n    external\n    onlyOwner\n  {\n    PoolInfo storage pool = poolInfo[pid];\n    pool.lockupDuration = _lockupDuration;\n  }\n\n  function pendingRewards(uint256 pid, address _user)\n    external\n    view\n    returns (uint256)\n  {\n    require(\n      poolInfo[pid].lastRewardBlock > 0 &&\n        block.number >= poolInfo[pid].lastRewardBlock,\n      \"Staking not yet started\"\n    );\n    PoolInfo storage pool = poolInfo[pid];\n    UserInfo storage user = userInfo[pid][_user];\n    uint256 accEulerPerShare = pool.accEulerPerShare;\n    uint256 depositedAmount = pool.depositedAmount;\n    if (block.number > pool.lastRewardBlock && depositedAmount != 0) {\n      uint256 multiplier = block.number.sub(pool.lastRewardBlock);\n      uint256 eulerReward = multiplier\n      .mul(eulerPerBlock)\n      .mul(pool.allocPoint)\n      .div(totalAllocPoint);\n      accEulerPerShare = accEulerPerShare.add(\n        eulerReward.mul(1e12).div(depositedAmount)\n      );\n    }\n    return\n      user.amount.mul(accEulerPerShare).div(1e12).sub(user.rewardDebt).add(\n        user.pendingRewards\n      );\n  }\n\n  function updatePool(uint256 pid) internal {\n    require(\n      poolInfo[pid].lastRewardBlock > 0 &&\n        block.number >= poolInfo[pid].lastRewardBlock,\n      \"Staking not yet started\"\n    );\n    PoolInfo storage pool = poolInfo[pid];\n    if (block.number <= pool.lastRewardBlock) {\n      return;\n    }\n    uint256 depositedAmount = pool.depositedAmount;\n    if (pool.depositedAmount == 0) {\n      pool.lastRewardBlock = block.number;\n      return;\n    }\n    uint256 multiplier = block.number.sub(pool.lastRewardBlock);\n    uint256 eulerReward = multiplier\n    .mul(eulerPerBlock)\n    .mul(pool.allocPoint)\n    .div(totalAllocPoint);\n    pool.rewardsAmount = pool.rewardsAmount.add(eulerReward);\n    pool.accEulerPerShare = pool.accEulerPerShare.add(\n      eulerReward.mul(1e12).div(depositedAmount)\n    );\n    pool.lastRewardBlock = block.number;\n  }\n\n  function deposit(uint256 pid, uint256 amount) external {\n\n    PoolInfo storage pool = poolInfo[pid];\n    UserInfo storage user = userInfo[pid][msg.sender];\n\n    uint256 sumAmount = amount + user.amount;\n\n    require(\n      sumAmount >= minDepositAmount && sumAmount < maxDepositAmount,\n      \"invalid deposit amount\"\n    );\n\n    updatePool(pid);\n    if (user.amount > 0) {\n      uint256 pending = user.amount.mul(pool.accEulerPerShare).div(1e12).sub(\n        user.rewardDebt\n      );\n      if (pending > 0) {\n        user.pendingRewards = user.pendingRewards.add(pending);\n      }\n    }\n    if (amount > 0) {\n      euler.safeTransferFrom(address(msg.sender), address(this), amount);\n      // Lost 1% fee from transaction\n      amount = amount.sub(amount.mul(eulerTxFee).div(maxFee));\n      user.amount = user.amount.add(amount);\n      pool.depositedAmount = pool.depositedAmount.add(amount);\n    }\n    user.rewardDebt = user.amount.mul(pool.accEulerPerShare).div(1e12);\n    user.lastClaim = block.timestamp;\n    emit Deposit(msg.sender, pid, amount);\n  }\n\n  function withdraw(uint256 pid, uint256 amount) public {\n    PoolInfo storage pool = poolInfo[pid];\n    UserInfo storage user = userInfo[pid][msg.sender];\n    require(\n      block.timestamp > user.lastClaim + pool.lockupDuration,\n      \"You cannot withdraw yet!\"\n    );\n    require(user.amount >= amount, \"Withdrawing more than you have!\");\n    updatePool(pid);\n    uint256 pending = user.amount.mul(pool.accEulerPerShare).div(1e12).sub(\n      user.rewardDebt\n    );\n    if (pending > 0) {\n      user.pendingRewards = user.pendingRewards.add(pending);\n    }\n    if (amount > 0) {\n      euler.safeTransfer(address(msg.sender), amount);\n      user.amount = user.amount.sub(amount);\n      pool.depositedAmount = pool.depositedAmount.sub(amount);\n    }\n    user.rewardDebt = user.amount.mul(pool.accEulerPerShare).div(1e12);\n    user.lastClaim = block.timestamp;\n    emit Withdraw(msg.sender, pid, amount);\n  }\n\n  function withdrawAll(uint256 pid) external {\n    UserInfo storage user = userInfo[pid][msg.sender];\n\n    withdraw(pid, user.amount);\n  }\n\n  function claim(uint256 pid) public {\n    PoolInfo storage pool = poolInfo[pid];\n    UserInfo storage user = userInfo[pid][msg.sender];\n    updatePool(pid);\n    uint256 pending = user.amount.mul(pool.accEulerPerShare).div(1e12).sub(\n      user.rewardDebt\n    );\n    if (pending > 0 || user.pendingRewards > 0) {\n      user.pendingRewards = user.pendingRewards.add(pending);\n      uint256 claimedAmount = safeEulerTransfer(\n        msg.sender,\n        user.pendingRewards,\n        pid\n      );\n      emit Claim(msg.sender, pid, claimedAmount);\n      user.pendingRewards = user.pendingRewards.sub(claimedAmount);\n      user.lastClaim = block.timestamp;\n      pool.rewardsAmount = pool.rewardsAmount.sub(claimedAmount);\n    }\n    user.rewardDebt = user.amount.mul(pool.accEulerPerShare).div(1e12);\n  }\n\n  function safeEulerTransfer(\n    address to,\n    uint256 amount,\n    uint256 pid\n  ) internal returns (uint256) {\n    PoolInfo memory pool = poolInfo[pid];\n    uint256 _bal = euler.balanceOf(address(this));\n    if (amount > pool.rewardsAmount) amount = pool.rewardsAmount;\n    if (amount > _bal) amount = _bal;\n    euler.safeTransfer(to, amount);\n    return amount;\n  }\n  \n  function setEulerPerBlock(uint256 _eulerPerBlock) external onlyOwner {\n    require(_eulerPerBlock > 0, \"EULER per block should be greater than 0!\");\n    eulerPerBlock = _eulerPerBlock;\n  }\n\n  function setMinDepositAmount(uint256 _amount) external onlyOwner {\n    require(_amount > 0, \"invalid value\");\n    minDepositAmount = _amount;\n  }\n\n  function setMaxDepositAmount(uint256 _amount) external onlyOwner {\n    require(\n      _amount > minDepositAmount,\n      \"invalid value, should be greater than mininum amount\"\n    );\n    maxDepositAmount = _amount;\n  }\n\n  function setEulerTxFee(uint256 _fee) external onlyOwner {\n    require(_fee < 10000, \"invalid fee\");\n\n    eulerTxFee = _fee;\n  }\n}\n",
  "sourcePath": "/home/asilva/Entorno/euler/contracts/contracts/EulerStaking.sol",
  "compiler": {
    "name": "solc",
    "version": "0.8.7+commit.e28d00a7.Emscripten.clang"
  },
  "schemaVersion": "3.4.3",
  "updatedAt": "2021-08-25T16:26:42.282Z",
  "networkType": "ethereum",
  "devdoc": {
    "kind": "dev",
    "methods": {
      "owner()": {
        "details": "Returns the address of the current owner."
      },
      "renounceOwnership()": {
        "details": "Leaves the contract without owner. It will not be possible to call `onlyOwner` functions anymore. Can only be called by the current owner. NOTE: Renouncing ownership will leave the contract without an owner, thereby removing any functionality that is only available to the owner."
      },
      "transferOwnership(address)": {
        "details": "Transfers ownership of the contract to a new account (`newOwner`). Can only be called by the current owner."
      }
    },
    "version": 1
  },
  "userdoc": {
    "kind": "user",
    "methods": {},
    "version": 1
  }
}