{
  "contractName": "EulerStaking",
  "abi": [
    {
      "anonymous": false,
      "inputs": [
        {
          "indexed": true,
          "internalType": "address",
          "name": "user",
          "type": "address"
        },
        {
          "indexed": true,
          "internalType": "uint256",
          "name": "pid",
          "type": "uint256"
        },
        {
          "indexed": false,
          "internalType": "uint256",
          "name": "amount",
          "type": "uint256"
        }
      ],
      "name": "Claim",
      "type": "event"
    },
    {
      "anonymous": false,
      "inputs": [
        {
          "indexed": true,
          "internalType": "address",
          "name": "user",
          "type": "address"
        },
        {
          "indexed": true,
          "internalType": "uint256",
          "name": "pid",
          "type": "uint256"
        },
        {
          "indexed": false,
          "internalType": "uint256",
          "name": "amount",
          "type": "uint256"
        }
      ],
      "name": "Deposit",
      "type": "event"
    },
    {
      "anonymous": false,
      "inputs": [
        {
          "indexed": true,
          "internalType": "address",
          "name": "previousOwner",
          "type": "address"
        },
        {
          "indexed": true,
          "internalType": "address",
          "name": "newOwner",
          "type": "address"
        }
      ],
      "name": "OwnershipTransferred",
      "type": "event"
    },
    {
      "anonymous": false,
      "inputs": [
        {
          "indexed": true,
          "internalType": "address",
          "name": "user",
          "type": "address"
        },
        {
          "indexed": true,
          "internalType": "uint256",
          "name": "pid",
          "type": "uint256"
        },
        {
          "indexed": false,
          "internalType": "uint256",
          "name": "amount",
          "type": "uint256"
        }
      ],
      "name": "Withdraw",
      "type": "event"
    },
    {
      "inputs": [],
      "name": "euler",
      "outputs": [
        {
          "internalType": "contract IERC20",
          "name": "",
          "type": "address"
        }
      ],
      "stateMutability": "view",
      "type": "function",
      "constant": true
    },
    {
      "inputs": [],
      "name": "eulerPerBlock",
      "outputs": [
        {
          "internalType": "uint256",
          "name": "",
          "type": "uint256"
        }
      ],
      "stateMutability": "view",
      "type": "function",
      "constant": true
    },
    {
      "inputs": [],
      "name": "eulerTxFee",
      "outputs": [
        {
          "internalType": "uint256",
          "name": "",
          "type": "uint256"
        }
      ],
      "stateMutability": "view",
      "type": "function",
      "constant": true
    },
    {
      "inputs": [],
      "name": "maxDepositAmount",
      "outputs": [
        {
          "internalType": "uint256",
          "name": "",
          "type": "uint256"
        }
      ],
      "stateMutability": "view",
      "type": "function",
      "constant": true
    },
    {
      "inputs": [],
      "name": "maxFee",
      "outputs": [
        {
          "internalType": "uint256",
          "name": "",
          "type": "uint256"
        }
      ],
      "stateMutability": "view",
      "type": "function",
      "constant": true
    },
    {
      "inputs": [],
      "name": "minDepositAmount",
      "outputs": [
        {
          "internalType": "uint256",
          "name": "",
          "type": "uint256"
        }
      ],
      "stateMutability": "view",
      "type": "function",
      "constant": true
    },
    {
      "inputs": [],
      "name": "owner",
      "outputs": [
        {
          "internalType": "address",
          "name": "",
          "type": "address"
        }
      ],
      "stateMutability": "view",
      "type": "function",
      "constant": true
    },
    {
      "inputs": [
        {
          "internalType": "uint256",
          "name": "",
          "type": "uint256"
        }
      ],
      "name": "poolInfo",
      "outputs": [
        {
          "internalType": "uint256",
          "name": "allocPoint",
          "type": "uint256"
        },
        {
          "internalType": "uint256",
          "name": "lastRewardBlock",
          "type": "uint256"
        },
        {
          "internalType": "uint256",
          "name": "accEulerPerShare",
          "type": "uint256"
        },
        {
          "internalType": "uint256",
          "name": "depositedAmount",
          "type": "uint256"
        },
        {
          "internalType": "uint256",
          "name": "rewardsAmount",
          "type": "uint256"
        },
        {
          "internalType": "uint256",
          "name": "lockupDuration",
          "type": "uint256"
        }
      ],
      "stateMutability": "view",
      "type": "function",
      "constant": true
    },
    {
      "inputs": [],
      "name": "renounceOwnership",
      "outputs": [],
      "stateMutability": "nonpayable",
      "type": "function"
    },
    {
      "inputs": [],
      "name": "totalAllocPoint",
      "outputs": [
        {
          "internalType": "uint256",
          "name": "",
          "type": "uint256"
        }
      ],
      "stateMutability": "view",
      "type": "function",
      "constant": true
    },
    {
      "inputs": [
        {
          "internalType": "address",
          "name": "newOwner",
          "type": "address"
        }
      ],
      "name": "transferOwnership",
      "outputs": [],
      "stateMutability": "nonpayable",
      "type": "function"
    },
    {
      "inputs": [
        {
          "internalType": "uint256",
          "name": "",
          "type": "uint256"
        },
        {
          "internalType": "address",
          "name": "",
          "type": "address"
        }
      ],
      "name": "userInfo",
      "outputs": [
        {
          "internalType": "uint256",
          "name": "amount",
          "type": "uint256"
        },
        {
          "internalType": "uint256",
          "name": "rewardDebt",
          "type": "uint256"
        },
        {
          "internalType": "uint256",
          "name": "pendingRewards",
          "type": "uint256"
        },
        {
          "internalType": "uint256",
          "name": "lastClaim",
          "type": "uint256"
        }
      ],
      "stateMutability": "view",
      "type": "function",
      "constant": true
    },
    {
      "inputs": [
        {
          "internalType": "contract IERC20",
          "name": "_euler",
          "type": "address"
        }
      ],
      "name": "setEulerToken",
      "outputs": [],
      "stateMutability": "nonpayable",
      "type": "function"
    },
    {
      "inputs": [
        {
          "internalType": "uint256",
          "name": "startBlock",
          "type": "uint256"
        }
      ],
      "name": "startStaking",
      "outputs": [],
      "stateMutability": "nonpayable",
      "type": "function"
    },
    {
      "inputs": [
        {
          "internalType": "uint256",
          "name": "_lockupDuration",
          "type": "uint256"
        },
        {
          "internalType": "uint256",
          "name": "pid",
          "type": "uint256"
        }
      ],
      "name": "setLockupDuration",
      "outputs": [],
      "stateMutability": "nonpayable",
      "type": "function"
    },
    {
      "inputs": [
        {
          "internalType": "uint256",
          "name": "pid",
          "type": "uint256"
        },
        {
          "internalType": "address",
          "name": "_user",
          "type": "address"
        }
      ],
      "name": "getUserInfo",
      "outputs": [
        {
          "components": [
            {
              "internalType": "uint256",
              "name": "amount",
              "type": "uint256"
            },
            {
              "internalType": "uint256",
              "name": "pendingRewards",
              "type": "uint256"
            },
            {
              "internalType": "uint256",
              "name": "withdrawAvaliable",
              "type": "uint256"
            },
            {
              "internalType": "uint256",
              "name": "eulerPerBlock",
              "type": "uint256"
            },
            {
              "internalType": "uint256",
              "name": "tvl",
              "type": "uint256"
            }
          ],
          "internalType": "struct EulerStaking.GetUserInfo",
          "name": "",
          "type": "tuple"
        }
      ],
      "stateMutability": "view",
      "type": "function",
      "constant": true
    },
    {
      "inputs": [
        {
          "internalType": "uint256",
          "name": "pid",
          "type": "uint256"
        },
        {
          "internalType": "uint256",
          "name": "amount",
          "type": "uint256"
        }
      ],
      "name": "deposit",
      "outputs": [],
      "stateMutability": "nonpayable",
      "type": "function"
    },
    {
      "inputs": [
        {
          "internalType": "uint256",
          "name": "pid",
          "type": "uint256"
        },
        {
          "internalType": "uint256",
          "name": "amount",
          "type": "uint256"
        }
      ],
      "name": "withdraw",
      "outputs": [],
      "stateMutability": "nonpayable",
      "type": "function"
    },
    {
      "inputs": [
        {
          "internalType": "uint256",
          "name": "pid",
          "type": "uint256"
        }
      ],
      "name": "withdrawAll",
      "outputs": [],
      "stateMutability": "nonpayable",
      "type": "function"
    },
    {
      "inputs": [
        {
          "internalType": "uint256",
          "name": "pid",
          "type": "uint256"
        }
      ],
      "name": "claim",
      "outputs": [],
      "stateMutability": "nonpayable",
      "type": "function"
    },
    {
      "inputs": [
        {
          "internalType": "uint256",
          "name": "_eulerPerBlock",
          "type": "uint256"
        }
      ],
      "name": "setEulerPerBlock",
      "outputs": [],
      "stateMutability": "nonpayable",
      "type": "function"
    },
    {
      "inputs": [
        {
          "internalType": "uint256",
          "name": "_amount",
          "type": "uint256"
        }
      ],
      "name": "setMinDepositAmount",
      "outputs": [],
      "stateMutability": "nonpayable",
      "type": "function"
    },
    {
      "inputs": [
        {
          "internalType": "uint256",
          "name": "_amount",
          "type": "uint256"
        }
      ],
      "name": "setMaxDepositAmount",
      "outputs": [],
      "stateMutability": "nonpayable",
      "type": "function"
    },
    {
      "inputs": [
        {
          "internalType": "uint256",
          "name": "_fee",
          "type": "uint256"
        }
      ],
      "name": "setEulerTxFee",
      "outputs": [],
      "stateMutability": "nonpayable",
      "type": "function"
    }
  ],
  "bytecode": "0x60806040526064600255612710600355670de0b6b3a764000060045560006005557fffffffffffffffffffffffffffffffffffffffffffffffffffffffffffffffff600655600a6009553480156200005657600080fd5b50620000776200006b6200007d60201b60201c565b6200008560201b60201c565b62000149565b600033905090565b60008060009054906101000a900473ffffffffffffffffffffffffffffffffffffffff169050816000806101000a81548173ffffffffffffffffffffffffffffffffffffffff021916908373ffffffffffffffffffffffffffffffffffffffff1602179055508173ffffffffffffffffffffffffffffffffffffffff168173ffffffffffffffffffffffffffffffffffffffff167f8be0079c531659141344cd1fd0a4f28419497f9722a3daafe3b4186f6b6457e060405160405180910390a35050565b612fe480620001596000396000f3fe608060405234801561001057600080fd5b50600436106101585760003560e01c80638da5cb5b116100c3578063da690f861161007c578063da690f8614610393578063db661b71146103af578063e2bbb158146103cd578063ebce8389146103e9578063f2fde38b14610405578063fcdea5791461042157610158565b80638da5cb5b146102d05780638ed83271146102ee57806393f1a40b1461030c578063958e2d311461033f578063c4511c6a1461035b578063d208c3821461037757610158565b8063441a3e7011610115578063441a3e7014610236578063645006ca1461025257806366dd54a014610270578063715018a61461028e578063762b1c92146102985780637ab28707146102b457610158565b806301f59d161461015d5780631069f3b51461017b5780631526fe27146101ab57806317caf6f1146101e05780632a80cda3146101fe578063379607f51461021a575b600080fd5b61016561043f565b60405161017291906128bf565b60405180910390f35b6101956004803603810190610190919061225a565b610445565b6040516101a291906128a4565b60405180910390f35b6101c560048036038101906101c09190612200565b61054c565b6040516101d79695949392919061291f565b60405180910390f35b6101e8610598565b6040516101f591906128bf565b60405180910390f35b61021860048036038101906102139190612200565b61059e565b005b610234600480360381019061022f9190612200565b610667565b005b610250600480360381019061024b919061229a565b610858565b005b61025a610b1a565b60405161026791906128bf565b60405180910390f35b610278610b20565b60405161028591906128bf565b60405180910390f35b610296610b26565b005b6102b260048036038101906102ad9190612200565b610bae565b005b6102ce60048036038101906102c99190612200565b610cc1565b005b6102d8610d8a565b6040516102e5919061260c565b60405180910390f35b6102f6610db3565b60405161030391906128bf565b60405180910390f35b6103266004803603810190610321919061225a565b610db9565b60405161033694939291906128da565b60405180910390f35b61035960048036038101906103549190612200565b610df6565b005b61037560048036038101906103709190612200565b610e5c565b005b610391600480360381019061038c919061229a565b610f26565b005b6103ad60048036038101906103a89190612200565b610fd6565b005b6103b76110a0565b6040516103c49190612687565b60405180910390f35b6103e760048036038101906103e2919061229a565b6110c6565b005b61040360048036038101906103fe91906121d3565b6113a0565b005b61041f600480360381019061041a9190612179565b6114ff565b005b6104296115f7565b60405161043691906128bf565b60405180910390f35b60035481565b61044d6120e1565b60006007848154811061046357610462612be8565b5b9060005260206000209060060201905060006008600086815260200190815260200160002060008573ffffffffffffffffffffffffffffffffffffffff1673ffffffffffffffffffffffffffffffffffffffff16815260200190815260200160002090506104cf6120e1565b81600001548160000181815250506000816040018181525050600082600301541115610513578260050154826003015461050991906129b2565b8160400181815250505b600454816060018181525050826003015481608001818152505061053786866115fd565b81602001818152505080935050505092915050565b6007818154811061055c57600080fd5b90600052602060002090600602016000915090508060000154908060010154908060020154908060030154908060040154908060050154905086565b60095481565b6105a6611841565b73ffffffffffffffffffffffffffffffffffffffff166105c4610d8a565b73ffffffffffffffffffffffffffffffffffffffff161461061a576040517f08c379a0000000000000000000000000000000000000000000000000000000008152600401610611906127c4565b60405180910390fd5b6000811161065d576040517f08c379a000000000000000000000000000000000000000000000000000000000815260040161065490612704565b60405180910390fd5b8060058190555050565b60006007828154811061067d5761067c612be8565b5b9060005260206000209060060201905060006008600084815260200190815260200160002060003373ffffffffffffffffffffffffffffffffffffffff1673ffffffffffffffffffffffffffffffffffffffff16815260200190815260200160002090506106ea83611849565b6000610734826001015461072664e8d4a5100061071887600201548760000154611a1590919063ffffffff16565b611a2b90919063ffffffff16565b611a4190919063ffffffff16565b90506000811180610749575060008260020154115b1561081857610765818360020154611a5790919063ffffffff16565b8260020181905550600061077e33846002015487611a6d565b9050843373ffffffffffffffffffffffffffffffffffffffff167f34fcbac0073d7c3d388e51312faf357774904998eeb8fca628b9e6f65ee1cbf7836040516107c791906128bf565b60405180910390a36107e6818460020154611a4190919063ffffffff16565b836002018190555042836003018190555061080e818560040154611a4190919063ffffffff16565b8460040181905550505b61084a64e8d4a5100061083c85600201548560000154611a1590919063ffffffff16565b611a2b90919063ffffffff16565b826001018190555050505050565b60006007838154811061086e5761086d612be8565b5b9060005260206000209060060201905060006008600085815260200190815260200160002060003373ffffffffffffffffffffffffffffffffffffffff1673ffffffffffffffffffffffffffffffffffffffff1681526020019081526020016000209050816005015481600301546108e691906129b2565b4211610927576040517f08c379a000000000000000000000000000000000000000000000000000000000815260040161091e906126c4565b60405180910390fd5b828160000154101561096e576040517f08c379a000000000000000000000000000000000000000000000000000000000815260040161096590612844565b60405180910390fd5b61097784611849565b60006109c182600101546109b364e8d4a510006109a587600201548760000154611a1590919063ffffffff16565b611a2b90919063ffffffff16565b611a4190919063ffffffff16565b905060008111156109ec576109e3818360020154611a5790919063ffffffff16565b82600201819055505b6000841115610a8157610a423385600160009054906101000a900473ffffffffffffffffffffffffffffffffffffffff1673ffffffffffffffffffffffffffffffffffffffff16611c039092919063ffffffff16565b610a59848360000154611a4190919063ffffffff16565b8260000181905550610a78848460030154611a4190919063ffffffff16565b83600301819055505b610ab364e8d4a51000610aa585600201548560000154611a1590919063ffffffff16565b611a2b90919063ffffffff16565b8260010181905550428260030181905550843373ffffffffffffffffffffffffffffffffffffffff167ff279e6a1f5e320cca91135676d9cb6e44ca8a08c0b88342bcdb1144f6511b56886604051610b0b91906128bf565b60405180910390a35050505050565b60055481565b60025481565b610b2e611841565b73ffffffffffffffffffffffffffffffffffffffff16610b4c610d8a565b73ffffffffffffffffffffffffffffffffffffffff1614610ba2576040517f08c379a0000000000000000000000000000000000000000000000000000000008152600401610b99906127c4565b60405180910390fd5b610bac6000611c89565b565b610bb6611841565b73ffffffffffffffffffffffffffffffffffffffff16610bd4610d8a565b73ffffffffffffffffffffffffffffffffffffffff1614610c2a576040517f08c379a0000000000000000000000000000000000000000000000000000000008152600401610c21906127c4565b60405180910390fd5b60006007600081548110610c4157610c40612be8565b5b90600052602060002090600602016001015414610c93576040517f08c379a0000000000000000000000000000000000000000000000000000000008152600401610c8a906127a4565b60405180910390fd5b806007600081548110610ca957610ca8612be8565b5b90600052602060002090600602016001018190555050565b610cc9611841565b73ffffffffffffffffffffffffffffffffffffffff16610ce7610d8a565b73ffffffffffffffffffffffffffffffffffffffff1614610d3d576040517f08c379a0000000000000000000000000000000000000000000000000000000008152600401610d34906127c4565b60405180910390fd5b60008111610d80576040517f08c379a0000000000000000000000000000000000000000000000000000000008152600401610d7790612804565b60405180910390fd5b8060048190555050565b60008060009054906101000a900473ffffffffffffffffffffffffffffffffffffffff16905090565b60065481565b6008602052816000526040600020602052806000526040600020600091509150508060000154908060010154908060020154908060030154905084565b60006008600083815260200190815260200160002060003373ffffffffffffffffffffffffffffffffffffffff1673ffffffffffffffffffffffffffffffffffffffff1681526020019081526020016000209050610e58828260000154610858565b5050565b610e64611841565b73ffffffffffffffffffffffffffffffffffffffff16610e82610d8a565b73ffffffffffffffffffffffffffffffffffffffff1614610ed8576040517f08c379a0000000000000000000000000000000000000000000000000000000008152600401610ecf906127c4565b60405180910390fd5b6005548111610f1c576040517f08c379a0000000000000000000000000000000000000000000000000000000008152600401610f1390612764565b60405180910390fd5b8060068190555050565b610f2e611841565b73ffffffffffffffffffffffffffffffffffffffff16610f4c610d8a565b73ffffffffffffffffffffffffffffffffffffffff1614610fa2576040517f08c379a0000000000000000000000000000000000000000000000000000000008152600401610f99906127c4565b60405180910390fd5b600060078281548110610fb857610fb7612be8565b5b90600052602060002090600602019050828160050181905550505050565b610fde611841565b73ffffffffffffffffffffffffffffffffffffffff16610ffc610d8a565b73ffffffffffffffffffffffffffffffffffffffff1614611052576040517f08c379a0000000000000000000000000000000000000000000000000000000008152600401611049906127c4565b60405180910390fd5b6127108110611096576040517f08c379a000000000000000000000000000000000000000000000000000000000815260040161108d90612744565b60405180910390fd5b8060028190555050565b600160009054906101000a900473ffffffffffffffffffffffffffffffffffffffff1681565b6000600783815481106110dc576110db612be8565b5b9060005260206000209060060201905060006008600085815260200190815260200160002060003373ffffffffffffffffffffffffffffffffffffffff1673ffffffffffffffffffffffffffffffffffffffff1681526020019081526020016000209050600081600001548461115291906129b2565b90506005548110158015611167575060065481105b6111a6576040517f08c379a000000000000000000000000000000000000000000000000000000000815260040161119d90612884565b60405180910390fd5b6111af85611849565b60008260000154111561123357600061120683600101546111f864e8d4a510006111ea88600201548860000154611a1590919063ffffffff16565b611a2b90919063ffffffff16565b611a4190919063ffffffff16565b9050600081111561123157611228818460020154611a5790919063ffffffff16565b83600201819055505b505b60008411156113075761128b333086600160009054906101000a900473ffffffffffffffffffffffffffffffffffffffff1673ffffffffffffffffffffffffffffffffffffffff16611d4d909392919063ffffffff16565b6112c66112b76003546112a960025488611a1590919063ffffffff16565b611a2b90919063ffffffff16565b85611a4190919063ffffffff16565b93506112df848360000154611a5790919063ffffffff16565b82600001819055506112fe848460030154611a5790919063ffffffff16565b83600301819055505b61133964e8d4a5100061132b85600201548560000154611a1590919063ffffffff16565b611a2b90919063ffffffff16565b8260010181905550428260030181905550843373ffffffffffffffffffffffffffffffffffffffff167f90890809c654f11d6e72a28fa60149770a0d11ec6c92319d6ceb2bb0a4ea1a158660405161139191906128bf565b60405180910390a35050505050565b6113a8611841565b73ffffffffffffffffffffffffffffffffffffffff166113c6610d8a565b73ffffffffffffffffffffffffffffffffffffffff161461141c576040517f08c379a0000000000000000000000000000000000000000000000000000000008152600401611413906127c4565b60405180910390fd5b600073ffffffffffffffffffffffffffffffffffffffff16600160009054906101000a900473ffffffffffffffffffffffffffffffffffffffff1673ffffffffffffffffffffffffffffffffffffffff16146114ad576040517f08c379a00000000000000000000000000000000000000000000000000000000081526004016114a490612784565b60405180910390fd5b80600160006101000a81548173ffffffffffffffffffffffffffffffffffffffff021916908373ffffffffffffffffffffffffffffffffffffffff1602179055506114fc600a62278d00611dd6565b50565b611507611841565b73ffffffffffffffffffffffffffffffffffffffff16611525610d8a565b73ffffffffffffffffffffffffffffffffffffffff161461157b576040517f08c379a0000000000000000000000000000000000000000000000000000000008152600401611572906127c4565b60405180910390fd5b600073ffffffffffffffffffffffffffffffffffffffff168173ffffffffffffffffffffffffffffffffffffffff1614156115eb576040517f08c379a00000000000000000000000000000000000000000000000000000000081526004016115e2906126e4565b60405180910390fd5b6115f481611c89565b50565b60045481565b6000806007848154811061161457611613612be8565b5b90600052602060002090600602016001015411801561165857506007838154811061164257611641612be8565b5b9060005260206000209060060201600101544310155b611697576040517f08c379a000000000000000000000000000000000000000000000000000000000815260040161168e906127e4565b60405180910390fd5b6000600784815481106116ad576116ac612be8565b5b9060005260206000209060060201905060006008600086815260200190815260200160002060008573ffffffffffffffffffffffffffffffffffffffff1673ffffffffffffffffffffffffffffffffffffffff1681526020019081526020016000209050600082600201549050600083600301549050836001015443118015611737575060008114155b156117db576000611755856001015443611a4190919063ffffffff16565b9050600061179860095461178a886000015461177c60045487611a1590919063ffffffff16565b611a1590919063ffffffff16565b611a2b90919063ffffffff16565b90506117d66117c7846117b964e8d4a5100085611a1590919063ffffffff16565b611a2b90919063ffffffff16565b85611a5790919063ffffffff16565b935050505b6118358360020154611827856001015461181964e8d4a5100061180b888a60000154611a1590919063ffffffff16565b611a2b90919063ffffffff16565b611a4190919063ffffffff16565b611a5790919063ffffffff16565b94505050505092915050565b600033905090565b60006007828154811061185f5761185e612be8565b5b9060005260206000209060060201600101541180156118a357506007818154811061188d5761188c612be8565b5b9060005260206000209060060201600101544310155b6118e2576040517f08c379a00000000000000000000000000000000000000000000000000000000081526004016118d9906127e4565b60405180910390fd5b6000600782815481106118f8576118f7612be8565b5b90600052602060002090600602019050806001015443116119195750611a12565b60008160030154905060008260030154141561193f574382600101819055505050611a12565b6000611958836001015443611a4190919063ffffffff16565b9050600061199b60095461198d866000015461197f60045487611a1590919063ffffffff16565b611a1590919063ffffffff16565b611a2b90919063ffffffff16565b90506119b4818560040154611a5790919063ffffffff16565b84600401819055506119fc6119e9846119db64e8d4a5100085611a1590919063ffffffff16565b611a2b90919063ffffffff16565b8560020154611a5790919063ffffffff16565b8460020181905550438460010181905550505050505b50565b60008183611a239190612a39565b905092915050565b60008183611a399190612a08565b905092915050565b60008183611a4f9190612a93565b905092915050565b60008183611a6591906129b2565b905092915050565b60008060078381548110611a8457611a83612be8565b5b90600052602060002090600602016040518060c0016040529081600082015481526020016001820154815260200160028201548152602001600382015481526020016004820154815260200160058201548152505090506000600160009054906101000a900473ffffffffffffffffffffffffffffffffffffffff1673ffffffffffffffffffffffffffffffffffffffff166370a08231306040518263ffffffff1660e01b8152600401611b38919061260c565b60206040518083038186803b158015611b5057600080fd5b505afa158015611b64573d6000803e3d6000fd5b505050506040513d601f19601f82011682018060405250810190611b88919061222d565b90508160800151851115611b9e57816080015194505b80851115611baa578094505b611bf78686600160009054906101000a900473ffffffffffffffffffffffffffffffffffffffff1673ffffffffffffffffffffffffffffffffffffffff16611c039092919063ffffffff16565b84925050509392505050565b611c848363a9059cbb60e01b8484604051602401611c2292919061265e565b604051602081830303815290604052907bffffffffffffffffffffffffffffffffffffffffffffffffffffffff19166020820180517bffffffffffffffffffffffffffffffffffffffffffffffffffffffff8381831617835250505050611e74565b505050565b60008060009054906101000a900473ffffffffffffffffffffffffffffffffffffffff169050816000806101000a81548173ffffffffffffffffffffffffffffffffffffffff021916908373ffffffffffffffffffffffffffffffffffffffff1602179055508173ffffffffffffffffffffffffffffffffffffffff168173ffffffffffffffffffffffffffffffffffffffff167f8be0079c531659141344cd1fd0a4f28419497f9722a3daafe3b4186f6b6457e060405160405180910390a35050565b611dd0846323b872dd60e01b858585604051602401611d6e93929190612627565b604051602081830303815290604052907bffffffffffffffffffffffffffffffffffffffffffffffffffffffff19166020820180517bffffffffffffffffffffffffffffffffffffffffffffffffffffffff8381831617835250505050611e74565b50505050565b60076040518060c0016040528084815260200160008152602001600081526020016000815260200160008152602001838152509080600181540180825580915050600190039060005260206000209060060201600090919091909150600082015181600001556020820151816001015560408201518160020155606082015181600301556080820151816004015560a0820151816005015550505050565b6000611ed6826040518060400160405280602081526020017f5361666545524332303a206c6f772d6c6576656c2063616c6c206661696c65648152508573ffffffffffffffffffffffffffffffffffffffff16611f3b9092919063ffffffff16565b9050600081511115611f365780806020019051810190611ef691906121a6565b611f35576040517f08c379a0000000000000000000000000000000000000000000000000000000008152600401611f2c90612864565b60405180910390fd5b5b505050565b6060611f4a8484600085611f53565b90509392505050565b606082471015611f98576040517f08c379a0000000000000000000000000000000000000000000000000000000008152600401611f8f90612724565b60405180910390fd5b611fa185612067565b611fe0576040517f08c379a0000000000000000000000000000000000000000000000000000000008152600401611fd790612824565b60405180910390fd5b6000808673ffffffffffffffffffffffffffffffffffffffff16858760405161200991906125f5565b60006040518083038185875af1925050503d8060008114612046576040519150601f19603f3d011682016040523d82523d6000602084013e61204b565b606091505b509150915061205b82828661207a565b92505050949350505050565b600080823b905060008111915050919050565b6060831561208a578290506120da565b60008351111561209d5782518084602001fd5b816040517f08c379a00000000000000000000000000000000000000000000000000000000081526004016120d191906126a2565b60405180910390fd5b9392505050565b6040518060a0016040528060008152602001600081526020016000815260200160008152602001600081525090565b60008135905061211f81612f52565b92915050565b60008151905061213481612f69565b92915050565b60008135905061214981612f80565b92915050565b60008135905061215e81612f97565b92915050565b60008151905061217381612f97565b92915050565b60006020828403121561218f5761218e612c17565b5b600061219d84828501612110565b91505092915050565b6000602082840312156121bc576121bb612c17565b5b60006121ca84828501612125565b91505092915050565b6000602082840312156121e9576121e8612c17565b5b60006121f78482850161213a565b91505092915050565b60006020828403121561221657612215612c17565b5b60006122248482850161214f565b91505092915050565b60006020828403121561224357612242612c17565b5b600061225184828501612164565b91505092915050565b6000806040838503121561227157612270612c17565b5b600061227f8582860161214f565b925050602061229085828601612110565b9150509250929050565b600080604083850312156122b1576122b0612c17565b5b60006122bf8582860161214f565b92505060206122d08582860161214f565b9150509250929050565b6122e381612ac7565b82525050565b60006122f482612980565b6122fe8185612996565b935061230e818560208601612b57565b80840191505092915050565b61232381612b21565b82525050565b60006123348261298b565b61233e81856129a1565b935061234e818560208601612b57565b61235781612c1c565b840191505092915050565b600061236f6018836129a1565b915061237a82612c2d565b602082019050919050565b60006123926026836129a1565b915061239d82612c56565b604082019050919050565b60006123b5600d836129a1565b91506123c082612ca5565b602082019050919050565b60006123d86026836129a1565b91506123e382612cce565b604082019050919050565b60006123fb600b836129a1565b915061240682612d1d565b602082019050919050565b600061241e6034836129a1565b915061242982612d46565b604082019050919050565b60006124416012836129a1565b915061244c82612d95565b602082019050919050565b60006124646017836129a1565b915061246f82612dbe565b602082019050919050565b60006124876020836129a1565b915061249282612de7565b602082019050919050565b60006124aa6017836129a1565b91506124b582612e10565b602082019050919050565b60006124cd6029836129a1565b91506124d882612e39565b604082019050919050565b60006124f0601d836129a1565b91506124fb82612e88565b602082019050919050565b6000612513601f836129a1565b915061251e82612eb1565b602082019050919050565b6000612536602a836129a1565b915061254182612eda565b604082019050919050565b60006125596016836129a1565b915061256482612f29565b602082019050919050565b60a08201600082015161258560008501826125d7565b50602082015161259860208501826125d7565b5060408201516125ab60408501826125d7565b5060608201516125be60608501826125d7565b5060808201516125d160808501826125d7565b50505050565b6125e081612b17565b82525050565b6125ef81612b17565b82525050565b600061260182846122e9565b915081905092915050565b600060208201905061262160008301846122da565b92915050565b600060608201905061263c60008301866122da565b61264960208301856122da565b61265660408301846125e6565b949350505050565b600060408201905061267360008301856122da565b61268060208301846125e6565b9392505050565b600060208201905061269c600083018461231a565b92915050565b600060208201905081810360008301526126bc8184612329565b905092915050565b600060208201905081810360008301526126dd81612362565b9050919050565b600060208201905081810360008301526126fd81612385565b9050919050565b6000602082019050818103600083015261271d816123a8565b9050919050565b6000602082019050818103600083015261273d816123cb565b9050919050565b6000602082019050818103600083015261275d816123ee565b9050919050565b6000602082019050818103600083015261277d81612411565b9050919050565b6000602082019050818103600083015261279d81612434565b9050919050565b600060208201905081810360008301526127bd81612457565b9050919050565b600060208201905081810360008301526127dd8161247a565b9050919050565b600060208201905081810360008301526127fd8161249d565b9050919050565b6000602082019050818103600083015261281d816124c0565b9050919050565b6000602082019050818103600083015261283d816124e3565b9050919050565b6000602082019050818103600083015261285d81612506565b9050919050565b6000602082019050818103600083015261287d81612529565b9050919050565b6000602082019050818103600083015261289d8161254c565b9050919050565b600060a0820190506128b9600083018461256f565b92915050565b60006020820190506128d460008301846125e6565b92915050565b60006080820190506128ef60008301876125e6565b6128fc60208301866125e6565b61290960408301856125e6565b61291660608301846125e6565b95945050505050565b600060c08201905061293460008301896125e6565b61294160208301886125e6565b61294e60408301876125e6565b61295b60608301866125e6565b61296860808301856125e6565b61297560a08301846125e6565b979650505050505050565b600081519050919050565b600081519050919050565b600081905092915050565b600082825260208201905092915050565b60006129bd82612b17565b91506129c883612b17565b9250827fffffffffffffffffffffffffffffffffffffffffffffffffffffffffffffffff038211156129fd576129fc612b8a565b5b828201905092915050565b6000612a1382612b17565b9150612a1e83612b17565b925082612a2e57612a2d612bb9565b5b828204905092915050565b6000612a4482612b17565b9150612a4f83612b17565b9250817fffffffffffffffffffffffffffffffffffffffffffffffffffffffffffffffff0483118215151615612a8857612a87612b8a565b5b828202905092915050565b6000612a9e82612b17565b9150612aa983612b17565b925082821015612abc57612abb612b8a565b5b828203905092915050565b6000612ad282612af7565b9050919050565b60008115159050919050565b6000612af082612ac7565b9050919050565b600073ffffffffffffffffffffffffffffffffffffffff82169050919050565b6000819050919050565b6000612b2c82612b33565b9050919050565b6000612b3e82612b45565b9050919050565b6000612b5082612af7565b9050919050565b60005b83811015612b75578082015181840152602081019050612b5a565b83811115612b84576000848401525b50505050565b7f4e487b7100000000000000000000000000000000000000000000000000000000600052601160045260246000fd5b7f4e487b7100000000000000000000000000000000000000000000000000000000600052601260045260246000fd5b7f4e487b7100000000000000000000000000000000000000000000000000000000600052603260045260246000fd5b600080fd5b6000601f19601f8301169050919050565b7f596f752063616e6e6f7420776974686472617720796574210000000000000000600082015250565b7f4f776e61626c653a206e6577206f776e657220697320746865207a65726f206160008201527f6464726573730000000000000000000000000000000000000000000000000000602082015250565b7f696e76616c69642076616c756500000000000000000000000000000000000000600082015250565b7f416464726573733a20696e73756666696369656e742062616c616e636520666f60008201527f722063616c6c0000000000000000000000000000000000000000000000000000602082015250565b7f696e76616c696420666565000000000000000000000000000000000000000000600082015250565b7f696e76616c69642076616c75652c2073686f756c64206265206772656174657260008201527f207468616e206d696e696e756d20616d6f756e74000000000000000000000000602082015250565b7f546f6b656e20616c726561647920736574210000000000000000000000000000600082015250565b7f5374616b696e6720616c72656164792073746172746564000000000000000000600082015250565b7f4f776e61626c653a2063616c6c6572206973206e6f7420746865206f776e6572600082015250565b7f5374616b696e67206e6f74207965742073746172746564000000000000000000600082015250565b7f45554c45522070657220626c6f636b2073686f756c642062652067726561746560008201527f72207468616e2030210000000000000000000000000000000000000000000000602082015250565b7f416464726573733a2063616c6c20746f206e6f6e2d636f6e7472616374000000600082015250565b7f5769746864726177696e67206d6f7265207468616e20796f7520686176652100600082015250565b7f5361666545524332303a204552433230206f7065726174696f6e20646964206e60008201527f6f74207375636365656400000000000000000000000000000000000000000000602082015250565b7f696e76616c6964206465706f73697420616d6f756e7400000000000000000000600082015250565b612f5b81612ac7565b8114612f6657600080fd5b50565b612f7281612ad9565b8114612f7d57600080fd5b50565b612f8981612ae5565b8114612f9457600080fd5b50565b612fa081612b17565b8114612fab57600080fd5b5056fea26469706673582212201093a4dba955b011cc4dc8f5739b7bf8f1a6f35092cc11bb783ca3bbfefa09b564736f6c63430008070033",
  "immutableReferences": {},
  "source": "//SPDX-License-Identifier: Unlicense\npragma solidity >=0.8.0 <=0.9.0;\n\nimport \"@openzeppelin/contracts/access/Ownable.sol\";\nimport \"@openzeppelin/contracts/token/ERC20/utils/SafeERC20.sol\";\nimport \"@openzeppelin/contracts/utils/math/SafeMath.sol\";\n\ncontract EulerStaking is Ownable {\n  using SafeMath for uint256;\n  using SafeERC20 for IERC20;\n\n  struct UserInfo {\n    uint256 amount;\n    uint256 rewardDebt;\n    uint256 pendingRewards;\n    uint256 lastClaim;\n  }\n\n  struct GetUserInfo {\n    uint256 amount;\n    uint256 pendingRewards;\n    uint256 withdrawAvaliable;\n    uint256 eulerPerBlock;\n    uint256 tvl;\n  }\n\n  struct PoolInfo {\n    uint256 allocPoint;\n    uint256 lastRewardBlock;\n    uint256 accEulerPerShare;\n    uint256 depositedAmount;\n    uint256 rewardsAmount;\n    uint256 lockupDuration;\n  }\n\n  IERC20 public euler;\n  uint256 public eulerTxFee = 100;\n  uint256 public maxFee = 10000;\n  uint256 public eulerPerBlock = uint256(1 ether);\n  uint256 public minDepositAmount = 0;\n  uint256 public maxDepositAmount = type(uint256).max;\n\n  PoolInfo[] public poolInfo;\n  mapping(uint256 => mapping(address => UserInfo)) public userInfo;\n  uint256 public totalAllocPoint = 10;\n\n  event Deposit(address indexed user, uint256 indexed pid, uint256 amount);\n  event Withdraw(address indexed user, uint256 indexed pid, uint256 amount);\n  event Claim(address indexed user, uint256 indexed pid, uint256 amount);\n\n  function addPool(uint256 _allocPoint, uint256 _lockupDuration) internal {\n    poolInfo.push(\n      PoolInfo({\n        allocPoint: _allocPoint,\n        lastRewardBlock: 0,\n        accEulerPerShare: 0,\n        depositedAmount: 0,\n        rewardsAmount: 0,\n        lockupDuration: _lockupDuration\n      })\n    );\n  }\n\n  function setEulerToken(IERC20 _euler) external onlyOwner {\n    require(address(euler) == address(0), \"Token already set!\");\n    euler = _euler;\n    addPool(10, 30 days);\n  }\n\n  function startStaking(uint256 startBlock) external onlyOwner {\n    require(poolInfo[0].lastRewardBlock == 0, \"Staking already started\");\n    poolInfo[0].lastRewardBlock = startBlock;\n  }\n\n  function setLockupDuration(uint256 _lockupDuration, uint256 pid)\n    external\n    onlyOwner\n  {\n    PoolInfo storage pool = poolInfo[pid];\n    pool.lockupDuration = _lockupDuration;\n  }\n\n  function pendingRewards(uint256 pid, address _user) private view\n    returns (uint256)\n  {\n    require(\n      poolInfo[pid].lastRewardBlock > 0 &&\n        block.number >= poolInfo[pid].lastRewardBlock,\n      \"Staking not yet started\"\n    );\n    PoolInfo storage pool = poolInfo[pid];\n    UserInfo storage user = userInfo[pid][_user];\n    uint256 accEulerPerShare = pool.accEulerPerShare;\n    uint256 depositedAmount = pool.depositedAmount;\n    if (block.number > pool.lastRewardBlock && depositedAmount != 0) {\n      uint256 multiplier = block.number.sub(pool.lastRewardBlock);\n      uint256 eulerReward = multiplier\n      .mul(eulerPerBlock)\n      .mul(pool.allocPoint)\n      .div(totalAllocPoint);\n      accEulerPerShare = accEulerPerShare.add(\n        eulerReward.mul(1e12).div(depositedAmount)\n      );\n    }\n    return\n      user.amount.mul(accEulerPerShare).div(1e12).sub(user.rewardDebt).add(\n        user.pendingRewards\n      );\n  }\n\n  function getUserInfo(uint256 pid, address _user)\n    external\n    view\n    returns (GetUserInfo memory) {\n\n        PoolInfo storage pool = poolInfo[pid];\n\n        UserInfo storage user = userInfo[pid][_user];\n\n        GetUserInfo memory userAux;\n\n        userAux.amount = user.amount;\n\n        userAux.withdrawAvaliable = 0;\n\n        if(user.lastClaim > 0) {\n\n            userAux.withdrawAvaliable = user.lastClaim + pool.lockupDuration;\n        }\n\n        userAux.eulerPerBlock = eulerPerBlock;\n\n        userAux.tvl = pool.depositedAmount;\n\n        userAux.pendingRewards = pendingRewards(pid,_user);\n\n        return userAux;\n  }\n\n  function updatePool(uint256 pid) internal {\n    require(\n      poolInfo[pid].lastRewardBlock > 0 &&\n        block.number >= poolInfo[pid].lastRewardBlock,\n      \"Staking not yet started\"\n    );\n    PoolInfo storage pool = poolInfo[pid];\n    if (block.number <= pool.lastRewardBlock) {\n      return;\n    }\n    uint256 depositedAmount = pool.depositedAmount;\n    if (pool.depositedAmount == 0) {\n      pool.lastRewardBlock = block.number;\n      return;\n    }\n    uint256 multiplier = block.number.sub(pool.lastRewardBlock);\n    uint256 eulerReward = multiplier\n    .mul(eulerPerBlock)\n    .mul(pool.allocPoint)\n    .div(totalAllocPoint);\n    pool.rewardsAmount = pool.rewardsAmount.add(eulerReward);\n    pool.accEulerPerShare = pool.accEulerPerShare.add(\n      eulerReward.mul(1e12).div(depositedAmount)\n    );\n    pool.lastRewardBlock = block.number;\n  }\n\n  function deposit(uint256 pid, uint256 amount) external {\n\n    PoolInfo storage pool = poolInfo[pid];\n    UserInfo storage user = userInfo[pid][msg.sender];\n\n    uint256 sumAmount = amount + user.amount;\n\n    require(\n      sumAmount >= minDepositAmount && sumAmount < maxDepositAmount,\n      \"invalid deposit amount\"\n    );\n\n    updatePool(pid);\n    if (user.amount > 0) {\n      uint256 pending = user.amount.mul(pool.accEulerPerShare).div(1e12).sub(\n        user.rewardDebt\n      );\n      if (pending > 0) {\n        user.pendingRewards = user.pendingRewards.add(pending);\n      }\n    }\n    if (amount > 0) {\n      euler.safeTransferFrom(address(msg.sender), address(this), amount);\n      // Lost 1% fee from transaction\n      amount = amount.sub(amount.mul(eulerTxFee).div(maxFee));\n      user.amount = user.amount.add(amount);\n      pool.depositedAmount = pool.depositedAmount.add(amount);\n    }\n    user.rewardDebt = user.amount.mul(pool.accEulerPerShare).div(1e12);\n    user.lastClaim = block.timestamp;\n    emit Deposit(msg.sender, pid, amount);\n  }\n\n  function withdraw(uint256 pid, uint256 amount) public {\n    PoolInfo storage pool = poolInfo[pid];\n    UserInfo storage user = userInfo[pid][msg.sender];\n    require(\n      block.timestamp > user.lastClaim + pool.lockupDuration,\n      \"You cannot withdraw yet!\"\n    );\n    require(user.amount >= amount, \"Withdrawing more than you have!\");\n    updatePool(pid);\n    uint256 pending = user.amount.mul(pool.accEulerPerShare).div(1e12).sub(\n      user.rewardDebt\n    );\n    if (pending > 0) {\n      user.pendingRewards = user.pendingRewards.add(pending);\n    }\n    if (amount > 0) {\n      euler.safeTransfer(address(msg.sender), amount);\n      user.amount = user.amount.sub(amount);\n      pool.depositedAmount = pool.depositedAmount.sub(amount);\n    }\n    user.rewardDebt = user.amount.mul(pool.accEulerPerShare).div(1e12);\n    user.lastClaim = block.timestamp;\n    emit Withdraw(msg.sender, pid, amount);\n  }\n\n  function withdrawAll(uint256 pid) external {\n    UserInfo storage user = userInfo[pid][msg.sender];\n\n    withdraw(pid, user.amount);\n  }\n\n  function claim(uint256 pid) public {\n    PoolInfo storage pool = poolInfo[pid];\n    UserInfo storage user = userInfo[pid][msg.sender];\n    updatePool(pid);\n    uint256 pending = user.amount.mul(pool.accEulerPerShare).div(1e12).sub(\n      user.rewardDebt\n    );\n    if (pending > 0 || user.pendingRewards > 0) {\n      user.pendingRewards = user.pendingRewards.add(pending);\n      uint256 claimedAmount = safeEulerTransfer(\n        msg.sender,\n        user.pendingRewards,\n        pid\n      );\n      emit Claim(msg.sender, pid, claimedAmount);\n      user.pendingRewards = user.pendingRewards.sub(claimedAmount);\n      user.lastClaim = block.timestamp;\n      pool.rewardsAmount = pool.rewardsAmount.sub(claimedAmount);\n    }\n    user.rewardDebt = user.amount.mul(pool.accEulerPerShare).div(1e12);\n  }\n\n  function safeEulerTransfer(\n    address to,\n    uint256 amount,\n    uint256 pid\n  ) internal returns (uint256) {\n    PoolInfo memory pool = poolInfo[pid];\n    uint256 _bal = euler.balanceOf(address(this));\n    if (amount > pool.rewardsAmount) amount = pool.rewardsAmount;\n    if (amount > _bal) amount = _bal;\n    euler.safeTransfer(to, amount);\n    return amount;\n  }\n\n  function setEulerPerBlock(uint256 _eulerPerBlock) external onlyOwner {\n    require(_eulerPerBlock > 0, \"EULER per block should be greater than 0!\");\n    eulerPerBlock = _eulerPerBlock;\n  }\n\n  function setMinDepositAmount(uint256 _amount) external onlyOwner {\n    require(_amount > 0, \"invalid value\");\n    minDepositAmount = _amount;\n  }\n\n  function setMaxDepositAmount(uint256 _amount) external onlyOwner {\n    require(\n      _amount > minDepositAmount,\n      \"invalid value, should be greater than mininum amount\"\n    );\n    maxDepositAmount = _amount;\n  }\n\n  function setEulerTxFee(uint256 _fee) external onlyOwner {\n    require(_fee < 10000, \"invalid fee\");\n\n    eulerTxFee = _fee;\n  }\n}\n",
  "sourcePath": "/home/asilva/Entorno/euler/contracts/contracts/EulerStaking.sol",
  "compiler": {
    "name": "solc",
    "version": "0.8.7+commit.e28d00a7.Emscripten.clang"
  },
  "schemaVersion": "3.4.3",
  "updatedAt": "2021-08-27T22:20:09.792Z",
  "networkType": "ethereum",
  "devdoc": {
    "kind": "dev",
    "methods": {
      "owner()": {
        "details": "Returns the address of the current owner."
      },
      "renounceOwnership()": {
        "details": "Leaves the contract without owner. It will not be possible to call `onlyOwner` functions anymore. Can only be called by the current owner. NOTE: Renouncing ownership will leave the contract without an owner, thereby removing any functionality that is only available to the owner."
      },
      "transferOwnership(address)": {
        "details": "Transfers ownership of the contract to a new account (`newOwner`). Can only be called by the current owner."
      }
    },
    "version": 1
  },
  "userdoc": {
    "kind": "user",
    "methods": {},
    "version": 1
  }
}