{
  "contractName": "EulerStaking",
  "abi": [
    {
      "anonymous": false,
      "inputs": [
        {
          "indexed": true,
          "internalType": "address",
          "name": "user",
          "type": "address"
        },
        {
          "indexed": false,
          "internalType": "uint256",
          "name": "amount",
          "type": "uint256"
        }
      ],
      "name": "Claim",
      "type": "event"
    },
    {
      "anonymous": false,
      "inputs": [
        {
          "indexed": true,
          "internalType": "address",
          "name": "user",
          "type": "address"
        },
        {
          "indexed": false,
          "internalType": "uint256",
          "name": "amount",
          "type": "uint256"
        }
      ],
      "name": "Deposit",
      "type": "event"
    },
    {
      "anonymous": false,
      "inputs": [
        {
          "indexed": true,
          "internalType": "address",
          "name": "previousOwner",
          "type": "address"
        },
        {
          "indexed": true,
          "internalType": "address",
          "name": "newOwner",
          "type": "address"
        }
      ],
      "name": "OwnershipTransferred",
      "type": "event"
    },
    {
      "anonymous": false,
      "inputs": [
        {
          "indexed": true,
          "internalType": "address",
          "name": "user",
          "type": "address"
        },
        {
          "indexed": false,
          "internalType": "uint256",
          "name": "newEulerPerBlock",
          "type": "uint256"
        }
      ],
      "name": "SetEulerPerBlock",
      "type": "event"
    },
    {
      "anonymous": false,
      "inputs": [
        {
          "indexed": true,
          "internalType": "address",
          "name": "user",
          "type": "address"
        },
        {
          "indexed": false,
          "internalType": "address",
          "name": "token",
          "type": "address"
        }
      ],
      "name": "SetEulerToken",
      "type": "event"
    },
    {
      "anonymous": false,
      "inputs": [
        {
          "indexed": true,
          "internalType": "address",
          "name": "user",
          "type": "address"
        },
        {
          "indexed": false,
          "internalType": "uint256",
          "name": "newEulerTxFee",
          "type": "uint256"
        }
      ],
      "name": "SetEulerTxFee",
      "type": "event"
    },
    {
      "anonymous": false,
      "inputs": [
        {
          "indexed": true,
          "internalType": "address",
          "name": "user",
          "type": "address"
        },
        {
          "indexed": false,
          "internalType": "uint256",
          "name": "newLockupDuration",
          "type": "uint256"
        }
      ],
      "name": "SetLockupDuration",
      "type": "event"
    },
    {
      "anonymous": false,
      "inputs": [
        {
          "indexed": true,
          "internalType": "address",
          "name": "user",
          "type": "address"
        },
        {
          "indexed": false,
          "internalType": "uint256",
          "name": "newMaxDepositAmount",
          "type": "uint256"
        }
      ],
      "name": "SetMaxDepositAmount",
      "type": "event"
    },
    {
      "anonymous": false,
      "inputs": [
        {
          "indexed": true,
          "internalType": "address",
          "name": "user",
          "type": "address"
        },
        {
          "indexed": false,
          "internalType": "uint256",
          "name": "newMinDepositAmount",
          "type": "uint256"
        }
      ],
      "name": "SetMinDepositAmount",
      "type": "event"
    },
    {
      "anonymous": false,
      "inputs": [
        {
          "indexed": true,
          "internalType": "address",
          "name": "user",
          "type": "address"
        },
        {
          "indexed": false,
          "internalType": "uint256",
          "name": "startBlock",
          "type": "uint256"
        }
      ],
      "name": "StartStaking",
      "type": "event"
    },
    {
      "anonymous": false,
      "inputs": [
        {
          "indexed": true,
          "internalType": "address",
          "name": "user",
          "type": "address"
        },
        {
          "indexed": false,
          "internalType": "uint256",
          "name": "amount",
          "type": "uint256"
        }
      ],
      "name": "Withdraw",
      "type": "event"
    },
    {
      "inputs": [],
      "name": "euler",
      "outputs": [
        {
          "internalType": "contract IERC20",
          "name": "",
          "type": "address"
        }
      ],
      "stateMutability": "view",
      "type": "function",
      "constant": true
    },
    {
      "inputs": [],
      "name": "eulerPerBlock",
      "outputs": [
        {
          "internalType": "uint256",
          "name": "",
          "type": "uint256"
        }
      ],
      "stateMutability": "view",
      "type": "function",
      "constant": true
    },
    {
      "inputs": [],
      "name": "eulerTxFee",
      "outputs": [
        {
          "internalType": "uint256",
          "name": "",
          "type": "uint256"
        }
      ],
      "stateMutability": "view",
      "type": "function",
      "constant": true
    },
    {
      "inputs": [],
      "name": "maxDepositAmount",
      "outputs": [
        {
          "internalType": "uint256",
          "name": "",
          "type": "uint256"
        }
      ],
      "stateMutability": "view",
      "type": "function",
      "constant": true
    },
    {
      "inputs": [],
      "name": "maxFee",
      "outputs": [
        {
          "internalType": "uint256",
          "name": "",
          "type": "uint256"
        }
      ],
      "stateMutability": "view",
      "type": "function",
      "constant": true
    },
    {
      "inputs": [],
      "name": "minDepositAmount",
      "outputs": [
        {
          "internalType": "uint256",
          "name": "",
          "type": "uint256"
        }
      ],
      "stateMutability": "view",
      "type": "function",
      "constant": true
    },
    {
      "inputs": [],
      "name": "owner",
      "outputs": [
        {
          "internalType": "address",
          "name": "",
          "type": "address"
        }
      ],
      "stateMutability": "view",
      "type": "function",
      "constant": true
    },
    {
      "inputs": [],
      "name": "poolInfo",
      "outputs": [
        {
          "internalType": "uint256",
          "name": "lastRewardBlock",
          "type": "uint256"
        },
        {
          "internalType": "uint256",
          "name": "accEulerPerShare",
          "type": "uint256"
        },
        {
          "internalType": "uint256",
          "name": "depositedAmount",
          "type": "uint256"
        },
        {
          "internalType": "uint256",
          "name": "rewardsAmount",
          "type": "uint256"
        },
        {
          "internalType": "uint256",
          "name": "lockupDuration",
          "type": "uint256"
        }
      ],
      "stateMutability": "view",
      "type": "function",
      "constant": true
    },
    {
      "inputs": [],
      "name": "renounceOwnership",
      "outputs": [],
      "stateMutability": "nonpayable",
      "type": "function"
    },
    {
      "inputs": [
        {
          "internalType": "address",
          "name": "newOwner",
          "type": "address"
        }
      ],
      "name": "transferOwnership",
      "outputs": [],
      "stateMutability": "nonpayable",
      "type": "function"
    },
    {
      "inputs": [
        {
          "internalType": "address",
          "name": "",
          "type": "address"
        }
      ],
      "name": "userInfo",
      "outputs": [
        {
          "internalType": "uint256",
          "name": "amount",
          "type": "uint256"
        },
        {
          "internalType": "uint256",
          "name": "rewardDebt",
          "type": "uint256"
        },
        {
          "internalType": "uint256",
          "name": "pendingRewards",
          "type": "uint256"
        },
        {
          "internalType": "uint256",
          "name": "lastClaim",
          "type": "uint256"
        },
        {
          "internalType": "bool",
          "name": "exists",
          "type": "bool"
        }
      ],
      "stateMutability": "view",
      "type": "function",
      "constant": true
    },
    {
      "inputs": [
        {
          "internalType": "contract IERC20",
          "name": "_euler",
          "type": "address"
        }
      ],
      "name": "setEulerToken",
      "outputs": [],
      "stateMutability": "nonpayable",
      "type": "function"
    },
    {
      "inputs": [
        {
          "internalType": "uint256",
          "name": "startBlock",
          "type": "uint256"
        }
      ],
      "name": "startStaking",
      "outputs": [],
      "stateMutability": "nonpayable",
      "type": "function"
    },
    {
      "inputs": [
        {
          "internalType": "uint256",
          "name": "_lockupDuration",
          "type": "uint256"
        }
      ],
      "name": "setLockupDuration",
      "outputs": [],
      "stateMutability": "nonpayable",
      "type": "function"
    },
    {
      "inputs": [
        {
          "internalType": "uint256",
          "name": "_eulerPerBlock",
          "type": "uint256"
        }
      ],
      "name": "setEulerPerBlock",
      "outputs": [],
      "stateMutability": "nonpayable",
      "type": "function"
    },
    {
      "inputs": [
        {
          "internalType": "uint256",
          "name": "_amount",
          "type": "uint256"
        }
      ],
      "name": "setMinDepositAmount",
      "outputs": [],
      "stateMutability": "nonpayable",
      "type": "function"
    },
    {
      "inputs": [
        {
          "internalType": "uint256",
          "name": "_amount",
          "type": "uint256"
        }
      ],
      "name": "setMaxDepositAmount",
      "outputs": [],
      "stateMutability": "nonpayable",
      "type": "function"
    },
    {
      "inputs": [
        {
          "internalType": "uint256",
          "name": "_fee",
          "type": "uint256"
        }
      ],
      "name": "setEulerTxFee",
      "outputs": [],
      "stateMutability": "nonpayable",
      "type": "function"
    },
    {
      "inputs": [
        {
          "internalType": "address",
          "name": "_user",
          "type": "address"
        }
      ],
      "name": "getUserInfo",
      "outputs": [
        {
          "components": [
            {
              "internalType": "uint256",
              "name": "amount",
              "type": "uint256"
            },
            {
              "internalType": "uint256",
              "name": "pendingRewards",
              "type": "uint256"
            },
            {
              "internalType": "uint256",
              "name": "withdrawAvaliable",
              "type": "uint256"
            },
            {
              "internalType": "uint256",
              "name": "eulerPerBlock",
              "type": "uint256"
            },
            {
              "internalType": "uint256",
              "name": "tvl",
              "type": "uint256"
            }
          ],
          "internalType": "struct EulerStaking.GetUserInfo",
          "name": "",
          "type": "tuple"
        }
      ],
      "stateMutability": "view",
      "type": "function",
      "constant": true
    },
    {
      "inputs": [],
      "name": "getTotalUsers",
      "outputs": [
        {
          "internalType": "uint256",
          "name": "",
          "type": "uint256"
        }
      ],
      "stateMutability": "view",
      "type": "function",
      "constant": true
    },
    {
      "inputs": [
        {
          "internalType": "uint256",
          "name": "position",
          "type": "uint256"
        }
      ],
      "name": "getUserInfoByPosition",
      "outputs": [
        {
          "components": [
            {
              "internalType": "uint256",
              "name": "amount",
              "type": "uint256"
            },
            {
              "internalType": "uint256",
              "name": "pendingRewards",
              "type": "uint256"
            },
            {
              "internalType": "uint256",
              "name": "withdrawAvaliable",
              "type": "uint256"
            },
            {
              "internalType": "uint256",
              "name": "eulerPerBlock",
              "type": "uint256"
            },
            {
              "internalType": "uint256",
              "name": "tvl",
              "type": "uint256"
            }
          ],
          "internalType": "struct EulerStaking.GetUserInfo",
          "name": "",
          "type": "tuple"
        }
      ],
      "stateMutability": "view",
      "type": "function",
      "constant": true
    },
    {
      "inputs": [
        {
          "internalType": "uint256",
          "name": "amount",
          "type": "uint256"
        }
      ],
      "name": "deposit",
      "outputs": [],
      "stateMutability": "nonpayable",
      "type": "function"
    },
    {
      "inputs": [
        {
          "internalType": "uint256",
          "name": "amount",
          "type": "uint256"
        }
      ],
      "name": "withdraw",
      "outputs": [],
      "stateMutability": "nonpayable",
      "type": "function"
    },
    {
      "inputs": [],
      "name": "withdrawAll",
      "outputs": [],
      "stateMutability": "nonpayable",
      "type": "function"
    },
    {
      "inputs": [],
      "name": "claim",
      "outputs": [],
      "stateMutability": "nonpayable",
      "type": "function"
    }
  ],
  "bytecode": "0x60806040526064600255670de0b6b3a764000060035560006004557fffffffffffffffffffffffffffffffffffffffffffffffffffffffffffffffff6005553480156200004b57600080fd5b506200006c620000606200007260201b60201c565b6200007a60201b60201c565b6200013e565b600033905090565b60008060009054906101000a900473ffffffffffffffffffffffffffffffffffffffff169050816000806101000a81548173ffffffffffffffffffffffffffffffffffffffff021916908373ffffffffffffffffffffffffffffffffffffffff1602179055508173ffffffffffffffffffffffffffffffffffffffff168173ffffffffffffffffffffffffffffffffffffffff167f8be0079c531659141344cd1fd0a4f28419497f9722a3daafe3b4186f6b6457e060405160405180910390a35050565b61310f806200014e6000396000f3fe608060405234801561001057600080fd5b50600436106101735760003560e01c8063853828b6116100de578063c4511c6a11610097578063e7a1107f11610071578063e7a1107f146103e2578063ebce8389146103fe578063f2fde38b1461041a578063fcdea5791461043657610173565b8063c4511c6a1461038c578063da690f86146103a8578063db661b71146103c457610173565b8063853828b6146102dc5780638da5cb5b146102e65780638ed83271146103045780639be572f614610322578063ab6c25e214610340578063b6b55f251461037057610173565b80636386c1c7116101305780636386c1c71461022e578063645006ca1461025e57806366dd54a01461027c578063715018a61461029a578063762b1c92146102a45780637ab28707146102c057610173565b806301f59d16146101785780631959a002146101965780632a80cda3146101ca5780632e1a7d4d146101e65780634e71d92d146102025780635a2f3d091461020c575b600080fd5b610180610454565b60405161018d9190612972565b60405180910390f35b6101b060048036038101906101ab9190612217565b61045a565b6040516101c195949392919061298d565b60405180910390f35b6101e460048036038101906101df919061229e565b61049d565b005b61020060048036038101906101fb919061229e565b6105b4565b005b61020a610837565b005b6102146109f0565b6040516102259594939291906129e0565b60405180910390f35b61024860048036038101906102439190612217565b610a14565b6040516102559190612957565b60405180910390f35b610266610ae3565b6040516102739190612972565b60405180910390f35b610284610ae9565b6040516102919190612972565b60405180910390f35b6102a2610aef565b005b6102be60048036038101906102b9919061229e565b610b77565b005b6102da60048036038101906102d5919061229e565b610c96565b005b6102e4610db5565b005b6102ee610e08565b6040516102fb919061267f565b60405180910390f35b61030c610e31565b6040516103199190612972565b60405180910390f35b61032a610e37565b6040516103379190612972565b60405180910390f35b61035a6004803603810190610355919061229e565b610e44565b6040516103679190612957565b60405180910390f35b61038a6004803603810190610385919061229e565b610ee7565b005b6103a660048036038101906103a1919061229e565b611224565b005b6103c260048036038101906103bd919061229e565b61133c565b005b6103cc611454565b6040516103d991906126fa565b60405180910390f35b6103fc60048036038101906103f7919061229e565b61147a565b005b61041860048036038101906104139190612271565b611551565b005b610434600480360381019061042f9190612217565b61176c565b005b61043e611864565b60405161044b9190612972565b60405180910390f35b61271081565b600b6020528060005260406000206000915090508060000154908060010154908060020154908060030154908060040160009054906101000a900460ff16905085565b6104a561186a565b73ffffffffffffffffffffffffffffffffffffffff166104c3610e08565b73ffffffffffffffffffffffffffffffffffffffff1614610519576040517f08c379a000000000000000000000000000000000000000000000000000000000815260040161051090612877565b60405180910390fd5b6000811161055c576040517f08c379a000000000000000000000000000000000000000000000000000000000815260040161055390612797565b60405180910390fd5b806004819055503373ffffffffffffffffffffffffffffffffffffffff167f13b7d95c2b89c1966f7583083e8dae1ca6e827f518c12d87cc681d2652f0554a826040516105a99190612972565b60405180910390a250565b6000600b60003373ffffffffffffffffffffffffffffffffffffffff1673ffffffffffffffffffffffffffffffffffffffff1681526020019081526020016000209050600660040154816003015461060c9190612a65565b421161064d576040517f08c379a000000000000000000000000000000000000000000000000000000000815260040161064490612757565b60405180910390fd5b8181600001541015610694576040517f08c379a000000000000000000000000000000000000000000000000000000000815260040161068b906128f7565b60405180910390fd5b61069c611872565b60006106e782600101546106d964e8d4a510006106cb60066001015487600001546119b490919063ffffffff16565b6119ca90919063ffffffff16565b6119e090919063ffffffff16565b90506000811115610712576107098183600201546119f690919063ffffffff16565b82600201819055505b60008311156107a9576107683384600160009054906101000a900473ffffffffffffffffffffffffffffffffffffffff1673ffffffffffffffffffffffffffffffffffffffff16611a0c9092919063ffffffff16565b61077f8383600001546119e090919063ffffffff16565b826000018190555061079f836006600201546119e090919063ffffffff16565b6006600201819055505b6107dc64e8d4a510006107ce60066001015485600001546119b490919063ffffffff16565b6119ca90919063ffffffff16565b82600101819055503373ffffffffffffffffffffffffffffffffffffffff167f884edad9ce6fa2440d8a54cc123490eb96d2768479d49ff9c7366125a94243648460405161082a9190612972565b60405180910390a2505050565b6000600b60003373ffffffffffffffffffffffffffffffffffffffff1673ffffffffffffffffffffffffffffffffffffffff1681526020019081526020016000209050610882611872565b60006108cd82600101546108bf64e8d4a510006108b160066001015487600001546119b490919063ffffffff16565b6119ca90919063ffffffff16565b6119e090919063ffffffff16565b905060008111806108e2575060008260020154115b156109b1576108fe8183600201546119f690919063ffffffff16565b82600201819055506000610916338460020154611a92565b90503373ffffffffffffffffffffffffffffffffffffffff167f47cee97cb7acd717b3c0aa1435d004cd5b3c8c57d70dbceb4e4458bbd60e39d48260405161095e9190612972565b60405180910390a261097d8184600201546119e090919063ffffffff16565b83600201819055504283600301819055506109a6816006600301546119e090919063ffffffff16565b600660030181905550505b6109e464e8d4a510006109d660066001015485600001546119b490919063ffffffff16565b6119ca90919063ffffffff16565b82600101819055505050565b60068060000154908060010154908060020154908060030154908060040154905085565b610a1c61217f565b6000600b60008473ffffffffffffffffffffffffffffffffffffffff1673ffffffffffffffffffffffffffffffffffffffff1681526020019081526020016000209050610a6761217f565b81600001548160000181815250506000816040018181525050600082600301541115610aac576006600401548260030154610aa29190612a65565b8160400181815250505b600354816060018181525050600660020154816080018181525050610ad084611bbb565b8160200181815250508092505050919050565b60045481565b60025481565b610af761186a565b73ffffffffffffffffffffffffffffffffffffffff16610b15610e08565b73ffffffffffffffffffffffffffffffffffffffff1614610b6b576040517f08c379a0000000000000000000000000000000000000000000000000000000008152600401610b6290612877565b60405180910390fd5b610b756000611d60565b565b610b7f61186a565b73ffffffffffffffffffffffffffffffffffffffff16610b9d610e08565b73ffffffffffffffffffffffffffffffffffffffff1614610bf3576040517f08c379a0000000000000000000000000000000000000000000000000000000008152600401610bea90612877565b60405180910390fd5b600060066000015414610c3b576040517f08c379a0000000000000000000000000000000000000000000000000000000008152600401610c3290612857565b60405180910390fd5b806006600001819055503373ffffffffffffffffffffffffffffffffffffffff167f5a10b5f49dd8fad36b4ab1cbca7032df7337fdc475a5616c796b654fe12eedac82604051610c8b9190612972565b60405180910390a250565b610c9e61186a565b73ffffffffffffffffffffffffffffffffffffffff16610cbc610e08565b73ffffffffffffffffffffffffffffffffffffffff1614610d12576040517f08c379a0000000000000000000000000000000000000000000000000000000008152600401610d0990612877565b60405180910390fd5b60008111610d55576040517f08c379a0000000000000000000000000000000000000000000000000000000008152600401610d4c906128b7565b60405180910390fd5b610d5d611872565b806003819055503373ffffffffffffffffffffffffffffffffffffffff167f61b3496552b7890ca02bbeeb6c4dff23525a6b0913e7f768acf2e9631ddd01ab82604051610daa9190612972565b60405180910390a250565b6000600b60003373ffffffffffffffffffffffffffffffffffffffff1673ffffffffffffffffffffffffffffffffffffffff1681526020019081526020016000209050610e0581600001546105b4565b50565b60008060009054906101000a900473ffffffffffffffffffffffffffffffffffffffff16905090565b60055481565b6000600c80549050905090565b610e4c61217f565b600c805490508210610e93576040517f08c379a0000000000000000000000000000000000000000000000000000000008152600401610e8a90612737565b60405180910390fd5b6000600c8381548110610ea957610ea8612c9b565b5b9060005260206000200160009054906101000a900473ffffffffffffffffffffffffffffffffffffffff169050610edf81610a14565b915050919050565b6000600690506000600b60003373ffffffffffffffffffffffffffffffffffffffff1673ffffffffffffffffffffffffffffffffffffffff16815260200190815260200160002090506000816000015484610f429190612a65565b90506004548110158015610f57575060055481105b610f96576040517f08c379a0000000000000000000000000000000000000000000000000000000008152600401610f8d90612937565b60405180910390fd5b610f9e611872565b600082600001541115611022576000610ff58360010154610fe764e8d4a51000610fd9886001015488600001546119b490919063ffffffff16565b6119ca90919063ffffffff16565b6119e090919063ffffffff16565b90506000811115611020576110178184600201546119f690919063ffffffff16565b83600201819055505b505b60008411156110f65761107a333086600160009054906101000a900473ffffffffffffffffffffffffffffffffffffffff1673ffffffffffffffffffffffffffffffffffffffff16611e24909392919063ffffffff16565b6110b56110a6612710611098600254886119b490919063ffffffff16565b6119ca90919063ffffffff16565b856119e090919063ffffffff16565b93506110ce8483600001546119f690919063ffffffff16565b82600001819055506110ed8484600201546119f690919063ffffffff16565b83600201819055505b61112864e8d4a5100061111a856001015485600001546119b490919063ffffffff16565b6119ca90919063ffffffff16565b82600101819055504282600301819055508160040160009054906101000a900460ff166111d057600c339080600181540180825580915050600190039060005260206000200160009091909190916101000a81548173ffffffffffffffffffffffffffffffffffffffff021916908373ffffffffffffffffffffffffffffffffffffffff16021790555060018260040160006101000a81548160ff0219169083151502179055505b3373ffffffffffffffffffffffffffffffffffffffff167fe1fffcc4923d04b559f4d29a8bfc6cda04eb5b0d3c460751c2402c5c5cc9109c856040516112169190612972565b60405180910390a250505050565b61122c61186a565b73ffffffffffffffffffffffffffffffffffffffff1661124a610e08565b73ffffffffffffffffffffffffffffffffffffffff16146112a0576040517f08c379a000000000000000000000000000000000000000000000000000000000815260040161129790612877565b60405180910390fd5b60045481116112e4576040517f08c379a00000000000000000000000000000000000000000000000000000000081526004016112db906127f7565b60405180910390fd5b806005819055503373ffffffffffffffffffffffffffffffffffffffff167f25d66f0e838c8e1017ffaf311263451e176896b7e84ea505abee24bd2f4c3c0d826040516113319190612972565b60405180910390a250565b61134461186a565b73ffffffffffffffffffffffffffffffffffffffff16611362610e08565b73ffffffffffffffffffffffffffffffffffffffff16146113b8576040517f08c379a00000000000000000000000000000000000000000000000000000000081526004016113af90612877565b60405180910390fd5b61271081106113fc576040517f08c379a00000000000000000000000000000000000000000000000000000000081526004016113f3906127d7565b60405180910390fd5b806002819055503373ffffffffffffffffffffffffffffffffffffffff167fabacf824c0f88c833727f78e9b00022eee6c1f83b95f28da112f6ce8f1f2feec826040516114499190612972565b60405180910390a250565b600160009054906101000a900473ffffffffffffffffffffffffffffffffffffffff1681565b61148261186a565b73ffffffffffffffffffffffffffffffffffffffff166114a0610e08565b73ffffffffffffffffffffffffffffffffffffffff16146114f6576040517f08c379a00000000000000000000000000000000000000000000000000000000081526004016114ed90612877565b60405180910390fd5b806006600401819055503373ffffffffffffffffffffffffffffffffffffffff167fd8cc5b1c2d4ad57f42e2453f312f23733af92cf5a3c36e9ebad5e585bf961f07826040516115469190612972565b60405180910390a250565b61155961186a565b73ffffffffffffffffffffffffffffffffffffffff16611577610e08565b73ffffffffffffffffffffffffffffffffffffffff16146115cd576040517f08c379a00000000000000000000000000000000000000000000000000000000081526004016115c490612877565b60405180910390fd5b600073ffffffffffffffffffffffffffffffffffffffff168173ffffffffffffffffffffffffffffffffffffffff16141561163d576040517f08c379a000000000000000000000000000000000000000000000000000000000815260040161163490612817565b60405180910390fd5b600073ffffffffffffffffffffffffffffffffffffffff16600160009054906101000a900473ffffffffffffffffffffffffffffffffffffffff1673ffffffffffffffffffffffffffffffffffffffff16146116ce576040517f08c379a00000000000000000000000000000000000000000000000000000000081526004016116c590612837565b60405180910390fd5b80600160006101000a81548173ffffffffffffffffffffffffffffffffffffffff021916908373ffffffffffffffffffffffffffffffffffffffff16021790555061171b62278d00611ead565b3373ffffffffffffffffffffffffffffffffffffffff167f7200b4b8e61a8ab0efdf64c461c668e5e9b0f5e0b5df68cccc5ac667ecd2421682604051611761919061267f565b60405180910390a250565b61177461186a565b73ffffffffffffffffffffffffffffffffffffffff16611792610e08565b73ffffffffffffffffffffffffffffffffffffffff16146117e8576040517f08c379a00000000000000000000000000000000000000000000000000000000081526004016117df90612877565b60405180910390fd5b600073ffffffffffffffffffffffffffffffffffffffff168173ffffffffffffffffffffffffffffffffffffffff161415611858576040517f08c379a000000000000000000000000000000000000000000000000000000000815260040161184f90612777565b60405180910390fd5b61186181611d60565b50565b60035481565b600033905090565b600060066000015411801561188c57506006600001544310155b6118cb576040517f08c379a00000000000000000000000000000000000000000000000000000000081526004016118c290612897565b60405180910390fd5b60066000015443116118dc576119b2565b60006006600201549050600060066002015414156119045743600660000181905550506119b2565b600061191e600660000154436119e090919063ffffffff16565b90506000611937600354836119b490919063ffffffff16565b9050611951816006600301546119f690919063ffffffff16565b60066003018190555061199b6119878461197964e8d4a51000856119b490919063ffffffff16565b6119ca90919063ffffffff16565b6006600101546119f690919063ffffffff16565b600660010181905550436006600001819055505050505b565b600081836119c29190612aec565b905092915050565b600081836119d89190612abb565b905092915050565b600081836119ee9190612b46565b905092915050565b60008183611a049190612a65565b905092915050565b611a8d8363a9059cbb60e01b8484604051602401611a2b9291906126d1565b604051602081830303815290604052907bffffffffffffffffffffffffffffffffffffffffffffffffffffffff19166020820180517bffffffffffffffffffffffffffffffffffffffffffffffffffffffff8381831617835250505050611f12565b505050565b600080600160009054906101000a900473ffffffffffffffffffffffffffffffffffffffff1673ffffffffffffffffffffffffffffffffffffffff166370a08231306040518263ffffffff1660e01b8152600401611af0919061267f565b60206040518083038186803b158015611b0857600080fd5b505afa158015611b1c573d6000803e3d6000fd5b505050506040513d601f19601f82011682018060405250810190611b4091906122cb565b9050600660030154831115611b585760066003015492505b80831115611b64578092505b611bb18484600160009054906101000a900473ffffffffffffffffffffffffffffffffffffffff1673ffffffffffffffffffffffffffffffffffffffff16611a0c9092919063ffffffff16565b8291505092915050565b600080600660000154118015611bd657506006600001544310155b611c15576040517f08c379a0000000000000000000000000000000000000000000000000000000008152600401611c0c90612897565b60405180910390fd5b6000600b60008473ffffffffffffffffffffffffffffffffffffffff1673ffffffffffffffffffffffffffffffffffffffff1681526020019081526020016000209050600060066001015490506000600660020154905060066000015443118015611c81575060008114155b15611cfc576000611ca0600660000154436119e090919063ffffffff16565b90506000611cb9600354836119b490919063ffffffff16565b9050611cf7611ce884611cda64e8d4a51000856119b490919063ffffffff16565b6119ca90919063ffffffff16565b856119f690919063ffffffff16565b935050505b611d568360020154611d488560010154611d3a64e8d4a51000611d2c888a600001546119b490919063ffffffff16565b6119ca90919063ffffffff16565b6119e090919063ffffffff16565b6119f690919063ffffffff16565b9350505050919050565b60008060009054906101000a900473ffffffffffffffffffffffffffffffffffffffff169050816000806101000a81548173ffffffffffffffffffffffffffffffffffffffff021916908373ffffffffffffffffffffffffffffffffffffffff1602179055508173ffffffffffffffffffffffffffffffffffffffff168173ffffffffffffffffffffffffffffffffffffffff167f8be0079c531659141344cd1fd0a4f28419497f9722a3daafe3b4186f6b6457e060405160405180910390a35050565b611ea7846323b872dd60e01b858585604051602401611e459392919061269a565b604051602081830303815290604052907bffffffffffffffffffffffffffffffffffffffffffffffffffffffff19166020820180517bffffffffffffffffffffffffffffffffffffffffffffffffffffffff8381831617835250505050611f12565b50505050565b6040518060a0016040528060008152602001600081526020016000815260200160008152602001828152506006600082015181600001556020820151816001015560408201518160020155606082015181600301556080820151816004015590505050565b6000611f74826040518060400160405280602081526020017f5361666545524332303a206c6f772d6c6576656c2063616c6c206661696c65648152508573ffffffffffffffffffffffffffffffffffffffff16611fd99092919063ffffffff16565b9050600081511115611fd45780806020019051810190611f949190612244565b611fd3576040517f08c379a0000000000000000000000000000000000000000000000000000000008152600401611fca90612917565b60405180910390fd5b5b505050565b6060611fe88484600085611ff1565b90509392505050565b606082471015612036576040517f08c379a000000000000000000000000000000000000000000000000000000000815260040161202d906127b7565b60405180910390fd5b61203f85612105565b61207e576040517f08c379a0000000000000000000000000000000000000000000000000000000008152600401612075906128d7565b60405180910390fd5b6000808673ffffffffffffffffffffffffffffffffffffffff1685876040516120a79190612668565b60006040518083038185875af1925050503d80600081146120e4576040519150601f19603f3d011682016040523d82523d6000602084013e6120e9565b606091505b50915091506120f9828286612118565b92505050949350505050565b600080823b905060008111915050919050565b6060831561212857829050612178565b60008351111561213b5782518084602001fd5b816040517f08c379a000000000000000000000000000000000000000000000000000000000815260040161216f9190612715565b60405180910390fd5b9392505050565b6040518060a0016040528060008152602001600081526020016000815260200160008152602001600081525090565b6000813590506121bd8161307d565b92915050565b6000815190506121d281613094565b92915050565b6000813590506121e7816130ab565b92915050565b6000813590506121fc816130c2565b92915050565b600081519050612211816130c2565b92915050565b60006020828403121561222d5761222c612cca565b5b600061223b848285016121ae565b91505092915050565b60006020828403121561225a57612259612cca565b5b6000612268848285016121c3565b91505092915050565b60006020828403121561228757612286612cca565b5b6000612295848285016121d8565b91505092915050565b6000602082840312156122b4576122b3612cca565b5b60006122c2848285016121ed565b91505092915050565b6000602082840312156122e1576122e0612cca565b5b60006122ef84828501612202565b91505092915050565b61230181612b7a565b82525050565b61231081612b8c565b82525050565b600061232182612a33565b61232b8185612a49565b935061233b818560208601612c0a565b80840191505092915050565b61235081612bd4565b82525050565b600061236182612a3e565b61236b8185612a54565b935061237b818560208601612c0a565b61238481612ccf565b840191505092915050565b600061239c602f83612a54565b91506123a782612ce0565b604082019050919050565b60006123bf601883612a54565b91506123ca82612d2f565b602082019050919050565b60006123e2602683612a54565b91506123ed82612d58565b604082019050919050565b6000612405600d83612a54565b915061241082612da7565b602082019050919050565b6000612428602683612a54565b915061243382612dd0565b604082019050919050565b600061244b600b83612a54565b915061245682612e1f565b602082019050919050565b600061246e603483612a54565b915061247982612e48565b604082019050919050565b6000612491601b83612a54565b915061249c82612e97565b602082019050919050565b60006124b4601283612a54565b91506124bf82612ec0565b602082019050919050565b60006124d7601783612a54565b91506124e282612ee9565b602082019050919050565b60006124fa602083612a54565b915061250582612f12565b602082019050919050565b600061251d601783612a54565b915061252882612f3b565b602082019050919050565b6000612540602983612a54565b915061254b82612f64565b604082019050919050565b6000612563601d83612a54565b915061256e82612fb3565b602082019050919050565b6000612586601f83612a54565b915061259182612fdc565b602082019050919050565b60006125a9602a83612a54565b91506125b482613005565b604082019050919050565b60006125cc601683612a54565b91506125d782613054565b602082019050919050565b60a0820160008201516125f8600085018261264a565b50602082015161260b602085018261264a565b50604082015161261e604085018261264a565b506060820151612631606085018261264a565b506080820151612644608085018261264a565b50505050565b61265381612bca565b82525050565b61266281612bca565b82525050565b60006126748284612316565b915081905092915050565b600060208201905061269460008301846122f8565b92915050565b60006060820190506126af60008301866122f8565b6126bc60208301856122f8565b6126c96040830184612659565b949350505050565b60006040820190506126e660008301856122f8565b6126f36020830184612659565b9392505050565b600060208201905061270f6000830184612347565b92915050565b6000602082019050818103600083015261272f8184612356565b905092915050565b600060208201905081810360008301526127508161238f565b9050919050565b60006020820190508181036000830152612770816123b2565b9050919050565b60006020820190508181036000830152612790816123d5565b9050919050565b600060208201905081810360008301526127b0816123f8565b9050919050565b600060208201905081810360008301526127d08161241b565b9050919050565b600060208201905081810360008301526127f08161243e565b9050919050565b6000602082019050818103600083015261281081612461565b9050919050565b6000602082019050818103600083015261283081612484565b9050919050565b60006020820190508181036000830152612850816124a7565b9050919050565b60006020820190508181036000830152612870816124ca565b9050919050565b60006020820190508181036000830152612890816124ed565b9050919050565b600060208201905081810360008301526128b081612510565b9050919050565b600060208201905081810360008301526128d081612533565b9050919050565b600060208201905081810360008301526128f081612556565b9050919050565b6000602082019050818103600083015261291081612579565b9050919050565b600060208201905081810360008301526129308161259c565b9050919050565b60006020820190508181036000830152612950816125bf565b9050919050565b600060a08201905061296c60008301846125e2565b92915050565b60006020820190506129876000830184612659565b92915050565b600060a0820190506129a26000830188612659565b6129af6020830187612659565b6129bc6040830186612659565b6129c96060830185612659565b6129d66080830184612307565b9695505050505050565b600060a0820190506129f56000830188612659565b612a026020830187612659565b612a0f6040830186612659565b612a1c6060830185612659565b612a296080830184612659565b9695505050505050565b600081519050919050565b600081519050919050565b600081905092915050565b600082825260208201905092915050565b6000612a7082612bca565b9150612a7b83612bca565b9250827fffffffffffffffffffffffffffffffffffffffffffffffffffffffffffffffff03821115612ab057612aaf612c3d565b5b828201905092915050565b6000612ac682612bca565b9150612ad183612bca565b925082612ae157612ae0612c6c565b5b828204905092915050565b6000612af782612bca565b9150612b0283612bca565b9250817fffffffffffffffffffffffffffffffffffffffffffffffffffffffffffffffff0483118215151615612b3b57612b3a612c3d565b5b828202905092915050565b6000612b5182612bca565b9150612b5c83612bca565b925082821015612b6f57612b6e612c3d565b5b828203905092915050565b6000612b8582612baa565b9050919050565b60008115159050919050565b6000612ba382612b7a565b9050919050565b600073ffffffffffffffffffffffffffffffffffffffff82169050919050565b6000819050919050565b6000612bdf82612be6565b9050919050565b6000612bf182612bf8565b9050919050565b6000612c0382612baa565b9050919050565b60005b83811015612c28578082015181840152602081019050612c0d565b83811115612c37576000848401525b50505050565b7f4e487b7100000000000000000000000000000000000000000000000000000000600052601160045260246000fd5b7f4e487b7100000000000000000000000000000000000000000000000000000000600052601260045260246000fd5b7f4e487b7100000000000000000000000000000000000000000000000000000000600052603260045260246000fd5b600080fd5b6000601f19601f8301169050919050565b7f54686520706f736974696f6e206973206e6f74206c657373207468616e20746860008201527f652073697a65206f662075736572730000000000000000000000000000000000602082015250565b7f596f752063616e6e6f7420776974686472617720796574210000000000000000600082015250565b7f4f776e61626c653a206e6577206f776e657220697320746865207a65726f206160008201527f6464726573730000000000000000000000000000000000000000000000000000602082015250565b7f696e76616c69642076616c756500000000000000000000000000000000000000600082015250565b7f416464726573733a20696e73756666696369656e742062616c616e636520666f60008201527f722063616c6c0000000000000000000000000000000000000000000000000000602082015250565b7f696e76616c696420666565000000000000000000000000000000000000000000600082015250565b7f696e76616c69642076616c75652c2073686f756c64206265206772656174657260008201527f207468616e206d696e696e756d20616d6f756e74000000000000000000000000602082015250565b7f546f6b656e20616464726573732063616e2774206265207a65726f0000000000600082015250565b7f546f6b656e20616c726561647920736574210000000000000000000000000000600082015250565b7f5374616b696e6720616c72656164792073746172746564000000000000000000600082015250565b7f4f776e61626c653a2063616c6c6572206973206e6f7420746865206f776e6572600082015250565b7f5374616b696e67206e6f74207965742073746172746564000000000000000000600082015250565b7f45554c45522070657220626c6f636b2073686f756c642062652067726561746560008201527f72207468616e2030210000000000000000000000000000000000000000000000602082015250565b7f416464726573733a2063616c6c20746f206e6f6e2d636f6e7472616374000000600082015250565b7f5769746864726177696e67206d6f7265207468616e20796f7520686176652100600082015250565b7f5361666545524332303a204552433230206f7065726174696f6e20646964206e60008201527f6f74207375636365656400000000000000000000000000000000000000000000602082015250565b7f696e76616c6964206465706f73697420616d6f756e7400000000000000000000600082015250565b61308681612b7a565b811461309157600080fd5b50565b61309d81612b8c565b81146130a857600080fd5b50565b6130b481612b98565b81146130bf57600080fd5b50565b6130cb81612bca565b81146130d657600080fd5b5056fea2646970667358221220c22c6297b5d338119dc4b0a8b68c90d5ea443d16571655d26f8a415db20b805a64736f6c63430008070033",
  "immutableReferences": {},
  "source": "//SPDX-License-Identifier: Unlicense\npragma solidity 0.8.7;\n\nimport \"@openzeppelin/contracts/access/Ownable.sol\";\nimport \"@openzeppelin/contracts/token/ERC20/utils/SafeERC20.sol\";\nimport \"@openzeppelin/contracts/utils/math/SafeMath.sol\";\n\ncontract EulerStaking is Ownable {\n  using SafeMath for uint256;\n  using SafeERC20 for IERC20;\n\n  struct UserInfo {\n    uint256 amount;\n    uint256 rewardDebt;\n    uint256 pendingRewards;\n    uint256 lastClaim;\n    bool exists;\n  }\n\n  struct GetUserInfo {\n    uint256 amount;\n    uint256 pendingRewards;\n    uint256 withdrawAvaliable;\n    uint256 eulerPerBlock;\n    uint256 tvl;\n  }\n\n  struct PoolInfo {\n    uint256 lastRewardBlock;\n    uint256 accEulerPerShare;\n    uint256 depositedAmount;\n    uint256 rewardsAmount;\n    uint256 lockupDuration;\n  }\n  uint256 public constant maxFee = 10000;\n\n  IERC20 public euler;\n  uint256 public eulerTxFee = 100;\n  uint256 public eulerPerBlock = uint256(1 ether);\n  uint256 public minDepositAmount = 0;\n  uint256 public maxDepositAmount = type(uint256).max;\n\n  PoolInfo public poolInfo;\n  mapping(address => UserInfo) public userInfo;\n  address[] private users;\n\n  event Deposit(address indexed user, uint256 amount);\n  event Withdraw(address indexed user, uint256 amount);\n  event Claim(address indexed user, uint256 amount);\n  event SetEulerPerBlock(address indexed user, uint256 newEulerPerBlock);\n  event SetMinDepositAmount(address indexed user, uint256 newMinDepositAmount);\n  event SetMaxDepositAmount(address indexed user, uint256 newMaxDepositAmount);\n  event SetEulerTxFee(address indexed user, uint256 newEulerTxFee);\n  event SetLockupDuration(address indexed user, uint256 newLockupDuration);\n  event StartStaking(address indexed user, uint256 startBlock);\n  event SetEulerToken(address indexed user,address token);\n\n  function addPool(uint256 _lockupDuration) internal {\n    poolInfo = PoolInfo({\n        lastRewardBlock: 0,\n        accEulerPerShare: 0,\n        depositedAmount: 0,\n        rewardsAmount: 0,\n        lockupDuration: _lockupDuration\n    });\n  }\n\n  function setEulerToken(IERC20 _euler) external onlyOwner {\n    require(address(_euler) != address(0), \"Token address can't be zero\");\n    require(address(euler) == address(0), \"Token already set!\");\n    euler = _euler;\n    addPool(30 days);\n    emit SetEulerToken(msg.sender, address(_euler));\n  }\n\n  function startStaking(uint256 startBlock) external onlyOwner {\n    require(poolInfo.lastRewardBlock == 0, \"Staking already started\");\n    poolInfo.lastRewardBlock = startBlock;\n    emit StartStaking(msg.sender, startBlock);\n  }\n\n  function setLockupDuration(uint256 _lockupDuration) external onlyOwner {\n    poolInfo.lockupDuration = _lockupDuration;\n    emit SetLockupDuration(msg.sender, _lockupDuration);\n  }\n\n  function setEulerPerBlock(uint256 _eulerPerBlock) external onlyOwner {\n    require(_eulerPerBlock > 0, \"EULER per block should be greater than 0!\");\n\n    updatePool();\n    eulerPerBlock = _eulerPerBlock;\n    emit SetEulerPerBlock(msg.sender, _eulerPerBlock);\n  }\n\n  function setMinDepositAmount(uint256 _amount) external onlyOwner {\n    require(_amount > 0, \"invalid value\");\n\n    minDepositAmount = _amount;\n    emit SetMinDepositAmount(msg.sender, _amount);\n  }\n\n  function setMaxDepositAmount(uint256 _amount) external onlyOwner {\n    require(\n      _amount > minDepositAmount,\n      \"invalid value, should be greater than mininum amount\"\n    );\n\n    maxDepositAmount = _amount;\n    emit SetMaxDepositAmount(msg.sender, _amount);\n  }\n\n  function setEulerTxFee(uint256 _fee) external onlyOwner {\n    require(_fee < 10000, \"invalid fee\");\n\n    eulerTxFee = _fee;\n    emit SetEulerTxFee(msg.sender, _fee);\n  }\n\n  function pendingRewards(address _user) private view returns (uint256) {\n    require(\n      poolInfo.lastRewardBlock > 0 &&\n        block.number >= poolInfo.lastRewardBlock,\n      \"Staking not yet started\"\n    );\n    UserInfo storage user = userInfo[_user];\n    uint256 accEulerPerShare = poolInfo.accEulerPerShare;\n    uint256 depositedAmount = poolInfo.depositedAmount;\n    if (block.number > poolInfo.lastRewardBlock && depositedAmount != 0) {\n\n      uint256 multiplier = block.number.sub(poolInfo.lastRewardBlock);\n      uint256 eulerReward = multiplier.mul(eulerPerBlock);\n\n      accEulerPerShare = accEulerPerShare.add(\n        eulerReward.mul(1e12).div(depositedAmount)\n      );\n    }\n    return\n      user.amount.mul(accEulerPerShare).div(1e12).sub(user.rewardDebt).add(\n        user.pendingRewards\n      );\n  }\n\n  function getUserInfo(address _user)\n    public\n    view\n    returns (GetUserInfo memory) {\n\n        UserInfo storage user = userInfo[_user];\n\n        GetUserInfo memory userAux;\n\n        userAux.amount = user.amount;\n\n        userAux.withdrawAvaliable = 0;\n\n        if(user.lastClaim > 0) {\n\n            userAux.withdrawAvaliable = user.lastClaim + poolInfo.lockupDuration;\n        }\n\n        userAux.eulerPerBlock = eulerPerBlock;\n\n        userAux.tvl = poolInfo.depositedAmount;\n\n        userAux.pendingRewards = pendingRewards(_user);\n\n        return userAux;\n  }\n\n  function getTotalUsers() external view\n    returns (uint256) {\n\n    return users.length;\n  }\n\n  function getUserInfoByPosition(uint256 position) external view\n    returns (GetUserInfo memory) {\n\n        require(position < users.length, 'The position is not less than the size of users');\n\n        address user = users[position];\n\n        return getUserInfo(user);\n  }\n\n  function updatePool() internal {\n    require(\n      poolInfo.lastRewardBlock > 0 &&\n        block.number >= poolInfo.lastRewardBlock,\n      \"Staking not yet started\"\n    );\n\n    if (block.number <= poolInfo.lastRewardBlock) {\n      return;\n    }\n    uint256 depositedAmount = poolInfo.depositedAmount;\n    if (poolInfo.depositedAmount == 0) {\n      poolInfo.lastRewardBlock = block.number;\n      return;\n    }\n    uint256 multiplier = block.number.sub(poolInfo.lastRewardBlock);\n    uint256 eulerReward = multiplier.mul(eulerPerBlock);\n\n    poolInfo.rewardsAmount = poolInfo.rewardsAmount.add(eulerReward);\n    poolInfo.accEulerPerShare = poolInfo.accEulerPerShare.add(\n      eulerReward.mul(1e12).div(depositedAmount)\n    );\n    poolInfo.lastRewardBlock = block.number;\n  }\n\n  function deposit(uint256 amount) external {\n\n    PoolInfo storage pool = poolInfo;\n    UserInfo storage user = userInfo[msg.sender];\n\n    uint256 sumAmount = amount + user.amount;\n\n    require(\n      sumAmount >= minDepositAmount && sumAmount < maxDepositAmount,\n      \"invalid deposit amount\"\n    );\n\n    updatePool();\n    if (user.amount > 0) {\n      uint256 pending = user.amount.mul(pool.accEulerPerShare).div(1e12).sub(\n        user.rewardDebt\n      );\n      if (pending > 0) {\n        user.pendingRewards = user.pendingRewards.add(pending);\n      }\n    }\n    if (amount > 0) {\n      euler.safeTransferFrom(address(msg.sender), address(this), amount);\n      // Lost 1% fee from transaction\n      amount = amount.sub(amount.mul(eulerTxFee).div(maxFee));\n      user.amount = user.amount.add(amount);\n      pool.depositedAmount = pool.depositedAmount.add(amount);\n    }\n    user.rewardDebt = user.amount.mul(pool.accEulerPerShare).div(1e12);\n    user.lastClaim = block.timestamp;\n\n    if(!user.exists) {\n        users.push(msg.sender);\n        user.exists = true;\n    }\n\n    emit Deposit(msg.sender, amount);\n  }\n\n  function withdraw(uint256 amount) public {\n    UserInfo storage user = userInfo[msg.sender];\n    require(\n      block.timestamp > user.lastClaim + poolInfo.lockupDuration,\n      \"You cannot withdraw yet!\"\n    );\n    require(user.amount >= amount, \"Withdrawing more than you have!\");\n    updatePool();\n    uint256 pending = user.amount.mul(poolInfo.accEulerPerShare).div(1e12).sub(\n      user.rewardDebt\n    );\n    if (pending > 0) {\n      user.pendingRewards = user.pendingRewards.add(pending);\n    }\n    if (amount > 0) {\n      euler.safeTransfer(address(msg.sender), amount);\n      user.amount = user.amount.sub(amount);\n      poolInfo.depositedAmount = poolInfo.depositedAmount.sub(amount);\n    }\n    user.rewardDebt = user.amount.mul(poolInfo.accEulerPerShare).div(1e12);\n    emit Withdraw(msg.sender, amount);\n  }\n\n  function withdrawAll() external {\n    UserInfo storage user = userInfo[msg.sender];\n\n    withdraw(user.amount);\n  }\n\n  function claim() external {\n    UserInfo storage user = userInfo[msg.sender];\n    updatePool();\n    uint256 pending = user.amount.mul(poolInfo.accEulerPerShare).div(1e12).sub(\n      user.rewardDebt\n    );\n    if (pending > 0 || user.pendingRewards > 0) {\n      user.pendingRewards = user.pendingRewards.add(pending);\n      uint256 claimedAmount = safeEulerTransfer(\n        msg.sender,\n        user.pendingRewards\n      );\n      emit Claim(msg.sender, claimedAmount);\n      user.pendingRewards = user.pendingRewards.sub(claimedAmount);\n      user.lastClaim = block.timestamp;\n      poolInfo.rewardsAmount = poolInfo.rewardsAmount.sub(claimedAmount);\n    }\n    user.rewardDebt = user.amount.mul(poolInfo.accEulerPerShare).div(1e12);\n  }\n\n  function safeEulerTransfer(\n    address to,\n    uint256 amount\n  ) internal returns (uint256) {\n    uint256 _bal = euler.balanceOf(address(this));\n    if (amount > poolInfo.rewardsAmount) amount = poolInfo.rewardsAmount;\n    if (amount > _bal) amount = _bal;\n    euler.safeTransfer(to, amount);\n    return amount;\n  }\n}\n",
  "sourcePath": "/home/asilva/Entorno/euler/contracts/contracts/EulerStaking.sol",
  "compiler": {
    "name": "solc",
    "version": "0.8.7+commit.e28d00a7.Emscripten.clang"
  },
  "schemaVersion": "3.4.3",
  "updatedAt": "2021-09-07T20:34:25.481Z",
  "networkType": "ethereum",
  "devdoc": {
    "kind": "dev",
    "methods": {
      "owner()": {
        "details": "Returns the address of the current owner."
      },
      "renounceOwnership()": {
        "details": "Leaves the contract without owner. It will not be possible to call `onlyOwner` functions anymore. Can only be called by the current owner. NOTE: Renouncing ownership will leave the contract without an owner, thereby removing any functionality that is only available to the owner."
      },
      "transferOwnership(address)": {
        "details": "Transfers ownership of the contract to a new account (`newOwner`). Can only be called by the current owner."
      }
    },
    "version": 1
  },
  "userdoc": {
    "kind": "user",
    "methods": {},
    "version": 1
  }
}