{
  "contractName": "EulerStaking",
  "abi": [
    {
      "anonymous": false,
      "inputs": [
        {
          "indexed": true,
          "internalType": "address",
          "name": "user",
          "type": "address"
        },
        {
          "indexed": true,
          "internalType": "uint256",
          "name": "pid",
          "type": "uint256"
        },
        {
          "indexed": false,
          "internalType": "uint256",
          "name": "amount",
          "type": "uint256"
        }
      ],
      "name": "Claim",
      "type": "event"
    },
    {
      "anonymous": false,
      "inputs": [
        {
          "indexed": true,
          "internalType": "address",
          "name": "user",
          "type": "address"
        },
        {
          "indexed": true,
          "internalType": "uint256",
          "name": "pid",
          "type": "uint256"
        },
        {
          "indexed": false,
          "internalType": "uint256",
          "name": "amount",
          "type": "uint256"
        }
      ],
      "name": "Deposit",
      "type": "event"
    },
    {
      "anonymous": false,
      "inputs": [
        {
          "indexed": true,
          "internalType": "address",
          "name": "previousOwner",
          "type": "address"
        },
        {
          "indexed": true,
          "internalType": "address",
          "name": "newOwner",
          "type": "address"
        }
      ],
      "name": "OwnershipTransferred",
      "type": "event"
    },
    {
      "anonymous": false,
      "inputs": [
        {
          "indexed": true,
          "internalType": "address",
          "name": "user",
          "type": "address"
        },
        {
          "indexed": true,
          "internalType": "uint256",
          "name": "pid",
          "type": "uint256"
        },
        {
          "indexed": false,
          "internalType": "uint256",
          "name": "amount",
          "type": "uint256"
        }
      ],
      "name": "Withdraw",
      "type": "event"
    },
    {
      "inputs": [],
      "name": "euler",
      "outputs": [
        {
          "internalType": "contract IERC20",
          "name": "",
          "type": "address"
        }
      ],
      "stateMutability": "view",
      "type": "function"
    },
    {
      "inputs": [],
      "name": "eulerPerBlock",
      "outputs": [
        {
          "internalType": "uint256",
          "name": "",
          "type": "uint256"
        }
      ],
      "stateMutability": "view",
      "type": "function"
    },
    {
      "inputs": [],
      "name": "eulerTxFee",
      "outputs": [
        {
          "internalType": "uint256",
          "name": "",
          "type": "uint256"
        }
      ],
      "stateMutability": "view",
      "type": "function"
    },
    {
      "inputs": [],
      "name": "maxDepositAmount",
      "outputs": [
        {
          "internalType": "uint256",
          "name": "",
          "type": "uint256"
        }
      ],
      "stateMutability": "view",
      "type": "function"
    },
    {
      "inputs": [],
      "name": "maxFee",
      "outputs": [
        {
          "internalType": "uint256",
          "name": "",
          "type": "uint256"
        }
      ],
      "stateMutability": "view",
      "type": "function"
    },
    {
      "inputs": [],
      "name": "minDepositAmount",
      "outputs": [
        {
          "internalType": "uint256",
          "name": "",
          "type": "uint256"
        }
      ],
      "stateMutability": "view",
      "type": "function"
    },
    {
      "inputs": [],
      "name": "owner",
      "outputs": [
        {
          "internalType": "address",
          "name": "",
          "type": "address"
        }
      ],
      "stateMutability": "view",
      "type": "function"
    },
    {
      "inputs": [
        {
          "internalType": "uint256",
          "name": "",
          "type": "uint256"
        }
      ],
      "name": "poolInfo",
      "outputs": [
        {
          "internalType": "uint256",
          "name": "allocPoint",
          "type": "uint256"
        },
        {
          "internalType": "uint256",
          "name": "lastRewardBlock",
          "type": "uint256"
        },
        {
          "internalType": "uint256",
          "name": "accEulerPerShare",
          "type": "uint256"
        },
        {
          "internalType": "uint256",
          "name": "depositedAmount",
          "type": "uint256"
        },
        {
          "internalType": "uint256",
          "name": "rewardsAmount",
          "type": "uint256"
        },
        {
          "internalType": "uint256",
          "name": "lockupDuration",
          "type": "uint256"
        }
      ],
      "stateMutability": "view",
      "type": "function"
    },
    {
      "inputs": [],
      "name": "renounceOwnership",
      "outputs": [],
      "stateMutability": "nonpayable",
      "type": "function"
    },
    {
      "inputs": [],
      "name": "totalAllocPoint",
      "outputs": [
        {
          "internalType": "uint256",
          "name": "",
          "type": "uint256"
        }
      ],
      "stateMutability": "view",
      "type": "function"
    },
    {
      "inputs": [
        {
          "internalType": "address",
          "name": "newOwner",
          "type": "address"
        }
      ],
      "name": "transferOwnership",
      "outputs": [],
      "stateMutability": "nonpayable",
      "type": "function"
    },
    {
      "inputs": [
        {
          "internalType": "uint256",
          "name": "",
          "type": "uint256"
        },
        {
          "internalType": "address",
          "name": "",
          "type": "address"
        }
      ],
      "name": "userInfo",
      "outputs": [
        {
          "internalType": "uint256",
          "name": "amount",
          "type": "uint256"
        },
        {
          "internalType": "uint256",
          "name": "rewardDebt",
          "type": "uint256"
        },
        {
          "internalType": "uint256",
          "name": "pendingRewards",
          "type": "uint256"
        },
        {
          "internalType": "uint256",
          "name": "lastClaim",
          "type": "uint256"
        }
      ],
      "stateMutability": "view",
      "type": "function"
    },
    {
      "inputs": [
        {
          "internalType": "contract IERC20",
          "name": "_euler",
          "type": "address"
        }
      ],
      "name": "setEulerToken",
      "outputs": [],
      "stateMutability": "nonpayable",
      "type": "function"
    },
    {
      "inputs": [
        {
          "internalType": "uint256",
          "name": "startBlock",
          "type": "uint256"
        }
      ],
      "name": "startStaking",
      "outputs": [],
      "stateMutability": "nonpayable",
      "type": "function"
    },
    {
      "inputs": [
        {
          "internalType": "uint256",
          "name": "_lockupDuration",
          "type": "uint256"
        },
        {
          "internalType": "uint256",
          "name": "pid",
          "type": "uint256"
        }
      ],
      "name": "setLockupDuration",
      "outputs": [],
      "stateMutability": "nonpayable",
      "type": "function"
    },
    {
      "inputs": [
        {
          "internalType": "uint256",
          "name": "pid",
          "type": "uint256"
        },
        {
          "internalType": "address",
          "name": "_user",
          "type": "address"
        }
      ],
      "name": "pendingRewards",
      "outputs": [
        {
          "internalType": "uint256",
          "name": "",
          "type": "uint256"
        }
      ],
      "stateMutability": "view",
      "type": "function"
    },
    {
      "inputs": [
        {
          "internalType": "uint256",
          "name": "pid",
          "type": "uint256"
        },
        {
          "internalType": "uint256",
          "name": "amount",
          "type": "uint256"
        }
      ],
      "name": "deposit",
      "outputs": [],
      "stateMutability": "nonpayable",
      "type": "function"
    },
    {
      "inputs": [
        {
          "internalType": "uint256",
          "name": "pid",
          "type": "uint256"
        },
        {
          "internalType": "uint256",
          "name": "amount",
          "type": "uint256"
        }
      ],
      "name": "withdraw",
      "outputs": [],
      "stateMutability": "nonpayable",
      "type": "function"
    },
    {
      "inputs": [
        {
          "internalType": "uint256",
          "name": "pid",
          "type": "uint256"
        }
      ],
      "name": "withdrawAll",
      "outputs": [],
      "stateMutability": "nonpayable",
      "type": "function"
    },
    {
      "inputs": [
        {
          "internalType": "uint256",
          "name": "pid",
          "type": "uint256"
        }
      ],
      "name": "claim",
      "outputs": [],
      "stateMutability": "nonpayable",
      "type": "function"
    },
    {
      "inputs": [
        {
          "internalType": "uint256",
          "name": "_eulerPerBlock",
          "type": "uint256"
        }
      ],
      "name": "setEulerPerBlock",
      "outputs": [],
      "stateMutability": "nonpayable",
      "type": "function"
    },
    {
      "inputs": [
        {
          "internalType": "uint256",
          "name": "_amount",
          "type": "uint256"
        }
      ],
      "name": "setMinDepositAmount",
      "outputs": [],
      "stateMutability": "nonpayable",
      "type": "function"
    },
    {
      "inputs": [
        {
          "internalType": "uint256",
          "name": "_amount",
          "type": "uint256"
        }
      ],
      "name": "setMaxDepositAmount",
      "outputs": [],
      "stateMutability": "nonpayable",
      "type": "function"
    },
    {
      "inputs": [
        {
          "internalType": "uint256",
          "name": "_fee",
          "type": "uint256"
        }
      ],
      "name": "setEulerTxFee",
      "outputs": [],
      "stateMutability": "nonpayable",
      "type": "function"
    }
  ],
  "bytecode": "0x60806040526064600255612710600355670de0b6b3a764000060045560006005557fffffffffffffffffffffffffffffffffffffffffffffffffffffffffffffffff600655600a6009553480156200005657600080fd5b50620000776200006b6200007d60201b60201c565b6200008560201b60201c565b62000149565b600033905090565b60008060009054906101000a900473ffffffffffffffffffffffffffffffffffffffff169050816000806101000a81548173ffffffffffffffffffffffffffffffffffffffff021916908373ffffffffffffffffffffffffffffffffffffffff1602179055508173ffffffffffffffffffffffffffffffffffffffff168173ffffffffffffffffffffffffffffffffffffffff167f8be0079c531659141344cd1fd0a4f28419497f9722a3daafe3b4186f6b6457e060405160405180910390a35050565b612edf80620001596000396000f3fe608060405234801561001057600080fd5b50600436106101585760003560e01c80638ed83271116100c3578063da690f861161007c578063da690f8614610393578063db661b71146103af578063e2bbb158146103cd578063ebce8389146103e9578063f2fde38b14610405578063fcdea5791461042157610158565b80638ed83271146102be57806393f1a40b146102dc578063958e2d311461030f578063c4511c6a1461032b578063d18df53c14610347578063d208c3821461037757610158565b8063645006ca11610115578063645006ca1461022257806366dd54a014610240578063715018a61461025e578063762b1c92146102685780637ab28707146102845780638da5cb5b146102a057610158565b806301f59d161461015d5780631526fe271461017b57806317caf6f1146101b05780632a80cda3146101ce578063379607f5146101ea578063441a3e7014610206575b600080fd5b61016561043f565b6040516101729190612b25565b60405180910390f35b61019560048036038101906101909190612297565b610445565b6040516101a796959493929190612b85565b60405180910390f35b6101b8610491565b6040516101c59190612b25565b60405180910390f35b6101e860048036038101906101e39190612297565b610497565b005b61020460048036038101906101ff9190612297565b610560565b005b610220600480360381019061021b9190612325565b610777565b005b61022a610a5f565b6040516102379190612b25565b60405180910390f35b610248610a65565b6040516102559190612b25565b60405180910390f35b610266610a6b565b005b610282600480360381019061027d9190612297565b610af3565b005b61029e60048036038101906102999190612297565b610c52565b005b6102a8610d1b565b6040516102b5919061288d565b60405180910390f35b6102c6610d44565b6040516102d39190612b25565b60405180910390f35b6102f660048036038101906102f191906122e9565b610d4a565b6040516103069493929190612b40565b60405180910390f35b61032960048036038101906103249190612297565b610d87565b005b61034560048036038101906103409190612297565b610ded565b005b610361600480360381019061035c91906122e9565b610eb7565b60405161036e9190612b25565b60405180910390f35b610391600480360381019061038c9190612325565b61116d565b005b6103ad60048036038101906103a89190612297565b611243565b005b6103b761130d565b6040516103c49190612908565b60405180910390f35b6103e760048036038101906103e29190612325565b611333565b005b61040360048036038101906103fe919061226e565b61161e565b005b61041f600480360381019061041a919061221c565b61177d565b005b610429611875565b6040516104369190612b25565b60405180910390f35b60035481565b6007818154811061045557600080fd5b90600052602060002090600602016000915090508060000154908060010154908060020154908060030154908060040154908060050154905086565b60095481565b61049f61187b565b73ffffffffffffffffffffffffffffffffffffffff166104bd610d1b565b73ffffffffffffffffffffffffffffffffffffffff1614610513576040517f08c379a000000000000000000000000000000000000000000000000000000000815260040161050a90612a45565b60405180910390fd5b60008111610556576040517f08c379a000000000000000000000000000000000000000000000000000000000815260040161054d90612985565b60405180910390fd5b8060058190555050565b60006007828154811061059c577f4e487b7100000000000000000000000000000000000000000000000000000000600052603260045260246000fd5b9060005260206000209060060201905060006008600084815260200190815260200160002060003373ffffffffffffffffffffffffffffffffffffffff1673ffffffffffffffffffffffffffffffffffffffff168152602001908152602001600020905061060983611883565b6000610653826001015461064564e8d4a5100061063787600201548760000154611ac190919063ffffffff16565b611ad790919063ffffffff16565b611aed90919063ffffffff16565b90506000811180610668575060008260020154115b1561073757610684818360020154611b0390919063ffffffff16565b8260020181905550600061069d33846002015487611b19565b9050843373ffffffffffffffffffffffffffffffffffffffff167f34fcbac0073d7c3d388e51312faf357774904998eeb8fca628b9e6f65ee1cbf7836040516106e69190612b25565b60405180910390a3610705818460020154611aed90919063ffffffff16565b836002018190555042836003018190555061072d818560040154611aed90919063ffffffff16565b8460040181905550505b61076964e8d4a5100061075b85600201548560000154611ac190919063ffffffff16565b611ad790919063ffffffff16565b826001018190555050505050565b6000600783815481106107b3577f4e487b7100000000000000000000000000000000000000000000000000000000600052603260045260246000fd5b9060005260206000209060060201905060006008600085815260200190815260200160002060003373ffffffffffffffffffffffffffffffffffffffff1673ffffffffffffffffffffffffffffffffffffffff16815260200190815260200160002090508160050154816003015461082b9190612c18565b421161086c576040517f08c379a000000000000000000000000000000000000000000000000000000000815260040161086390612945565b60405180910390fd5b82816000015410156108b3576040517f08c379a00000000000000000000000000000000000000000000000000000000081526004016108aa90612ac5565b60405180910390fd5b6108bc84611883565b600061090682600101546108f864e8d4a510006108ea87600201548760000154611ac190919063ffffffff16565b611ad790919063ffffffff16565b611aed90919063ffffffff16565b9050600081111561093157610928818360020154611b0390919063ffffffff16565b82600201819055505b60008411156109c6576109873385600160009054906101000a900473ffffffffffffffffffffffffffffffffffffffff1673ffffffffffffffffffffffffffffffffffffffff16611cd59092919063ffffffff16565b61099e848360000154611aed90919063ffffffff16565b82600001819055506109bd848460030154611aed90919063ffffffff16565b83600301819055505b6109f864e8d4a510006109ea85600201548560000154611ac190919063ffffffff16565b611ad790919063ffffffff16565b8260010181905550428260030181905550843373ffffffffffffffffffffffffffffffffffffffff167ff279e6a1f5e320cca91135676d9cb6e44ca8a08c0b88342bcdb1144f6511b56886604051610a509190612b25565b60405180910390a35050505050565b60055481565b60025481565b610a7361187b565b73ffffffffffffffffffffffffffffffffffffffff16610a91610d1b565b73ffffffffffffffffffffffffffffffffffffffff1614610ae7576040517f08c379a0000000000000000000000000000000000000000000000000000000008152600401610ade90612a45565b60405180910390fd5b610af16000611d5b565b565b610afb61187b565b73ffffffffffffffffffffffffffffffffffffffff16610b19610d1b565b73ffffffffffffffffffffffffffffffffffffffff1614610b6f576040517f08c379a0000000000000000000000000000000000000000000000000000000008152600401610b6690612a45565b60405180910390fd5b60006007600081548110610bac577f4e487b7100000000000000000000000000000000000000000000000000000000600052603260045260246000fd5b90600052602060002090600602016001015414610bfe576040517f08c379a0000000000000000000000000000000000000000000000000000000008152600401610bf590612a25565b60405180910390fd5b806007600081548110610c3a577f4e487b7100000000000000000000000000000000000000000000000000000000600052603260045260246000fd5b90600052602060002090600602016001018190555050565b610c5a61187b565b73ffffffffffffffffffffffffffffffffffffffff16610c78610d1b565b73ffffffffffffffffffffffffffffffffffffffff1614610cce576040517f08c379a0000000000000000000000000000000000000000000000000000000008152600401610cc590612a45565b60405180910390fd5b60008111610d11576040517f08c379a0000000000000000000000000000000000000000000000000000000008152600401610d0890612a85565b60405180910390fd5b8060048190555050565b60008060009054906101000a900473ffffffffffffffffffffffffffffffffffffffff16905090565b60065481565b6008602052816000526040600020602052806000526040600020600091509150508060000154908060010154908060020154908060030154905084565b60006008600083815260200190815260200160002060003373ffffffffffffffffffffffffffffffffffffffff1673ffffffffffffffffffffffffffffffffffffffff1681526020019081526020016000209050610de9828260000154610777565b5050565b610df561187b565b73ffffffffffffffffffffffffffffffffffffffff16610e13610d1b565b73ffffffffffffffffffffffffffffffffffffffff1614610e69576040517f08c379a0000000000000000000000000000000000000000000000000000000008152600401610e6090612a45565b60405180910390fd5b6005548111610ead576040517f08c379a0000000000000000000000000000000000000000000000000000000008152600401610ea4906129e5565b60405180910390fd5b8060068190555050565b60008060078481548110610ef4577f4e487b7100000000000000000000000000000000000000000000000000000000600052603260045260246000fd5b906000526020600020906006020160010154118015610f5e575060078381548110610f48577f4e487b7100000000000000000000000000000000000000000000000000000000600052603260045260246000fd5b9060005260206000209060060201600101544310155b610f9d576040517f08c379a0000000000000000000000000000000000000000000000000000000008152600401610f9490612a65565b60405180910390fd5b600060078481548110610fd9577f4e487b7100000000000000000000000000000000000000000000000000000000600052603260045260246000fd5b9060005260206000209060060201905060006008600086815260200190815260200160002060008573ffffffffffffffffffffffffffffffffffffffff1673ffffffffffffffffffffffffffffffffffffffff1681526020019081526020016000209050600082600201549050600083600301549050836001015443118015611063575060008114155b15611107576000611081856001015443611aed90919063ffffffff16565b905060006110c46009546110b688600001546110a860045487611ac190919063ffffffff16565b611ac190919063ffffffff16565b611ad790919063ffffffff16565b90506111026110f3846110e564e8d4a5100085611ac190919063ffffffff16565b611ad790919063ffffffff16565b85611b0390919063ffffffff16565b935050505b6111618360020154611153856001015461114564e8d4a51000611137888a60000154611ac190919063ffffffff16565b611ad790919063ffffffff16565b611aed90919063ffffffff16565b611b0390919063ffffffff16565b94505050505092915050565b61117561187b565b73ffffffffffffffffffffffffffffffffffffffff16611193610d1b565b73ffffffffffffffffffffffffffffffffffffffff16146111e9576040517f08c379a00000000000000000000000000000000000000000000000000000000081526004016111e090612a45565b60405180910390fd5b600060078281548110611225577f4e487b7100000000000000000000000000000000000000000000000000000000600052603260045260246000fd5b90600052602060002090600602019050828160050181905550505050565b61124b61187b565b73ffffffffffffffffffffffffffffffffffffffff16611269610d1b565b73ffffffffffffffffffffffffffffffffffffffff16146112bf576040517f08c379a00000000000000000000000000000000000000000000000000000000081526004016112b690612a45565b60405180910390fd5b6127108110611303576040517f08c379a00000000000000000000000000000000000000000000000000000000081526004016112fa906129c5565b60405180910390fd5b8060028190555050565b600160009054906101000a900473ffffffffffffffffffffffffffffffffffffffff1681565b6005548110158015611346575060065481105b611385576040517f08c379a000000000000000000000000000000000000000000000000000000000815260040161137c90612b05565b60405180910390fd5b6000600783815481106113c1577f4e487b7100000000000000000000000000000000000000000000000000000000600052603260045260246000fd5b9060005260206000209060060201905060006008600085815260200190815260200160002060003373ffffffffffffffffffffffffffffffffffffffff1673ffffffffffffffffffffffffffffffffffffffff168152602001908152602001600020905061142e84611883565b6000816000015411156114b2576000611485826001015461147764e8d4a5100061146987600201548760000154611ac190919063ffffffff16565b611ad790919063ffffffff16565b611aed90919063ffffffff16565b905060008111156114b0576114a7818360020154611b0390919063ffffffff16565b82600201819055505b505b60008311156115865761150a333085600160009054906101000a900473ffffffffffffffffffffffffffffffffffffffff1673ffffffffffffffffffffffffffffffffffffffff16611e1f909392919063ffffffff16565b61154561153660035461152860025487611ac190919063ffffffff16565b611ad790919063ffffffff16565b84611aed90919063ffffffff16565b925061155e838260000154611b0390919063ffffffff16565b816000018190555061157d838360030154611b0390919063ffffffff16565b82600301819055505b6115b864e8d4a510006115aa84600201548460000154611ac190919063ffffffff16565b611ad790919063ffffffff16565b8160010181905550428160030181905550833373ffffffffffffffffffffffffffffffffffffffff167f90890809c654f11d6e72a28fa60149770a0d11ec6c92319d6ceb2bb0a4ea1a15856040516116109190612b25565b60405180910390a350505050565b61162661187b565b73ffffffffffffffffffffffffffffffffffffffff16611644610d1b565b73ffffffffffffffffffffffffffffffffffffffff161461169a576040517f08c379a000000000000000000000000000000000000000000000000000000000815260040161169190612a45565b60405180910390fd5b600073ffffffffffffffffffffffffffffffffffffffff16600160009054906101000a900473ffffffffffffffffffffffffffffffffffffffff1673ffffffffffffffffffffffffffffffffffffffff161461172b576040517f08c379a000000000000000000000000000000000000000000000000000000000815260040161172290612a05565b60405180910390fd5b80600160006101000a81548173ffffffffffffffffffffffffffffffffffffffff021916908373ffffffffffffffffffffffffffffffffffffffff16021790555061177a600a62278d00611ea8565b50565b61178561187b565b73ffffffffffffffffffffffffffffffffffffffff166117a3610d1b565b73ffffffffffffffffffffffffffffffffffffffff16146117f9576040517f08c379a00000000000000000000000000000000000000000000000000000000081526004016117f090612a45565b60405180910390fd5b600073ffffffffffffffffffffffffffffffffffffffff168173ffffffffffffffffffffffffffffffffffffffff161415611869576040517f08c379a000000000000000000000000000000000000000000000000000000000815260040161186090612965565b60405180910390fd5b61187281611d5b565b50565b60045481565b600033905090565b6000600782815481106118bf577f4e487b7100000000000000000000000000000000000000000000000000000000600052603260045260246000fd5b906000526020600020906006020160010154118015611929575060078181548110611913577f4e487b7100000000000000000000000000000000000000000000000000000000600052603260045260246000fd5b9060005260206000209060060201600101544310155b611968576040517f08c379a000000000000000000000000000000000000000000000000000000000815260040161195f90612a65565b60405180910390fd5b6000600782815481106119a4577f4e487b7100000000000000000000000000000000000000000000000000000000600052603260045260246000fd5b90600052602060002090600602019050806001015443116119c55750611abe565b6000816003015490506000826003015414156119eb574382600101819055505050611abe565b6000611a04836001015443611aed90919063ffffffff16565b90506000611a47600954611a398660000154611a2b60045487611ac190919063ffffffff16565b611ac190919063ffffffff16565b611ad790919063ffffffff16565b9050611a60818560040154611b0390919063ffffffff16565b8460040181905550611aa8611a9584611a8764e8d4a5100085611ac190919063ffffffff16565b611ad790919063ffffffff16565b8560020154611b0390919063ffffffff16565b8460020181905550438460010181905550505050505b50565b60008183611acf9190612c9f565b905092915050565b60008183611ae59190612c6e565b905092915050565b60008183611afb9190612cf9565b905092915050565b60008183611b119190612c18565b905092915050565b60008060078381548110611b56577f4e487b7100000000000000000000000000000000000000000000000000000000600052603260045260246000fd5b90600052602060002090600602016040518060c0016040529081600082015481526020016001820154815260200160028201548152602001600382015481526020016004820154815260200160058201548152505090506000600160009054906101000a900473ffffffffffffffffffffffffffffffffffffffff1673ffffffffffffffffffffffffffffffffffffffff166370a08231306040518263ffffffff1660e01b8152600401611c0a919061288d565b60206040518083038186803b158015611c2257600080fd5b505afa158015611c36573d6000803e3d6000fd5b505050506040513d601f19601f82011682018060405250810190611c5a91906122c0565b90508160800151851115611c7057816080015194505b80851115611c7c578094505b611cc98686600160009054906101000a900473ffffffffffffffffffffffffffffffffffffffff1673ffffffffffffffffffffffffffffffffffffffff16611cd59092919063ffffffff16565b84925050509392505050565b611d568363a9059cbb60e01b8484604051602401611cf49291906128df565b604051602081830303815290604052907bffffffffffffffffffffffffffffffffffffffffffffffffffffffff19166020820180517bffffffffffffffffffffffffffffffffffffffffffffffffffffffff8381831617835250505050611f46565b505050565b60008060009054906101000a900473ffffffffffffffffffffffffffffffffffffffff169050816000806101000a81548173ffffffffffffffffffffffffffffffffffffffff021916908373ffffffffffffffffffffffffffffffffffffffff1602179055508173ffffffffffffffffffffffffffffffffffffffff168173ffffffffffffffffffffffffffffffffffffffff167f8be0079c531659141344cd1fd0a4f28419497f9722a3daafe3b4186f6b6457e060405160405180910390a35050565b611ea2846323b872dd60e01b858585604051602401611e40939291906128a8565b604051602081830303815290604052907bffffffffffffffffffffffffffffffffffffffffffffffffffffffff19166020820180517bffffffffffffffffffffffffffffffffffffffffffffffffffffffff8381831617835250505050611f46565b50505050565b60076040518060c0016040528084815260200160008152602001600081526020016000815260200160008152602001838152509080600181540180825580915050600190039060005260206000209060060201600090919091909150600082015181600001556020820151816001015560408201518160020155606082015181600301556080820151816004015560a0820151816005015550505050565b6000611fa8826040518060400160405280602081526020017f5361666545524332303a206c6f772d6c6576656c2063616c6c206661696c65648152508573ffffffffffffffffffffffffffffffffffffffff1661200d9092919063ffffffff16565b90506000815111156120085780806020019051810190611fc89190612245565b612007576040517f08c379a0000000000000000000000000000000000000000000000000000000008152600401611ffe90612ae5565b60405180910390fd5b5b505050565b606061201c8484600085612025565b90509392505050565b60608247101561206a576040517f08c379a0000000000000000000000000000000000000000000000000000000008152600401612061906129a5565b60405180910390fd5b61207385612139565b6120b2576040517f08c379a00000000000000000000000000000000000000000000000000000000081526004016120a990612aa5565b60405180910390fd5b6000808673ffffffffffffffffffffffffffffffffffffffff1685876040516120db9190612876565b60006040518083038185875af1925050503d8060008114612118576040519150601f19603f3d011682016040523d82523d6000602084013e61211d565b606091505b509150915061212d82828661214c565b92505050949350505050565b600080823b905060008111915050919050565b6060831561215c578290506121ac565b60008351111561216f5782518084602001fd5b816040517f08c379a00000000000000000000000000000000000000000000000000000000081526004016121a39190612923565b60405180910390fd5b9392505050565b6000813590506121c281612e4d565b92915050565b6000815190506121d781612e64565b92915050565b6000813590506121ec81612e7b565b92915050565b60008135905061220181612e92565b92915050565b60008151905061221681612e92565b92915050565b60006020828403121561222e57600080fd5b600061223c848285016121b3565b91505092915050565b60006020828403121561225757600080fd5b6000612265848285016121c8565b91505092915050565b60006020828403121561228057600080fd5b600061228e848285016121dd565b91505092915050565b6000602082840312156122a957600080fd5b60006122b7848285016121f2565b91505092915050565b6000602082840312156122d257600080fd5b60006122e084828501612207565b91505092915050565b600080604083850312156122fc57600080fd5b600061230a858286016121f2565b925050602061231b858286016121b3565b9150509250929050565b6000806040838503121561233857600080fd5b6000612346858286016121f2565b9250506020612357858286016121f2565b9150509250929050565b61236a81612d2d565b82525050565b600061237b82612be6565b6123858185612bfc565b9350612395818560208601612dab565b80840191505092915050565b6123aa81612d87565b82525050565b60006123bb82612bf1565b6123c58185612c07565b93506123d5818560208601612dab565b6123de81612e3c565b840191505092915050565b60006123f6601883612c07565b91507f596f752063616e6e6f74207769746864726177207965742100000000000000006000830152602082019050919050565b6000612436602683612c07565b91507f4f776e61626c653a206e6577206f776e657220697320746865207a65726f206160008301527f64647265737300000000000000000000000000000000000000000000000000006020830152604082019050919050565b600061249c600d83612c07565b91507f696e76616c69642076616c7565000000000000000000000000000000000000006000830152602082019050919050565b60006124dc602683612c07565b91507f416464726573733a20696e73756666696369656e742062616c616e636520666f60008301527f722063616c6c00000000000000000000000000000000000000000000000000006020830152604082019050919050565b6000612542600b83612c07565b91507f696e76616c6964206665650000000000000000000000000000000000000000006000830152602082019050919050565b6000612582603483612c07565b91507f696e76616c69642076616c75652c2073686f756c64206265206772656174657260008301527f207468616e206d696e696e756d20616d6f756e740000000000000000000000006020830152604082019050919050565b60006125e8601283612c07565b91507f546f6b656e20616c7265616479207365742100000000000000000000000000006000830152602082019050919050565b6000612628601783612c07565b91507f5374616b696e6720616c726561647920737461727465640000000000000000006000830152602082019050919050565b6000612668602083612c07565b91507f4f776e61626c653a2063616c6c6572206973206e6f7420746865206f776e65726000830152602082019050919050565b60006126a8601783612c07565b91507f5374616b696e67206e6f742079657420737461727465640000000000000000006000830152602082019050919050565b60006126e8602983612c07565b91507f45554c45522070657220626c6f636b2073686f756c642062652067726561746560008301527f72207468616e20302100000000000000000000000000000000000000000000006020830152604082019050919050565b600061274e601d83612c07565b91507f416464726573733a2063616c6c20746f206e6f6e2d636f6e74726163740000006000830152602082019050919050565b600061278e601f83612c07565b91507f5769746864726177696e67206d6f7265207468616e20796f75206861766521006000830152602082019050919050565b60006127ce602a83612c07565b91507f5361666545524332303a204552433230206f7065726174696f6e20646964206e60008301527f6f742073756363656564000000000000000000000000000000000000000000006020830152604082019050919050565b6000612834601683612c07565b91507f696e76616c6964206465706f73697420616d6f756e74000000000000000000006000830152602082019050919050565b61287081612d7d565b82525050565b60006128828284612370565b915081905092915050565b60006020820190506128a26000830184612361565b92915050565b60006060820190506128bd6000830186612361565b6128ca6020830185612361565b6128d76040830184612867565b949350505050565b60006040820190506128f46000830185612361565b6129016020830184612867565b9392505050565b600060208201905061291d60008301846123a1565b92915050565b6000602082019050818103600083015261293d81846123b0565b905092915050565b6000602082019050818103600083015261295e816123e9565b9050919050565b6000602082019050818103600083015261297e81612429565b9050919050565b6000602082019050818103600083015261299e8161248f565b9050919050565b600060208201905081810360008301526129be816124cf565b9050919050565b600060208201905081810360008301526129de81612535565b9050919050565b600060208201905081810360008301526129fe81612575565b9050919050565b60006020820190508181036000830152612a1e816125db565b9050919050565b60006020820190508181036000830152612a3e8161261b565b9050919050565b60006020820190508181036000830152612a5e8161265b565b9050919050565b60006020820190508181036000830152612a7e8161269b565b9050919050565b60006020820190508181036000830152612a9e816126db565b9050919050565b60006020820190508181036000830152612abe81612741565b9050919050565b60006020820190508181036000830152612ade81612781565b9050919050565b60006020820190508181036000830152612afe816127c1565b9050919050565b60006020820190508181036000830152612b1e81612827565b9050919050565b6000602082019050612b3a6000830184612867565b92915050565b6000608082019050612b556000830187612867565b612b626020830186612867565b612b6f6040830185612867565b612b7c6060830184612867565b95945050505050565b600060c082019050612b9a6000830189612867565b612ba76020830188612867565b612bb46040830187612867565b612bc16060830186612867565b612bce6080830185612867565b612bdb60a0830184612867565b979650505050505050565b600081519050919050565b600081519050919050565b600081905092915050565b600082825260208201905092915050565b6000612c2382612d7d565b9150612c2e83612d7d565b9250827fffffffffffffffffffffffffffffffffffffffffffffffffffffffffffffffff03821115612c6357612c62612dde565b5b828201905092915050565b6000612c7982612d7d565b9150612c8483612d7d565b925082612c9457612c93612e0d565b5b828204905092915050565b6000612caa82612d7d565b9150612cb583612d7d565b9250817fffffffffffffffffffffffffffffffffffffffffffffffffffffffffffffffff0483118215151615612cee57612ced612dde565b5b828202905092915050565b6000612d0482612d7d565b9150612d0f83612d7d565b925082821015612d2257612d21612dde565b5b828203905092915050565b6000612d3882612d5d565b9050919050565b60008115159050919050565b6000612d5682612d2d565b9050919050565b600073ffffffffffffffffffffffffffffffffffffffff82169050919050565b6000819050919050565b6000612d9282612d99565b9050919050565b6000612da482612d5d565b9050919050565b60005b83811015612dc9578082015181840152602081019050612dae565b83811115612dd8576000848401525b50505050565b7f4e487b7100000000000000000000000000000000000000000000000000000000600052601160045260246000fd5b7f4e487b7100000000000000000000000000000000000000000000000000000000600052601260045260246000fd5b6000601f19601f8301169050919050565b612e5681612d2d565b8114612e6157600080fd5b50565b612e6d81612d3f565b8114612e7857600080fd5b50565b612e8481612d4b565b8114612e8f57600080fd5b50565b612e9b81612d7d565b8114612ea657600080fd5b5056fea26469706673582212209b4222831ee1d8055f3ca66dd9ed8329b7d8cf588d8b43fda508095609ddb92864736f6c63430008000033",
  "immutableReferences": {},
  "source": "//SPDX-License-Identifier: Unlicense\r\npragma solidity >=0.8.0;\r\n\r\nimport \"@openzeppelin/contracts/access/Ownable.sol\";\r\nimport \"@openzeppelin/contracts/token/ERC20/utils/SafeERC20.sol\";\r\nimport \"@openzeppelin/contracts/utils/math/SafeMath.sol\";\r\n\r\ncontract EulerStaking is Ownable {\r\n  using SafeMath for uint256;\r\n  using SafeERC20 for IERC20;\r\n\r\n  struct UserInfo {\r\n    uint256 amount;\r\n    uint256 rewardDebt;\r\n    uint256 pendingRewards;\r\n    uint256 lastClaim;\r\n  }\r\n\r\n  struct PoolInfo {\r\n    uint256 allocPoint;\r\n    uint256 lastRewardBlock;\r\n    uint256 accEulerPerShare;\r\n    uint256 depositedAmount;\r\n    uint256 rewardsAmount;\r\n    uint256 lockupDuration;\r\n  }\r\n\r\n  IERC20 public euler;\r\n  uint256 public eulerTxFee = 100;\r\n  uint256 public maxFee = 10000;\r\n  uint256 public eulerPerBlock = uint256(1 ether);\r\n  uint256 public minDepositAmount = 0;\r\n  uint256 public maxDepositAmount = type(uint256).max;\r\n\r\n  PoolInfo[] public poolInfo;\r\n  mapping(uint256 => mapping(address => UserInfo)) public userInfo;\r\n  uint256 public totalAllocPoint = 10;\r\n\r\n  event Deposit(address indexed user, uint256 indexed pid, uint256 amount);\r\n  event Withdraw(address indexed user, uint256 indexed pid, uint256 amount);\r\n  event Claim(address indexed user, uint256 indexed pid, uint256 amount);\r\n\r\n  function addPool(uint256 _allocPoint, uint256 _lockupDuration) internal {\r\n    poolInfo.push(\r\n      PoolInfo({\r\n        allocPoint: _allocPoint,\r\n        lastRewardBlock: 0,\r\n        accEulerPerShare: 0,\r\n        depositedAmount: 0,\r\n        rewardsAmount: 0,\r\n        lockupDuration: _lockupDuration\r\n      })\r\n    );\r\n  }\r\n\r\n  function setEulerToken(IERC20 _euler) external onlyOwner {\r\n    require(address(euler) == address(0), \"Token already set!\");\r\n    euler = _euler;\r\n    addPool(10, 30 days);\r\n  }\r\n\r\n  function startStaking(uint256 startBlock) external onlyOwner {\r\n    require(poolInfo[0].lastRewardBlock == 0, \"Staking already started\");\r\n    poolInfo[0].lastRewardBlock = startBlock;\r\n  }\r\n\r\n  function setLockupDuration(uint256 _lockupDuration, uint256 pid)\r\n    external\r\n    onlyOwner\r\n  {\r\n    PoolInfo storage pool = poolInfo[pid];\r\n    pool.lockupDuration = _lockupDuration;\r\n  }\r\n\r\n  function pendingRewards(uint256 pid, address _user)\r\n    external\r\n    view\r\n    returns (uint256)\r\n  {\r\n    require(\r\n      poolInfo[pid].lastRewardBlock > 0 &&\r\n        block.number >= poolInfo[pid].lastRewardBlock,\r\n      \"Staking not yet started\"\r\n    );\r\n    PoolInfo storage pool = poolInfo[pid];\r\n    UserInfo storage user = userInfo[pid][_user];\r\n    uint256 accEulerPerShare = pool.accEulerPerShare;\r\n    uint256 depositedAmount = pool.depositedAmount;\r\n    if (block.number > pool.lastRewardBlock && depositedAmount != 0) {\r\n      uint256 multiplier = block.number.sub(pool.lastRewardBlock);\r\n      uint256 eulerReward = multiplier\r\n      .mul(eulerPerBlock)\r\n      .mul(pool.allocPoint)\r\n      .div(totalAllocPoint);\r\n      accEulerPerShare = accEulerPerShare.add(\r\n        eulerReward.mul(1e12).div(depositedAmount)\r\n      );\r\n    }\r\n    return\r\n      user.amount.mul(accEulerPerShare).div(1e12).sub(user.rewardDebt).add(\r\n        user.pendingRewards\r\n      );\r\n  }\r\n\r\n  function updatePool(uint256 pid) internal {\r\n    require(\r\n      poolInfo[pid].lastRewardBlock > 0 &&\r\n        block.number >= poolInfo[pid].lastRewardBlock,\r\n      \"Staking not yet started\"\r\n    );\r\n    PoolInfo storage pool = poolInfo[pid];\r\n    if (block.number <= pool.lastRewardBlock) {\r\n      return;\r\n    }\r\n    uint256 depositedAmount = pool.depositedAmount;\r\n    if (pool.depositedAmount == 0) {\r\n      pool.lastRewardBlock = block.number;\r\n      return;\r\n    }\r\n    uint256 multiplier = block.number.sub(pool.lastRewardBlock);\r\n    uint256 eulerReward = multiplier\r\n    .mul(eulerPerBlock)\r\n    .mul(pool.allocPoint)\r\n    .div(totalAllocPoint);\r\n    pool.rewardsAmount = pool.rewardsAmount.add(eulerReward);\r\n    pool.accEulerPerShare = pool.accEulerPerShare.add(\r\n      eulerReward.mul(1e12).div(depositedAmount)\r\n    );\r\n    pool.lastRewardBlock = block.number;\r\n  }\r\n\r\n  function deposit(uint256 pid, uint256 amount) external {\r\n    require(\r\n      amount >= minDepositAmount && amount < maxDepositAmount,\r\n      \"invalid deposit amount\"\r\n    );\r\n\r\n    PoolInfo storage pool = poolInfo[pid];\r\n    UserInfo storage user = userInfo[pid][msg.sender];\r\n    updatePool(pid);\r\n    if (user.amount > 0) {\r\n      uint256 pending = user.amount.mul(pool.accEulerPerShare).div(1e12).sub(\r\n        user.rewardDebt\r\n      );\r\n      if (pending > 0) {\r\n        user.pendingRewards = user.pendingRewards.add(pending);\r\n      }\r\n    }\r\n    if (amount > 0) {\r\n      euler.safeTransferFrom(address(msg.sender), address(this), amount);\r\n      // Lost 1% fee from transaction\r\n      amount = amount.sub(amount.mul(eulerTxFee).div(maxFee));\r\n      user.amount = user.amount.add(amount);\r\n      pool.depositedAmount = pool.depositedAmount.add(amount);\r\n    }\r\n    user.rewardDebt = user.amount.mul(pool.accEulerPerShare).div(1e12);\r\n    user.lastClaim = block.timestamp;\r\n    emit Deposit(msg.sender, pid, amount);\r\n  }\r\n\r\n  function withdraw(uint256 pid, uint256 amount) public {\r\n    PoolInfo storage pool = poolInfo[pid];\r\n    UserInfo storage user = userInfo[pid][msg.sender];\r\n    require(\r\n      block.timestamp > user.lastClaim + pool.lockupDuration,\r\n      \"You cannot withdraw yet!\"\r\n    );\r\n    require(user.amount >= amount, \"Withdrawing more than you have!\");\r\n    updatePool(pid);\r\n    uint256 pending = user.amount.mul(pool.accEulerPerShare).div(1e12).sub(\r\n      user.rewardDebt\r\n    );\r\n    if (pending > 0) {\r\n      user.pendingRewards = user.pendingRewards.add(pending);\r\n    }\r\n    if (amount > 0) {\r\n      euler.safeTransfer(address(msg.sender), amount);\r\n      user.amount = user.amount.sub(amount);\r\n      pool.depositedAmount = pool.depositedAmount.sub(amount);\r\n    }\r\n    user.rewardDebt = user.amount.mul(pool.accEulerPerShare).div(1e12);\r\n    user.lastClaim = block.timestamp;\r\n    emit Withdraw(msg.sender, pid, amount);\r\n  }\r\n\r\n  function withdrawAll(uint256 pid) external {\r\n    UserInfo storage user = userInfo[pid][msg.sender];\r\n\r\n    withdraw(pid, user.amount);\r\n  }\r\n\r\n  function claim(uint256 pid) public {\r\n    PoolInfo storage pool = poolInfo[pid];\r\n    UserInfo storage user = userInfo[pid][msg.sender];\r\n    updatePool(pid);\r\n    uint256 pending = user.amount.mul(pool.accEulerPerShare).div(1e12).sub(\r\n      user.rewardDebt\r\n    );\r\n    if (pending > 0 || user.pendingRewards > 0) {\r\n      user.pendingRewards = user.pendingRewards.add(pending);\r\n      uint256 claimedAmount = safeEulerTransfer(\r\n        msg.sender,\r\n        user.pendingRewards,\r\n        pid\r\n      );\r\n      emit Claim(msg.sender, pid, claimedAmount);\r\n      user.pendingRewards = user.pendingRewards.sub(claimedAmount);\r\n      user.lastClaim = block.timestamp;\r\n      pool.rewardsAmount = pool.rewardsAmount.sub(claimedAmount);\r\n    }\r\n    user.rewardDebt = user.amount.mul(pool.accEulerPerShare).div(1e12);\r\n  }\r\n\r\n  function safeEulerTransfer(\r\n    address to,\r\n    uint256 amount,\r\n    uint256 pid\r\n  ) internal returns (uint256) {\r\n    PoolInfo memory pool = poolInfo[pid];\r\n    uint256 _bal = euler.balanceOf(address(this));\r\n    if (amount > pool.rewardsAmount) amount = pool.rewardsAmount;\r\n    if (amount > _bal) amount = _bal;\r\n    euler.safeTransfer(to, amount);\r\n    return amount;\r\n  }\r\n\r\n  function setEulerPerBlock(uint256 _eulerPerBlock) external onlyOwner {\r\n    require(_eulerPerBlock > 0, \"EULER per block should be greater than 0!\");\r\n    eulerPerBlock = _eulerPerBlock;\r\n  }\r\n\r\n  function setMinDepositAmount(uint256 _amount) external onlyOwner {\r\n    require(_amount > 0, \"invalid value\");\r\n    minDepositAmount = _amount;\r\n  }\r\n\r\n  function setMaxDepositAmount(uint256 _amount) external onlyOwner {\r\n    require(\r\n      _amount > minDepositAmount,\r\n      \"invalid value, should be greater than mininum amount\"\r\n    );\r\n    maxDepositAmount = _amount;\r\n  }\r\n\r\n  function setEulerTxFee(uint256 _fee) external onlyOwner {\r\n    require(_fee < 10000, \"invalid fee\");\r\n\r\n    eulerTxFee = _fee;\r\n  }\r\n}\r\n",
  "sourcePath": "/Users/tebayoso/code/euler/contracts/contracts/EulerStaking.sol",
  "compiler": {
    "name": "solc",
    "version": "0.8.0+commit.c7dfd78e.Emscripten.clang"
  },
  "schemaVersion": "3.4.2",
  "updatedAt": "2021-08-13T15:23:46.260Z",
  "devdoc": {
    "kind": "dev",
    "methods": {
      "owner()": {
        "details": "Returns the address of the current owner."
      },
      "renounceOwnership()": {
        "details": "Leaves the contract without owner. It will not be possible to call `onlyOwner` functions anymore. Can only be called by the current owner. NOTE: Renouncing ownership will leave the contract without an owner, thereby removing any functionality that is only available to the owner."
      },
      "transferOwnership(address)": {
        "details": "Transfers ownership of the contract to a new account (`newOwner`). Can only be called by the current owner."
      }
    },
    "version": 1
  },
  "userdoc": {
    "kind": "user",
    "methods": {},
    "version": 1
  }
}