{
  "contractName": "EulerStaking",
  "abi": [
    {
      "anonymous": false,
      "inputs": [
        {
          "indexed": true,
          "internalType": "address",
          "name": "user",
          "type": "address"
        },
        {
          "indexed": false,
          "internalType": "uint256",
          "name": "amount",
          "type": "uint256"
        }
      ],
      "name": "Claim",
      "type": "event"
    },
    {
      "anonymous": false,
      "inputs": [
        {
          "indexed": true,
          "internalType": "address",
          "name": "user",
          "type": "address"
        },
        {
          "indexed": false,
          "internalType": "uint256",
          "name": "amount",
          "type": "uint256"
        }
      ],
      "name": "Deposit",
      "type": "event"
    },
    {
      "anonymous": false,
      "inputs": [
        {
          "indexed": true,
          "internalType": "address",
          "name": "previousOwner",
          "type": "address"
        },
        {
          "indexed": true,
          "internalType": "address",
          "name": "newOwner",
          "type": "address"
        }
      ],
      "name": "OwnershipTransferred",
      "type": "event"
    },
    {
      "anonymous": false,
      "inputs": [
        {
          "indexed": true,
          "internalType": "address",
          "name": "user",
          "type": "address"
        },
        {
          "indexed": false,
          "internalType": "uint256",
          "name": "newEulerPerBlock",
          "type": "uint256"
        }
      ],
      "name": "SetEulerPerBlock",
      "type": "event"
    },
    {
      "anonymous": false,
      "inputs": [
        {
          "indexed": true,
          "internalType": "address",
          "name": "user",
          "type": "address"
        },
        {
          "indexed": false,
          "internalType": "address",
          "name": "token",
          "type": "address"
        }
      ],
      "name": "SetEulerToken",
      "type": "event"
    },
    {
      "anonymous": false,
      "inputs": [
        {
          "indexed": true,
          "internalType": "address",
          "name": "user",
          "type": "address"
        },
        {
          "indexed": false,
          "internalType": "uint256",
          "name": "newEulerTxFee",
          "type": "uint256"
        }
      ],
      "name": "SetEulerTxFee",
      "type": "event"
    },
    {
      "anonymous": false,
      "inputs": [
        {
          "indexed": true,
          "internalType": "address",
          "name": "user",
          "type": "address"
        },
        {
          "indexed": false,
          "internalType": "uint256",
          "name": "newLockupDuration",
          "type": "uint256"
        }
      ],
      "name": "SetLockupDuration",
      "type": "event"
    },
    {
      "anonymous": false,
      "inputs": [
        {
          "indexed": true,
          "internalType": "address",
          "name": "user",
          "type": "address"
        },
        {
          "indexed": false,
          "internalType": "uint256",
          "name": "newMaxDepositAmount",
          "type": "uint256"
        }
      ],
      "name": "SetMaxDepositAmount",
      "type": "event"
    },
    {
      "anonymous": false,
      "inputs": [
        {
          "indexed": true,
          "internalType": "address",
          "name": "user",
          "type": "address"
        },
        {
          "indexed": false,
          "internalType": "uint256",
          "name": "newMinDepositAmount",
          "type": "uint256"
        }
      ],
      "name": "SetMinDepositAmount",
      "type": "event"
    },
    {
      "anonymous": false,
      "inputs": [
        {
          "indexed": true,
          "internalType": "address",
          "name": "user",
          "type": "address"
        },
        {
          "indexed": false,
          "internalType": "uint256",
          "name": "startBlock",
          "type": "uint256"
        }
      ],
      "name": "StartStaking",
      "type": "event"
    },
    {
      "anonymous": false,
      "inputs": [
        {
          "indexed": true,
          "internalType": "address",
          "name": "user",
          "type": "address"
        },
        {
          "indexed": false,
          "internalType": "uint256",
          "name": "amount",
          "type": "uint256"
        }
      ],
      "name": "Withdraw",
      "type": "event"
    },
    {
      "inputs": [],
      "name": "euler",
      "outputs": [
        {
          "internalType": "contract IERC20",
          "name": "",
          "type": "address"
        }
      ],
      "stateMutability": "view",
      "type": "function",
      "constant": true
    },
    {
      "inputs": [],
      "name": "eulerPerBlock",
      "outputs": [
        {
          "internalType": "uint256",
          "name": "",
          "type": "uint256"
        }
      ],
      "stateMutability": "view",
      "type": "function",
      "constant": true
    },
    {
      "inputs": [],
      "name": "eulerTxFee",
      "outputs": [
        {
          "internalType": "uint256",
          "name": "",
          "type": "uint256"
        }
      ],
      "stateMutability": "view",
      "type": "function",
      "constant": true
    },
    {
      "inputs": [],
      "name": "initialLockupDuration",
      "outputs": [
        {
          "internalType": "uint256",
          "name": "",
          "type": "uint256"
        }
      ],
      "stateMutability": "view",
      "type": "function",
      "constant": true
    },
    {
      "inputs": [],
      "name": "maxDepositAmount",
      "outputs": [
        {
          "internalType": "uint256",
          "name": "",
          "type": "uint256"
        }
      ],
      "stateMutability": "view",
      "type": "function",
      "constant": true
    },
    {
      "inputs": [],
      "name": "maxFee",
      "outputs": [
        {
          "internalType": "uint256",
          "name": "",
          "type": "uint256"
        }
      ],
      "stateMutability": "view",
      "type": "function",
      "constant": true
    },
    {
      "inputs": [],
      "name": "minDepositAmount",
      "outputs": [
        {
          "internalType": "uint256",
          "name": "",
          "type": "uint256"
        }
      ],
      "stateMutability": "view",
      "type": "function",
      "constant": true
    },
    {
      "inputs": [],
      "name": "owner",
      "outputs": [
        {
          "internalType": "address",
          "name": "",
          "type": "address"
        }
      ],
      "stateMutability": "view",
      "type": "function",
      "constant": true
    },
    {
      "inputs": [],
      "name": "poolInfo",
      "outputs": [
        {
          "internalType": "uint256",
          "name": "lastRewardBlock",
          "type": "uint256"
        },
        {
          "internalType": "uint256",
          "name": "accEulerPerShare",
          "type": "uint256"
        },
        {
          "internalType": "uint256",
          "name": "depositedAmount",
          "type": "uint256"
        },
        {
          "internalType": "uint256",
          "name": "rewardsAmount",
          "type": "uint256"
        },
        {
          "internalType": "uint256",
          "name": "lockupDuration",
          "type": "uint256"
        }
      ],
      "stateMutability": "view",
      "type": "function",
      "constant": true
    },
    {
      "inputs": [],
      "name": "renounceOwnership",
      "outputs": [],
      "stateMutability": "nonpayable",
      "type": "function"
    },
    {
      "inputs": [
        {
          "internalType": "address",
          "name": "newOwner",
          "type": "address"
        }
      ],
      "name": "transferOwnership",
      "outputs": [],
      "stateMutability": "nonpayable",
      "type": "function"
    },
    {
      "inputs": [
        {
          "internalType": "address",
          "name": "",
          "type": "address"
        }
      ],
      "name": "userInfo",
      "outputs": [
        {
          "internalType": "uint256",
          "name": "amount",
          "type": "uint256"
        },
        {
          "internalType": "uint256",
          "name": "rewardDebt",
          "type": "uint256"
        },
        {
          "internalType": "uint256",
          "name": "pendingRewards",
          "type": "uint256"
        },
        {
          "internalType": "uint256",
          "name": "lastClaim",
          "type": "uint256"
        },
        {
          "internalType": "bool",
          "name": "exists",
          "type": "bool"
        }
      ],
      "stateMutability": "view",
      "type": "function",
      "constant": true
    },
    {
      "inputs": [
        {
          "internalType": "contract IERC20",
          "name": "_euler",
          "type": "address"
        }
      ],
      "name": "setEulerToken",
      "outputs": [],
      "stateMutability": "nonpayable",
      "type": "function"
    },
    {
      "inputs": [
        {
          "internalType": "uint256",
          "name": "startBlock",
          "type": "uint256"
        }
      ],
      "name": "startStaking",
      "outputs": [],
      "stateMutability": "nonpayable",
      "type": "function"
    },
    {
      "inputs": [
        {
          "internalType": "uint256",
          "name": "_lockupDuration",
          "type": "uint256"
        }
      ],
      "name": "setLockupDuration",
      "outputs": [],
      "stateMutability": "nonpayable",
      "type": "function"
    },
    {
      "inputs": [
        {
          "internalType": "uint256",
          "name": "_eulerPerBlock",
          "type": "uint256"
        }
      ],
      "name": "setEulerPerBlock",
      "outputs": [],
      "stateMutability": "nonpayable",
      "type": "function"
    },
    {
      "inputs": [
        {
          "internalType": "uint256",
          "name": "_amount",
          "type": "uint256"
        }
      ],
      "name": "setMinDepositAmount",
      "outputs": [],
      "stateMutability": "nonpayable",
      "type": "function"
    },
    {
      "inputs": [
        {
          "internalType": "uint256",
          "name": "_amount",
          "type": "uint256"
        }
      ],
      "name": "setMaxDepositAmount",
      "outputs": [],
      "stateMutability": "nonpayable",
      "type": "function"
    },
    {
      "inputs": [
        {
          "internalType": "uint256",
          "name": "_fee",
          "type": "uint256"
        }
      ],
      "name": "setEulerTxFee",
      "outputs": [],
      "stateMutability": "nonpayable",
      "type": "function"
    },
    {
      "inputs": [
        {
          "internalType": "address",
          "name": "_user",
          "type": "address"
        }
      ],
      "name": "getUserInfo",
      "outputs": [
        {
          "components": [
            {
              "internalType": "uint256",
              "name": "amount",
              "type": "uint256"
            },
            {
              "internalType": "uint256",
              "name": "pendingRewards",
              "type": "uint256"
            },
            {
              "internalType": "uint256",
              "name": "withdrawAvaliable",
              "type": "uint256"
            },
            {
              "internalType": "uint256",
              "name": "eulerPerBlock",
              "type": "uint256"
            },
            {
              "internalType": "uint256",
              "name": "tvl",
              "type": "uint256"
            }
          ],
          "internalType": "struct EulerStaking.GetUserInfo",
          "name": "",
          "type": "tuple"
        }
      ],
      "stateMutability": "view",
      "type": "function",
      "constant": true
    },
    {
      "inputs": [],
      "name": "getTotalUsers",
      "outputs": [
        {
          "internalType": "uint256",
          "name": "",
          "type": "uint256"
        }
      ],
      "stateMutability": "view",
      "type": "function",
      "constant": true
    },
    {
      "inputs": [
        {
          "internalType": "uint256",
          "name": "position",
          "type": "uint256"
        }
      ],
      "name": "getUserInfoByPosition",
      "outputs": [
        {
          "components": [
            {
              "internalType": "uint256",
              "name": "amount",
              "type": "uint256"
            },
            {
              "internalType": "uint256",
              "name": "pendingRewards",
              "type": "uint256"
            },
            {
              "internalType": "uint256",
              "name": "withdrawAvaliable",
              "type": "uint256"
            },
            {
              "internalType": "uint256",
              "name": "eulerPerBlock",
              "type": "uint256"
            },
            {
              "internalType": "uint256",
              "name": "tvl",
              "type": "uint256"
            }
          ],
          "internalType": "struct EulerStaking.GetUserInfo",
          "name": "",
          "type": "tuple"
        }
      ],
      "stateMutability": "view",
      "type": "function",
      "constant": true
    },
    {
      "inputs": [
        {
          "internalType": "uint256",
          "name": "amount",
          "type": "uint256"
        }
      ],
      "name": "deposit",
      "outputs": [],
      "stateMutability": "nonpayable",
      "type": "function"
    },
    {
      "inputs": [
        {
          "internalType": "uint256",
          "name": "amount",
          "type": "uint256"
        }
      ],
      "name": "withdraw",
      "outputs": [],
      "stateMutability": "nonpayable",
      "type": "function"
    },
    {
      "inputs": [],
      "name": "withdrawAll",
      "outputs": [],
      "stateMutability": "nonpayable",
      "type": "function"
    },
    {
      "inputs": [],
      "name": "claim",
      "outputs": [],
      "stateMutability": "nonpayable",
      "type": "function"
    }
  ],
  "bytecode": "0x608060405262278d006001556064600355670de0b6b3a764000060045560006005557fffffffffffffffffffffffffffffffffffffffffffffffffffffffffffffffff6006553480156200005257600080fd5b5062000073620000676200007960201b60201c565b6200008160201b60201c565b62000145565b600033905090565b60008060009054906101000a900473ffffffffffffffffffffffffffffffffffffffff169050816000806101000a81548173ffffffffffffffffffffffffffffffffffffffff021916908373ffffffffffffffffffffffffffffffffffffffff1602179055508173ffffffffffffffffffffffffffffffffffffffff168173ffffffffffffffffffffffffffffffffffffffff167f8be0079c531659141344cd1fd0a4f28419497f9722a3daafe3b4186f6b6457e060405160405180910390a35050565b6134a480620001556000396000f3fe608060405234801561001057600080fd5b506004361061018e5760003560e01c8063853828b6116100de578063c4511c6a11610097578063e7a1107f11610071578063e7a1107f1461041b578063ebce838914610437578063f2fde38b14610453578063fcdea5791461046f5761018e565b8063c4511c6a146103c5578063da690f86146103e1578063db661b71146103fd5761018e565b8063853828b6146103155780638da5cb5b1461031f5780638ed832711461033d5780639be572f61461035b578063ab6c25e214610379578063b6b55f25146103a95761018e565b80635a2f3d091161014b57806366dd54a01161012557806366dd54a0146102b5578063715018a6146102d3578063762b1c92146102dd5780637ab28707146102f95761018e565b80635a2f3d09146102455780636386c1c714610267578063645006ca146102975761018e565b806301f59d16146101935780631959a002146101b15780632849e5f0146101e55780632a80cda3146102035780632e1a7d4d1461021f5780634e71d92d1461023b575b600080fd5b61019b61048d565b6040516101a89190612c40565b60405180910390f35b6101cb60048036038101906101c691906124a2565b610493565b6040516101dc959493929190612c5b565b60405180910390f35b6101ed6104d6565b6040516101fa9190612c40565b60405180910390f35b61021d60048036038101906102189190612529565b6104dc565b005b61023960048036038101906102349190612529565b6105f3565b005b6102436108ed565b005b61024d610aa6565b60405161025e959493929190612cae565b60405180910390f35b610281600480360381019061027c91906124a2565b610aca565b60405161028e9190612c25565b60405180910390f35b61029f610b99565b6040516102ac9190612c40565b60405180910390f35b6102bd610b9f565b6040516102ca9190612c40565b60405180910390f35b6102db610ba5565b005b6102f760048036038101906102f29190612529565b610c2d565b005b610313600480360381019061030e9190612529565b610d5e565b005b61031d610e7d565b005b610327610ed0565b604051610334919061292d565b60405180910390f35b610345610ef9565b6040516103529190612c40565b60405180910390f35b610363610eff565b6040516103709190612c40565b60405180910390f35b610393600480360381019061038e9190612529565b610f0c565b6040516103a09190612c25565b60405180910390f35b6103c360048036038101906103be9190612529565b610faf565b005b6103df60048036038101906103da9190612529565b6112e9565b005b6103fb60048036038101906103f69190612529565b611401565b005b610405611519565b60405161041291906129a8565b60405180910390f35b61043560048036038101906104309190612529565b61153f565b005b610451600480360381019061044c91906124fc565b611616565b005b61046d600480360381019061046891906124a2565b611830565b005b610477611928565b6040516104849190612c40565b60405180910390f35b61271081565b600c6020528060005260406000206000915090508060000154908060010154908060020154908060030154908060040160009054906101000a900460ff16905085565b60015481565b6104e461192e565b73ffffffffffffffffffffffffffffffffffffffff16610502610ed0565b73ffffffffffffffffffffffffffffffffffffffff1614610558576040517f08c379a000000000000000000000000000000000000000000000000000000000815260040161054f90612b45565b60405180910390fd5b6000811161059b576040517f08c379a000000000000000000000000000000000000000000000000000000000815260040161059290612a45565b60405180910390fd5b806005819055503373ffffffffffffffffffffffffffffffffffffffff167f13b7d95c2b89c1966f7583083e8dae1ca6e827f518c12d87cc681d2652f0554a826040516105e89190612c40565b60405180910390a250565b6000600c60003373ffffffffffffffffffffffffffffffffffffffff1673ffffffffffffffffffffffffffffffffffffffff1681526020019081526020016000209050600760040154816003015461064b9190612d33565b421161068c576040517f08c379a000000000000000000000000000000000000000000000000000000000815260040161068390612a05565b60405180910390fd5b600082116106cf576040517f08c379a00000000000000000000000000000000000000000000000000000000081526004016106c690612a65565b60405180910390fd5b8181600001541015610716576040517f08c379a000000000000000000000000000000000000000000000000000000000815260040161070d90612bc5565b60405180910390fd5b61071e611936565b6000610769826001015461075b64e8d4a5100061074d6007600101548760000154611a7890919063ffffffff16565b611a8e90919063ffffffff16565b611aa490919063ffffffff16565b905060008111156107945761078b818360020154611aba90919063ffffffff16565b82600201819055505b600083111561082b576107ea3384600260009054906101000a900473ffffffffffffffffffffffffffffffffffffffff1673ffffffffffffffffffffffffffffffffffffffff16611ad09092919063ffffffff16565b610801838360000154611aa490919063ffffffff16565b826000018190555061082183600760020154611aa490919063ffffffff16565b6007600201819055505b61085e64e8d4a510006108506007600101548560000154611a7890919063ffffffff16565b611a8e90919063ffffffff16565b82600101819055503373ffffffffffffffffffffffffffffffffffffffff167f884edad9ce6fa2440d8a54cc123490eb96d2768479d49ff9c7366125a9424364846040516108ac9190612c40565b60405180910390a26000826000015414156108e85760008260040160006101000a81548160ff0219169083151502179055506108e733611b56565b5b505050565b6000600c60003373ffffffffffffffffffffffffffffffffffffffff1673ffffffffffffffffffffffffffffffffffffffff1681526020019081526020016000209050610938611936565b6000610983826001015461097564e8d4a510006109676007600101548760000154611a7890919063ffffffff16565b611a8e90919063ffffffff16565b611aa490919063ffffffff16565b90506000811180610998575060008260020154115b15610a67576109b4818360020154611aba90919063ffffffff16565b826002018190555060006109cc338460020154611c88565b90503373ffffffffffffffffffffffffffffffffffffffff167f47cee97cb7acd717b3c0aa1435d004cd5b3c8c57d70dbceb4e4458bbd60e39d482604051610a149190612c40565b60405180910390a2610a33818460020154611aa490919063ffffffff16565b8360020181905550428360030181905550610a5c81600760030154611aa490919063ffffffff16565b600760030181905550505b610a9a64e8d4a51000610a8c6007600101548560000154611a7890919063ffffffff16565b611a8e90919063ffffffff16565b82600101819055505050565b60078060000154908060010154908060020154908060030154908060040154905085565b610ad261240a565b6000600c60008473ffffffffffffffffffffffffffffffffffffffff1673ffffffffffffffffffffffffffffffffffffffff1681526020019081526020016000209050610b1d61240a565b81600001548160000181815250506000816040018181525050600082600301541115610b62576007600401548260030154610b589190612d33565b8160400181815250505b600454816060018181525050600760020154816080018181525050610b8684611db1565b8160200181815250508092505050919050565b60055481565b60035481565b610bad61192e565b73ffffffffffffffffffffffffffffffffffffffff16610bcb610ed0565b73ffffffffffffffffffffffffffffffffffffffff1614610c21576040517f08c379a0000000000000000000000000000000000000000000000000000000008152600401610c1890612b45565b60405180910390fd5b610c2b6000611f56565b565b610c3561192e565b73ffffffffffffffffffffffffffffffffffffffff16610c53610ed0565b73ffffffffffffffffffffffffffffffffffffffff1614610ca9576040517f08c379a0000000000000000000000000000000000000000000000000000000008152600401610ca090612b45565b60405180910390fd5b600154600760040154148015610cc457506000600760000154145b610d03576040517f08c379a0000000000000000000000000000000000000000000000000000000008152600401610cfa90612b25565b60405180910390fd5b806007600001819055503373ffffffffffffffffffffffffffffffffffffffff167f5a10b5f49dd8fad36b4ab1cbca7032df7337fdc475a5616c796b654fe12eedac82604051610d539190612c40565b60405180910390a250565b610d6661192e565b73ffffffffffffffffffffffffffffffffffffffff16610d84610ed0565b73ffffffffffffffffffffffffffffffffffffffff1614610dda576040517f08c379a0000000000000000000000000000000000000000000000000000000008152600401610dd190612b45565b60405180910390fd5b60008111610e1d576040517f08c379a0000000000000000000000000000000000000000000000000000000008152600401610e1490612b85565b60405180910390fd5b610e25611936565b806004819055503373ffffffffffffffffffffffffffffffffffffffff167f61b3496552b7890ca02bbeeb6c4dff23525a6b0913e7f768acf2e9631ddd01ab82604051610e729190612c40565b60405180910390a250565b6000600c60003373ffffffffffffffffffffffffffffffffffffffff1673ffffffffffffffffffffffffffffffffffffffff1681526020019081526020016000209050610ecd81600001546105f3565b50565b60008060009054906101000a900473ffffffffffffffffffffffffffffffffffffffff16905090565b60065481565b6000600d80549050905090565b610f1461240a565b600d805490508210610f5b576040517f08c379a0000000000000000000000000000000000000000000000000000000008152600401610f52906129e5565b60405180910390fd5b6000600d8381548110610f7157610f70612fe1565b5b9060005260206000200160009054906101000a900473ffffffffffffffffffffffffffffffffffffffff169050610fa781610aca565b915050919050565b6000600c60003373ffffffffffffffffffffffffffffffffffffffff1673ffffffffffffffffffffffffffffffffffffffff168152602001908152602001600020905060008160000154836110049190612d33565b90506005548110158015611019575060065481105b611058576040517f08c379a000000000000000000000000000000000000000000000000000000000815260040161104f90612c05565b60405180910390fd5b611060611936565b6000826000015411156110e55760006110b883600101546110aa64e8d4a5100061109c6007600101548860000154611a7890919063ffffffff16565b611a8e90919063ffffffff16565b611aa490919063ffffffff16565b905060008111156110e3576110da818460020154611aba90919063ffffffff16565b83600201819055505b505b60008311156111bb5761113d333085600260009054906101000a900473ffffffffffffffffffffffffffffffffffffffff1673ffffffffffffffffffffffffffffffffffffffff1661201a909392919063ffffffff16565b61117861116961271061115b60035487611a7890919063ffffffff16565b611a8e90919063ffffffff16565b84611aa490919063ffffffff16565b9250611191838360000154611aba90919063ffffffff16565b82600001819055506111b183600760020154611aba90919063ffffffff16565b6007600201819055505b6111ee64e8d4a510006111e06007600101548560000154611a7890919063ffffffff16565b611a8e90919063ffffffff16565b82600101819055504282600301819055508160040160009054906101000a900460ff1661129657600d339080600181540180825580915050600190039060005260206000200160009091909190916101000a81548173ffffffffffffffffffffffffffffffffffffffff021916908373ffffffffffffffffffffffffffffffffffffffff16021790555060018260040160006101000a81548160ff0219169083151502179055505b3373ffffffffffffffffffffffffffffffffffffffff167fe1fffcc4923d04b559f4d29a8bfc6cda04eb5b0d3c460751c2402c5c5cc9109c846040516112dc9190612c40565b60405180910390a2505050565b6112f161192e565b73ffffffffffffffffffffffffffffffffffffffff1661130f610ed0565b73ffffffffffffffffffffffffffffffffffffffff1614611365576040517f08c379a000000000000000000000000000000000000000000000000000000000815260040161135c90612b45565b60405180910390fd5b60055481116113a9576040517f08c379a00000000000000000000000000000000000000000000000000000000081526004016113a090612ac5565b60405180910390fd5b806006819055503373ffffffffffffffffffffffffffffffffffffffff167f25d66f0e838c8e1017ffaf311263451e176896b7e84ea505abee24bd2f4c3c0d826040516113f69190612c40565b60405180910390a250565b61140961192e565b73ffffffffffffffffffffffffffffffffffffffff16611427610ed0565b73ffffffffffffffffffffffffffffffffffffffff161461147d576040517f08c379a000000000000000000000000000000000000000000000000000000000815260040161147490612b45565b60405180910390fd5b61271081106114c1576040517f08c379a00000000000000000000000000000000000000000000000000000000081526004016114b890612aa5565b60405180910390fd5b806003819055503373ffffffffffffffffffffffffffffffffffffffff167fabacf824c0f88c833727f78e9b00022eee6c1f83b95f28da112f6ce8f1f2feec8260405161150e9190612c40565b60405180910390a250565b600260009054906101000a900473ffffffffffffffffffffffffffffffffffffffff1681565b61154761192e565b73ffffffffffffffffffffffffffffffffffffffff16611565610ed0565b73ffffffffffffffffffffffffffffffffffffffff16146115bb576040517f08c379a00000000000000000000000000000000000000000000000000000000081526004016115b290612b45565b60405180910390fd5b806007600401819055503373ffffffffffffffffffffffffffffffffffffffff167fd8cc5b1c2d4ad57f42e2453f312f23733af92cf5a3c36e9ebad5e585bf961f078260405161160b9190612c40565b60405180910390a250565b61161e61192e565b73ffffffffffffffffffffffffffffffffffffffff1661163c610ed0565b73ffffffffffffffffffffffffffffffffffffffff1614611692576040517f08c379a000000000000000000000000000000000000000000000000000000000815260040161168990612b45565b60405180910390fd5b600073ffffffffffffffffffffffffffffffffffffffff168173ffffffffffffffffffffffffffffffffffffffff161415611702576040517f08c379a00000000000000000000000000000000000000000000000000000000081526004016116f990612ae5565b60405180910390fd5b600073ffffffffffffffffffffffffffffffffffffffff16600260009054906101000a900473ffffffffffffffffffffffffffffffffffffffff1673ffffffffffffffffffffffffffffffffffffffff1614611793576040517f08c379a000000000000000000000000000000000000000000000000000000000815260040161178a90612b05565b60405180910390fd5b80600260006101000a81548173ffffffffffffffffffffffffffffffffffffffff021916908373ffffffffffffffffffffffffffffffffffffffff1602179055506117df6001546120a3565b3373ffffffffffffffffffffffffffffffffffffffff167f7200b4b8e61a8ab0efdf64c461c668e5e9b0f5e0b5df68cccc5ac667ecd2421682604051611825919061292d565b60405180910390a250565b61183861192e565b73ffffffffffffffffffffffffffffffffffffffff16611856610ed0565b73ffffffffffffffffffffffffffffffffffffffff16146118ac576040517f08c379a00000000000000000000000000000000000000000000000000000000081526004016118a390612b45565b60405180910390fd5b600073ffffffffffffffffffffffffffffffffffffffff168173ffffffffffffffffffffffffffffffffffffffff16141561191c576040517f08c379a000000000000000000000000000000000000000000000000000000000815260040161191390612a25565b60405180910390fd5b61192581611f56565b50565b60045481565b600033905090565b600060076000015411801561195057506007600001544310155b61198f576040517f08c379a000000000000000000000000000000000000000000000000000000000815260040161198690612b65565b60405180910390fd5b60076000015443116119a057611a76565b60006007600201549050600060076002015414156119c8574360076000018190555050611a76565b60006119e260076000015443611aa490919063ffffffff16565b905060006119fb60045483611a7890919063ffffffff16565b9050611a1581600760030154611aba90919063ffffffff16565b600760030181905550611a5f611a4b84611a3d64e8d4a5100085611a7890919063ffffffff16565b611a8e90919063ffffffff16565b600760010154611aba90919063ffffffff16565b600760010181905550436007600001819055505050505b565b60008183611a869190612dba565b905092915050565b60008183611a9c9190612d89565b905092915050565b60008183611ab29190612e14565b905092915050565b60008183611ac89190612d33565b905092915050565b611b518363a9059cbb60e01b8484604051602401611aef92919061297f565b604051602081830303815290604052907bffffffffffffffffffffffffffffffffffffffffffffffffffffffff19166020820180517bffffffffffffffffffffffffffffffffffffffffffffffffffffffff8381831617835250505050612108565b505050565b6000611b61826121cf565b905060008190505b6001600d80549050611b7b9190612e14565b811015611c3c57600d600182611b919190612d33565b81548110611ba257611ba1612fe1565b5b9060005260206000200160009054906101000a900473ffffffffffffffffffffffffffffffffffffffff16600d8281548110611be157611be0612fe1565b5b9060005260206000200160006101000a81548173ffffffffffffffffffffffffffffffffffffffff021916908373ffffffffffffffffffffffffffffffffffffffff1602179055508080611c3490612f0b565b915050611b69565b50600d805480611c4f57611c4e612fb2565b5b6001900381819060005260206000200160006101000a81549073ffffffffffffffffffffffffffffffffffffffff021916905590555050565b600080600260009054906101000a900473ffffffffffffffffffffffffffffffffffffffff1673ffffffffffffffffffffffffffffffffffffffff166370a08231306040518263ffffffff1660e01b8152600401611ce6919061292d565b60206040518083038186803b158015611cfe57600080fd5b505afa158015611d12573d6000803e3d6000fd5b505050506040513d601f19601f82011682018060405250810190611d369190612556565b9050600760030154831115611d4e5760076003015492505b80831115611d5a578092505b611da78484600260009054906101000a900473ffffffffffffffffffffffffffffffffffffffff1673ffffffffffffffffffffffffffffffffffffffff16611ad09092919063ffffffff16565b8291505092915050565b600080600760000154118015611dcc57506007600001544310155b611e0b576040517f08c379a0000000000000000000000000000000000000000000000000000000008152600401611e0290612b65565b60405180910390fd5b6000600c60008473ffffffffffffffffffffffffffffffffffffffff1673ffffffffffffffffffffffffffffffffffffffff1681526020019081526020016000209050600060076001015490506000600760020154905060076000015443118015611e77575060008114155b15611ef2576000611e9660076000015443611aa490919063ffffffff16565b90506000611eaf60045483611a7890919063ffffffff16565b9050611eed611ede84611ed064e8d4a5100085611a7890919063ffffffff16565b611a8e90919063ffffffff16565b85611aba90919063ffffffff16565b935050505b611f4c8360020154611f3e8560010154611f3064e8d4a51000611f22888a60000154611a7890919063ffffffff16565b611a8e90919063ffffffff16565b611aa490919063ffffffff16565b611aba90919063ffffffff16565b9350505050919050565b60008060009054906101000a900473ffffffffffffffffffffffffffffffffffffffff169050816000806101000a81548173ffffffffffffffffffffffffffffffffffffffff021916908373ffffffffffffffffffffffffffffffffffffffff1602179055508173ffffffffffffffffffffffffffffffffffffffff168173ffffffffffffffffffffffffffffffffffffffff167f8be0079c531659141344cd1fd0a4f28419497f9722a3daafe3b4186f6b6457e060405160405180910390a35050565b61209d846323b872dd60e01b85858560405160240161203b93929190612948565b604051602081830303815290604052907bffffffffffffffffffffffffffffffffffffffffffffffffffffffff19166020820180517bffffffffffffffffffffffffffffffffffffffffffffffffffffffff8381831617835250505050612108565b50505050565b6040518060a0016040528060008152602001600081526020016000815260200160008152602001828152506007600082015181600001556020820151816001015560408201518160020155606082015181600301556080820151816004015590505050565b600061216a826040518060400160405280602081526020017f5361666545524332303a206c6f772d6c6576656c2063616c6c206661696c65648152508573ffffffffffffffffffffffffffffffffffffffff166122649092919063ffffffff16565b90506000815111156121ca578080602001905181019061218a91906124cf565b6121c9576040517f08c379a00000000000000000000000000000000000000000000000000000000081526004016121c090612be5565b60405180910390fd5b5b505050565b600080600090505b8273ffffffffffffffffffffffffffffffffffffffff16600d828154811061220257612201612fe1565b5b9060005260206000200160009054906101000a900473ffffffffffffffffffffffffffffffffffffffff1673ffffffffffffffffffffffffffffffffffffffff161461225b57808061225390612f0b565b9150506121d7565b80915050919050565b6060612273848460008561227c565b90509392505050565b6060824710156122c1576040517f08c379a00000000000000000000000000000000000000000000000000000000081526004016122b890612a85565b60405180910390fd5b6122ca85612390565b612309576040517f08c379a000000000000000000000000000000000000000000000000000000000815260040161230090612ba5565b60405180910390fd5b6000808673ffffffffffffffffffffffffffffffffffffffff1685876040516123329190612916565b60006040518083038185875af1925050503d806000811461236f576040519150601f19603f3d011682016040523d82523d6000602084013e612374565b606091505b50915091506123848282866123a3565b92505050949350505050565b600080823b905060008111915050919050565b606083156123b357829050612403565b6000835111156123c65782518084602001fd5b816040517f08c379a00000000000000000000000000000000000000000000000000000000081526004016123fa91906129c3565b60405180910390fd5b9392505050565b6040518060a0016040528060008152602001600081526020016000815260200160008152602001600081525090565b60008135905061244881613412565b92915050565b60008151905061245d81613429565b92915050565b60008135905061247281613440565b92915050565b60008135905061248781613457565b92915050565b60008151905061249c81613457565b92915050565b6000602082840312156124b8576124b7613010565b5b60006124c684828501612439565b91505092915050565b6000602082840312156124e5576124e4613010565b5b60006124f38482850161244e565b91505092915050565b60006020828403121561251257612511613010565b5b600061252084828501612463565b91505092915050565b60006020828403121561253f5761253e613010565b5b600061254d84828501612478565b91505092915050565b60006020828403121561256c5761256b613010565b5b600061257a8482850161248d565b91505092915050565b61258c81612e48565b82525050565b61259b81612e5a565b82525050565b60006125ac82612d01565b6125b68185612d17565b93506125c6818560208601612ed8565b80840191505092915050565b6125db81612ea2565b82525050565b60006125ec82612d0c565b6125f68185612d22565b9350612606818560208601612ed8565b61260f81613015565b840191505092915050565b6000612627602f83612d22565b915061263282613026565b604082019050919050565b600061264a601883612d22565b915061265582613075565b602082019050919050565b600061266d602683612d22565b91506126788261309e565b604082019050919050565b6000612690600d83612d22565b915061269b826130ed565b602082019050919050565b60006126b3602683612d22565b91506126be82613116565b604082019050919050565b60006126d6602683612d22565b91506126e182613165565b604082019050919050565b60006126f9600b83612d22565b9150612704826131b4565b602082019050919050565b600061271c603483612d22565b9150612727826131dd565b604082019050919050565b600061273f601b83612d22565b915061274a8261322c565b602082019050919050565b6000612762601283612d22565b915061276d82613255565b602082019050919050565b6000612785601783612d22565b91506127908261327e565b602082019050919050565b60006127a8602083612d22565b91506127b3826132a7565b602082019050919050565b60006127cb601783612d22565b91506127d6826132d0565b602082019050919050565b60006127ee602983612d22565b91506127f9826132f9565b604082019050919050565b6000612811601d83612d22565b915061281c82613348565b602082019050919050565b6000612834601f83612d22565b915061283f82613371565b602082019050919050565b6000612857602a83612d22565b91506128628261339a565b604082019050919050565b600061287a601683612d22565b9150612885826133e9565b602082019050919050565b60a0820160008201516128a660008501826128f8565b5060208201516128b960208501826128f8565b5060408201516128cc60408501826128f8565b5060608201516128df60608501826128f8565b5060808201516128f260808501826128f8565b50505050565b61290181612e98565b82525050565b61291081612e98565b82525050565b600061292282846125a1565b915081905092915050565b60006020820190506129426000830184612583565b92915050565b600060608201905061295d6000830186612583565b61296a6020830185612583565b6129776040830184612907565b949350505050565b60006040820190506129946000830185612583565b6129a16020830184612907565b9392505050565b60006020820190506129bd60008301846125d2565b92915050565b600060208201905081810360008301526129dd81846125e1565b905092915050565b600060208201905081810360008301526129fe8161261a565b9050919050565b60006020820190508181036000830152612a1e8161263d565b9050919050565b60006020820190508181036000830152612a3e81612660565b9050919050565b60006020820190508181036000830152612a5e81612683565b9050919050565b60006020820190508181036000830152612a7e816126a6565b9050919050565b60006020820190508181036000830152612a9e816126c9565b9050919050565b60006020820190508181036000830152612abe816126ec565b9050919050565b60006020820190508181036000830152612ade8161270f565b9050919050565b60006020820190508181036000830152612afe81612732565b9050919050565b60006020820190508181036000830152612b1e81612755565b9050919050565b60006020820190508181036000830152612b3e81612778565b9050919050565b60006020820190508181036000830152612b5e8161279b565b9050919050565b60006020820190508181036000830152612b7e816127be565b9050919050565b60006020820190508181036000830152612b9e816127e1565b9050919050565b60006020820190508181036000830152612bbe81612804565b9050919050565b60006020820190508181036000830152612bde81612827565b9050919050565b60006020820190508181036000830152612bfe8161284a565b9050919050565b60006020820190508181036000830152612c1e8161286d565b9050919050565b600060a082019050612c3a6000830184612890565b92915050565b6000602082019050612c556000830184612907565b92915050565b600060a082019050612c706000830188612907565b612c7d6020830187612907565b612c8a6040830186612907565b612c976060830185612907565b612ca46080830184612592565b9695505050505050565b600060a082019050612cc36000830188612907565b612cd06020830187612907565b612cdd6040830186612907565b612cea6060830185612907565b612cf76080830184612907565b9695505050505050565b600081519050919050565b600081519050919050565b600081905092915050565b600082825260208201905092915050565b6000612d3e82612e98565b9150612d4983612e98565b9250827fffffffffffffffffffffffffffffffffffffffffffffffffffffffffffffffff03821115612d7e57612d7d612f54565b5b828201905092915050565b6000612d9482612e98565b9150612d9f83612e98565b925082612daf57612dae612f83565b5b828204905092915050565b6000612dc582612e98565b9150612dd083612e98565b9250817fffffffffffffffffffffffffffffffffffffffffffffffffffffffffffffffff0483118215151615612e0957612e08612f54565b5b828202905092915050565b6000612e1f82612e98565b9150612e2a83612e98565b925082821015612e3d57612e3c612f54565b5b828203905092915050565b6000612e5382612e78565b9050919050565b60008115159050919050565b6000612e7182612e48565b9050919050565b600073ffffffffffffffffffffffffffffffffffffffff82169050919050565b6000819050919050565b6000612ead82612eb4565b9050919050565b6000612ebf82612ec6565b9050919050565b6000612ed182612e78565b9050919050565b60005b83811015612ef6578082015181840152602081019050612edb565b83811115612f05576000848401525b50505050565b6000612f1682612e98565b91507fffffffffffffffffffffffffffffffffffffffffffffffffffffffffffffffff821415612f4957612f48612f54565b5b600182019050919050565b7f4e487b7100000000000000000000000000000000000000000000000000000000600052601160045260246000fd5b7f4e487b7100000000000000000000000000000000000000000000000000000000600052601260045260246000fd5b7f4e487b7100000000000000000000000000000000000000000000000000000000600052603160045260246000fd5b7f4e487b7100000000000000000000000000000000000000000000000000000000600052603260045260246000fd5b600080fd5b6000601f19601f8301169050919050565b7f54686520706f736974696f6e206973206e6f74206c657373207468616e20746860008201527f652073697a65206f662075736572730000000000000000000000000000000000602082015250565b7f596f752063616e6e6f7420776974686472617720796574210000000000000000600082015250565b7f4f776e61626c653a206e6577206f776e657220697320746865207a65726f206160008201527f6464726573730000000000000000000000000000000000000000000000000000602082015250565b7f696e76616c69642076616c756500000000000000000000000000000000000000600082015250565b7f54686520616d6f756e7420746f2077697468647261772063616e6e6f7420626560008201527f207a65726f210000000000000000000000000000000000000000000000000000602082015250565b7f416464726573733a20696e73756666696369656e742062616c616e636520666f60008201527f722063616c6c0000000000000000000000000000000000000000000000000000602082015250565b7f696e76616c696420666565000000000000000000000000000000000000000000600082015250565b7f696e76616c69642076616c75652c2073686f756c64206265206772656174657260008201527f207468616e206d696e696e756d20616d6f756e74000000000000000000000000602082015250565b7f546f6b656e20616464726573732063616e2774206265207a65726f0000000000600082015250565b7f546f6b656e20616c726561647920736574210000000000000000000000000000600082015250565b7f5374616b696e6720616c72656164792073746172746564000000000000000000600082015250565b7f4f776e61626c653a2063616c6c6572206973206e6f7420746865206f776e6572600082015250565b7f5374616b696e67206e6f74207965742073746172746564000000000000000000600082015250565b7f45554c45522070657220626c6f636b2073686f756c642062652067726561746560008201527f72207468616e2030210000000000000000000000000000000000000000000000602082015250565b7f416464726573733a2063616c6c20746f206e6f6e2d636f6e7472616374000000600082015250565b7f5769746864726177696e67206d6f7265207468616e20796f7520686176652100600082015250565b7f5361666545524332303a204552433230206f7065726174696f6e20646964206e60008201527f6f74207375636365656400000000000000000000000000000000000000000000602082015250565b7f696e76616c6964206465706f73697420616d6f756e7400000000000000000000600082015250565b61341b81612e48565b811461342657600080fd5b50565b61343281612e5a565b811461343d57600080fd5b50565b61344981612e66565b811461345457600080fd5b50565b61346081612e98565b811461346b57600080fd5b5056fea264697066735822122056e4fd430b7be5ec5a5c0eb84312bffcda2f5d693bfc31d76a02cc33c810744c64736f6c63430008070033",
  "immutableReferences": {},
  "source": "//SPDX-License-Identifier: Unlicense\npragma solidity 0.8.7;\n\nimport \"@openzeppelin/contracts/access/Ownable.sol\";\nimport \"@openzeppelin/contracts/token/ERC20/utils/SafeERC20.sol\";\nimport \"@openzeppelin/contracts/utils/math/SafeMath.sol\";\n\ncontract EulerStaking is Ownable {\n  using SafeMath for uint256;\n  using SafeERC20 for IERC20;\n\n  struct UserInfo {\n    uint256 amount;\n    uint256 rewardDebt;\n    uint256 pendingRewards;\n    uint256 lastClaim;\n    bool exists;\n  }\n\n  struct GetUserInfo {\n    uint256 amount;\n    uint256 pendingRewards;\n    uint256 withdrawAvaliable;\n    uint256 eulerPerBlock;\n    uint256 tvl;\n  }\n\n  struct PoolInfo {\n    uint256 lastRewardBlock;\n    uint256 accEulerPerShare;\n    uint256 depositedAmount;\n    uint256 rewardsAmount;\n    uint256 lockupDuration;\n  }\n\n  uint256 public initialLockupDuration = 30 days;\n  uint256 public constant maxFee = 10000;\n\n  IERC20 public euler;\n  uint256 public eulerTxFee = 100;\n  uint256 public eulerPerBlock = uint256(1 ether);\n  uint256 public minDepositAmount = 0;\n  uint256 public maxDepositAmount = type(uint256).max;\n\n  PoolInfo public poolInfo;\n  mapping(address => UserInfo) public userInfo;\n  address[] private users;\n\n  event Deposit(address indexed user, uint256 amount);\n  event Withdraw(address indexed user, uint256 amount);\n  event Claim(address indexed user, uint256 amount);\n  event SetEulerPerBlock(address indexed user, uint256 newEulerPerBlock);\n  event SetMinDepositAmount(address indexed user, uint256 newMinDepositAmount);\n  event SetMaxDepositAmount(address indexed user, uint256 newMaxDepositAmount);\n  event SetEulerTxFee(address indexed user, uint256 newEulerTxFee);\n  event SetLockupDuration(address indexed user, uint256 newLockupDuration);\n  event StartStaking(address indexed user, uint256 startBlock);\n  event SetEulerToken(address indexed user,address token);\n\n  function addPool(uint256 _lockupDuration) internal {\n    poolInfo = PoolInfo({\n        lastRewardBlock: 0,\n        accEulerPerShare: 0,\n        depositedAmount: 0,\n        rewardsAmount: 0,\n        lockupDuration: _lockupDuration\n    });\n  }\n\n  function setEulerToken(IERC20 _euler) external onlyOwner {\n    require(address(_euler) != address(0), \"Token address can't be zero\");\n    require(address(euler) == address(0), \"Token already set!\");\n    euler = _euler;\n    addPool(initialLockupDuration);\n    emit SetEulerToken(msg.sender, address(_euler));\n  }\n\n  function startStaking(uint256 startBlock) external onlyOwner {\n    require(\n        poolInfo.lockupDuration == initialLockupDuration && poolInfo.lastRewardBlock == 0,\n        \"Staking already started\"\n    );\n\n    poolInfo.lastRewardBlock = startBlock;\n    emit StartStaking(msg.sender, startBlock);\n  }\n\n  function setLockupDuration(uint256 _lockupDuration) external onlyOwner {\n    poolInfo.lockupDuration = _lockupDuration;\n    emit SetLockupDuration(msg.sender, _lockupDuration);\n  }\n\n  function setEulerPerBlock(uint256 _eulerPerBlock) external onlyOwner {\n    require(_eulerPerBlock > 0, \"EULER per block should be greater than 0!\");\n\n    updatePool();\n    eulerPerBlock = _eulerPerBlock;\n    emit SetEulerPerBlock(msg.sender, _eulerPerBlock);\n  }\n\n  function setMinDepositAmount(uint256 _amount) external onlyOwner {\n    require(_amount > 0, \"invalid value\");\n\n    minDepositAmount = _amount;\n    emit SetMinDepositAmount(msg.sender, _amount);\n  }\n\n  function setMaxDepositAmount(uint256 _amount) external onlyOwner {\n    require(\n      _amount > minDepositAmount,\n      \"invalid value, should be greater than mininum amount\"\n    );\n\n    maxDepositAmount = _amount;\n    emit SetMaxDepositAmount(msg.sender, _amount);\n  }\n\n  function setEulerTxFee(uint256 _fee) external onlyOwner {\n    require(_fee < 10000, \"invalid fee\");\n\n    eulerTxFee = _fee;\n    emit SetEulerTxFee(msg.sender, _fee);\n  }\n\n  function pendingRewards(address _user) private view returns (uint256) {\n    require(\n      poolInfo.lastRewardBlock > 0 &&\n        block.number >= poolInfo.lastRewardBlock,\n      \"Staking not yet started\"\n    );\n    UserInfo storage user = userInfo[_user];\n    uint256 accEulerPerShare = poolInfo.accEulerPerShare;\n    uint256 depositedAmount = poolInfo.depositedAmount;\n    if (block.number > poolInfo.lastRewardBlock && depositedAmount != 0) {\n\n      uint256 multiplier = block.number.sub(poolInfo.lastRewardBlock);\n      uint256 eulerReward = multiplier.mul(eulerPerBlock);\n\n      accEulerPerShare = accEulerPerShare.add(\n        eulerReward.mul(1e12).div(depositedAmount)\n      );\n    }\n    return\n      user.amount.mul(accEulerPerShare).div(1e12).sub(user.rewardDebt).add(\n        user.pendingRewards\n      );\n  }\n\n  function getUserInfo(address _user)\n    public\n    view\n    returns (GetUserInfo memory) {\n\n        UserInfo storage user = userInfo[_user];\n\n        GetUserInfo memory userAux;\n\n        userAux.amount = user.amount;\n\n        userAux.withdrawAvaliable = 0;\n\n        if(user.lastClaim > 0) {\n\n            userAux.withdrawAvaliable = user.lastClaim + poolInfo.lockupDuration;\n        }\n\n        userAux.eulerPerBlock = eulerPerBlock;\n\n        userAux.tvl = poolInfo.depositedAmount;\n\n        userAux.pendingRewards = pendingRewards(_user);\n\n        return userAux;\n  }\n\n  function getTotalUsers() external view\n    returns (uint256) {\n\n    return users.length;\n  }\n\n  function getUserInfoByPosition(uint256 position) external view\n    returns (GetUserInfo memory) {\n\n        require(position < users.length, 'The position is not less than the size of users');\n\n        address user = users[position];\n\n        return getUserInfo(user);\n  }\n\n  function updatePool() internal {\n    require(\n      poolInfo.lastRewardBlock > 0 &&\n        block.number >= poolInfo.lastRewardBlock,\n      \"Staking not yet started\"\n    );\n\n    if (block.number <= poolInfo.lastRewardBlock) {\n      return;\n    }\n    uint256 depositedAmount = poolInfo.depositedAmount;\n    if (poolInfo.depositedAmount == 0) {\n      poolInfo.lastRewardBlock = block.number;\n      return;\n    }\n    uint256 multiplier = block.number.sub(poolInfo.lastRewardBlock);\n    uint256 eulerReward = multiplier.mul(eulerPerBlock);\n\n    poolInfo.rewardsAmount = poolInfo.rewardsAmount.add(eulerReward);\n    poolInfo.accEulerPerShare = poolInfo.accEulerPerShare.add(\n      eulerReward.mul(1e12).div(depositedAmount)\n    );\n    poolInfo.lastRewardBlock = block.number;\n  }\n\n  function deposit(uint256 amount) external {\n\n    UserInfo storage user = userInfo[msg.sender];\n\n    uint256 sumAmount = amount + user.amount;\n\n    require(\n      sumAmount >= minDepositAmount && sumAmount < maxDepositAmount,\n      \"invalid deposit amount\"\n    );\n\n    updatePool();\n    if (user.amount > 0) {\n      uint256 pending = user.amount.mul(poolInfo.accEulerPerShare).div(1e12).sub(\n        user.rewardDebt\n      );\n      if (pending > 0) {\n        user.pendingRewards = user.pendingRewards.add(pending);\n      }\n    }\n    if (amount > 0) {\n      euler.safeTransferFrom(address(msg.sender), address(this), amount);\n      // Lost 1% fee from transaction\n      amount = amount.sub(amount.mul(eulerTxFee).div(maxFee));\n      user.amount = user.amount.add(amount);\n      poolInfo.depositedAmount = poolInfo.depositedAmount.add(amount);\n    }\n    user.rewardDebt = user.amount.mul(poolInfo.accEulerPerShare).div(1e12);\n    user.lastClaim = block.timestamp;\n\n    if(!user.exists) {\n        users.push(msg.sender);\n        user.exists = true;\n    }\n\n    emit Deposit(msg.sender, amount);\n  }\n\n  function withdraw(uint256 amount) public {\n    UserInfo storage user = userInfo[msg.sender];\n    require(\n      block.timestamp > user.lastClaim + poolInfo.lockupDuration,\n      \"You cannot withdraw yet!\"\n    );\n    require(amount > 0, \"The amount to withdraw cannot be zero!\");\n    require(user.amount >= amount, \"Withdrawing more than you have!\");\n    updatePool();\n    uint256 pending = user.amount.mul(poolInfo.accEulerPerShare).div(1e12).sub(\n      user.rewardDebt\n    );\n    if (pending > 0) {\n      user.pendingRewards = user.pendingRewards.add(pending);\n    }\n    if (amount > 0) {\n      euler.safeTransfer(address(msg.sender), amount);\n      user.amount = user.amount.sub(amount);\n      poolInfo.depositedAmount = poolInfo.depositedAmount.sub(amount);\n    }\n    user.rewardDebt = user.amount.mul(poolInfo.accEulerPerShare).div(1e12);\n    emit Withdraw(msg.sender, amount);\n\n    if(user.amount == 0) {\n\n        user.exists = false;\n\n        removeUser(msg.sender);\n    }\n  }\n\n  function withdrawAll() external {\n    UserInfo storage user = userInfo[msg.sender];\n\n    withdraw(user.amount);\n  }\n\n  function claim() external {\n    UserInfo storage user = userInfo[msg.sender];\n    updatePool();\n    uint256 pending = user.amount.mul(poolInfo.accEulerPerShare).div(1e12).sub(\n      user.rewardDebt\n    );\n    if (pending > 0 || user.pendingRewards > 0) {\n      user.pendingRewards = user.pendingRewards.add(pending);\n      uint256 claimedAmount = safeEulerTransfer(\n        msg.sender,\n        user.pendingRewards\n      );\n      emit Claim(msg.sender, claimedAmount);\n      user.pendingRewards = user.pendingRewards.sub(claimedAmount);\n      user.lastClaim = block.timestamp;\n      poolInfo.rewardsAmount = poolInfo.rewardsAmount.sub(claimedAmount);\n    }\n    user.rewardDebt = user.amount.mul(poolInfo.accEulerPerShare).div(1e12);\n  }\n\n  function removeUser(address user) internal {\n\n    uint index = find(user);\n\n    for (uint i = index; i < users.length - 1; i++) {\n\n        users[i] = users[i + 1];\n    }\n\n    users.pop();\n  }\n\n  function find(address user) internal view returns(uint)  {\n\n    uint i = 0;\n\n    while (users[i] != user) i++;\n\n    return i;\n  }\n\n  function safeEulerTransfer(\n    address to,\n    uint256 amount\n  ) internal returns (uint256) {\n    uint256 _bal = euler.balanceOf(address(this));\n    if (amount > poolInfo.rewardsAmount) amount = poolInfo.rewardsAmount;\n    if (amount > _bal) amount = _bal;\n    euler.safeTransfer(to, amount);\n    return amount;\n  }\n}\n",
  "sourcePath": "/home/asilva/Entorno/euler/contracts/contracts/EulerStaking.sol",
  "compiler": {
    "name": "solc",
    "version": "0.8.7+commit.e28d00a7.Emscripten.clang"
  },
  "schemaVersion": "3.4.3",
  "updatedAt": "2021-09-09T20:42:53.122Z",
  "networkType": "ethereum",
  "devdoc": {
    "kind": "dev",
    "methods": {
      "owner()": {
        "details": "Returns the address of the current owner."
      },
      "renounceOwnership()": {
        "details": "Leaves the contract without owner. It will not be possible to call `onlyOwner` functions anymore. Can only be called by the current owner. NOTE: Renouncing ownership will leave the contract without an owner, thereby removing any functionality that is only available to the owner."
      },
      "transferOwnership(address)": {
        "details": "Transfers ownership of the contract to a new account (`newOwner`). Can only be called by the current owner."
      }
    },
    "version": 1
  },
  "userdoc": {
    "kind": "user",
    "methods": {},
    "version": 1
  }
}