{
  "contractName": "EulerStaking",
  "abi": [
    {
      "anonymous": false,
      "inputs": [
        {
          "indexed": true,
          "internalType": "address",
          "name": "user",
          "type": "address"
        },
        {
          "indexed": false,
          "internalType": "uint256",
          "name": "amount",
          "type": "uint256"
        }
      ],
      "name": "Claim",
      "type": "event"
    },
    {
      "anonymous": false,
      "inputs": [
        {
          "indexed": true,
          "internalType": "address",
          "name": "user",
          "type": "address"
        },
        {
          "indexed": false,
          "internalType": "uint256",
          "name": "amount",
          "type": "uint256"
        }
      ],
      "name": "Deposit",
      "type": "event"
    },
    {
      "anonymous": false,
      "inputs": [
        {
          "indexed": true,
          "internalType": "address",
          "name": "previousOwner",
          "type": "address"
        },
        {
          "indexed": true,
          "internalType": "address",
          "name": "newOwner",
          "type": "address"
        }
      ],
      "name": "OwnershipTransferred",
      "type": "event"
    },
    {
      "anonymous": false,
      "inputs": [
        {
          "indexed": true,
          "internalType": "address",
          "name": "user",
          "type": "address"
        },
        {
          "indexed": false,
          "internalType": "uint256",
          "name": "newEulerPerBlock",
          "type": "uint256"
        }
      ],
      "name": "SetEulerPerBlock",
      "type": "event"
    },
    {
      "anonymous": false,
      "inputs": [
        {
          "indexed": true,
          "internalType": "address",
          "name": "user",
          "type": "address"
        },
        {
          "indexed": false,
          "internalType": "address",
          "name": "token",
          "type": "address"
        }
      ],
      "name": "SetEulerToken",
      "type": "event"
    },
    {
      "anonymous": false,
      "inputs": [
        {
          "indexed": true,
          "internalType": "address",
          "name": "user",
          "type": "address"
        },
        {
          "indexed": false,
          "internalType": "uint256",
          "name": "newEulerTxFee",
          "type": "uint256"
        }
      ],
      "name": "SetEulerTxFee",
      "type": "event"
    },
    {
      "anonymous": false,
      "inputs": [
        {
          "indexed": true,
          "internalType": "address",
          "name": "user",
          "type": "address"
        },
        {
          "indexed": false,
          "internalType": "uint256",
          "name": "newLockupDuration",
          "type": "uint256"
        }
      ],
      "name": "SetLockupDuration",
      "type": "event"
    },
    {
      "anonymous": false,
      "inputs": [
        {
          "indexed": true,
          "internalType": "address",
          "name": "user",
          "type": "address"
        },
        {
          "indexed": false,
          "internalType": "uint256",
          "name": "newMaxDepositAmount",
          "type": "uint256"
        }
      ],
      "name": "SetMaxDepositAmount",
      "type": "event"
    },
    {
      "anonymous": false,
      "inputs": [
        {
          "indexed": true,
          "internalType": "address",
          "name": "user",
          "type": "address"
        },
        {
          "indexed": false,
          "internalType": "uint256",
          "name": "newMinDepositAmount",
          "type": "uint256"
        }
      ],
      "name": "SetMinDepositAmount",
      "type": "event"
    },
    {
      "anonymous": false,
      "inputs": [
        {
          "indexed": true,
          "internalType": "address",
          "name": "user",
          "type": "address"
        },
        {
          "indexed": false,
          "internalType": "uint256",
          "name": "startBlock",
          "type": "uint256"
        }
      ],
      "name": "StartStaking",
      "type": "event"
    },
    {
      "anonymous": false,
      "inputs": [
        {
          "indexed": true,
          "internalType": "address",
          "name": "user",
          "type": "address"
        },
        {
          "indexed": false,
          "internalType": "uint256",
          "name": "amount",
          "type": "uint256"
        }
      ],
      "name": "Withdraw",
      "type": "event"
    },
    {
      "inputs": [],
      "name": "euler",
      "outputs": [
        {
          "internalType": "contract IERC20",
          "name": "",
          "type": "address"
        }
      ],
      "stateMutability": "view",
      "type": "function",
      "constant": true
    },
    {
      "inputs": [],
      "name": "eulerPerBlock",
      "outputs": [
        {
          "internalType": "uint256",
          "name": "",
          "type": "uint256"
        }
      ],
      "stateMutability": "view",
      "type": "function",
      "constant": true
    },
    {
      "inputs": [],
      "name": "eulerTxFee",
      "outputs": [
        {
          "internalType": "uint256",
          "name": "",
          "type": "uint256"
        }
      ],
      "stateMutability": "view",
      "type": "function",
      "constant": true
    },
    {
      "inputs": [],
      "name": "maxDepositAmount",
      "outputs": [
        {
          "internalType": "uint256",
          "name": "",
          "type": "uint256"
        }
      ],
      "stateMutability": "view",
      "type": "function",
      "constant": true
    },
    {
      "inputs": [],
      "name": "maxFee",
      "outputs": [
        {
          "internalType": "uint256",
          "name": "",
          "type": "uint256"
        }
      ],
      "stateMutability": "view",
      "type": "function",
      "constant": true
    },
    {
      "inputs": [],
      "name": "minDepositAmount",
      "outputs": [
        {
          "internalType": "uint256",
          "name": "",
          "type": "uint256"
        }
      ],
      "stateMutability": "view",
      "type": "function",
      "constant": true
    },
    {
      "inputs": [],
      "name": "owner",
      "outputs": [
        {
          "internalType": "address",
          "name": "",
          "type": "address"
        }
      ],
      "stateMutability": "view",
      "type": "function",
      "constant": true
    },
    {
      "inputs": [],
      "name": "poolInfo",
      "outputs": [
        {
          "internalType": "uint256",
          "name": "lastRewardBlock",
          "type": "uint256"
        },
        {
          "internalType": "uint256",
          "name": "accEulerPerShare",
          "type": "uint256"
        },
        {
          "internalType": "uint256",
          "name": "depositedAmount",
          "type": "uint256"
        },
        {
          "internalType": "uint256",
          "name": "rewardsAmount",
          "type": "uint256"
        },
        {
          "internalType": "uint256",
          "name": "lockupDuration",
          "type": "uint256"
        }
      ],
      "stateMutability": "view",
      "type": "function",
      "constant": true
    },
    {
      "inputs": [],
      "name": "renounceOwnership",
      "outputs": [],
      "stateMutability": "nonpayable",
      "type": "function"
    },
    {
      "inputs": [
        {
          "internalType": "address",
          "name": "newOwner",
          "type": "address"
        }
      ],
      "name": "transferOwnership",
      "outputs": [],
      "stateMutability": "nonpayable",
      "type": "function"
    },
    {
      "inputs": [
        {
          "internalType": "address",
          "name": "",
          "type": "address"
        }
      ],
      "name": "userInfo",
      "outputs": [
        {
          "internalType": "uint256",
          "name": "amount",
          "type": "uint256"
        },
        {
          "internalType": "uint256",
          "name": "rewardDebt",
          "type": "uint256"
        },
        {
          "internalType": "uint256",
          "name": "pendingRewards",
          "type": "uint256"
        },
        {
          "internalType": "uint256",
          "name": "lastClaim",
          "type": "uint256"
        },
        {
          "internalType": "bool",
          "name": "exists",
          "type": "bool"
        }
      ],
      "stateMutability": "view",
      "type": "function",
      "constant": true
    },
    {
      "inputs": [
        {
          "internalType": "contract IERC20",
          "name": "_euler",
          "type": "address"
        }
      ],
      "name": "setEulerToken",
      "outputs": [],
      "stateMutability": "nonpayable",
      "type": "function"
    },
    {
      "inputs": [
        {
          "internalType": "uint256",
          "name": "startBlock",
          "type": "uint256"
        }
      ],
      "name": "startStaking",
      "outputs": [],
      "stateMutability": "nonpayable",
      "type": "function"
    },
    {
      "inputs": [
        {
          "internalType": "uint256",
          "name": "_lockupDuration",
          "type": "uint256"
        }
      ],
      "name": "setLockupDuration",
      "outputs": [],
      "stateMutability": "nonpayable",
      "type": "function"
    },
    {
      "inputs": [
        {
          "internalType": "uint256",
          "name": "_eulerPerBlock",
          "type": "uint256"
        }
      ],
      "name": "setEulerPerBlock",
      "outputs": [],
      "stateMutability": "nonpayable",
      "type": "function"
    },
    {
      "inputs": [
        {
          "internalType": "uint256",
          "name": "_amount",
          "type": "uint256"
        }
      ],
      "name": "setMinDepositAmount",
      "outputs": [],
      "stateMutability": "nonpayable",
      "type": "function"
    },
    {
      "inputs": [
        {
          "internalType": "uint256",
          "name": "_amount",
          "type": "uint256"
        }
      ],
      "name": "setMaxDepositAmount",
      "outputs": [],
      "stateMutability": "nonpayable",
      "type": "function"
    },
    {
      "inputs": [
        {
          "internalType": "uint256",
          "name": "_fee",
          "type": "uint256"
        }
      ],
      "name": "setEulerTxFee",
      "outputs": [],
      "stateMutability": "nonpayable",
      "type": "function"
    },
    {
      "inputs": [
        {
          "internalType": "address",
          "name": "_user",
          "type": "address"
        }
      ],
      "name": "getUserInfo",
      "outputs": [
        {
          "components": [
            {
              "internalType": "uint256",
              "name": "amount",
              "type": "uint256"
            },
            {
              "internalType": "uint256",
              "name": "pendingRewards",
              "type": "uint256"
            },
            {
              "internalType": "uint256",
              "name": "withdrawAvaliable",
              "type": "uint256"
            },
            {
              "internalType": "uint256",
              "name": "eulerPerBlock",
              "type": "uint256"
            },
            {
              "internalType": "uint256",
              "name": "tvl",
              "type": "uint256"
            }
          ],
          "internalType": "struct EulerStaking.GetUserInfo",
          "name": "",
          "type": "tuple"
        }
      ],
      "stateMutability": "view",
      "type": "function",
      "constant": true
    },
    {
      "inputs": [],
      "name": "getTotalUsers",
      "outputs": [
        {
          "internalType": "uint256",
          "name": "",
          "type": "uint256"
        }
      ],
      "stateMutability": "view",
      "type": "function",
      "constant": true
    },
    {
      "inputs": [
        {
          "internalType": "uint256",
          "name": "position",
          "type": "uint256"
        }
      ],
      "name": "getUserInfoByPosition",
      "outputs": [
        {
          "components": [
            {
              "internalType": "uint256",
              "name": "amount",
              "type": "uint256"
            },
            {
              "internalType": "uint256",
              "name": "pendingRewards",
              "type": "uint256"
            },
            {
              "internalType": "uint256",
              "name": "withdrawAvaliable",
              "type": "uint256"
            },
            {
              "internalType": "uint256",
              "name": "eulerPerBlock",
              "type": "uint256"
            },
            {
              "internalType": "uint256",
              "name": "tvl",
              "type": "uint256"
            }
          ],
          "internalType": "struct EulerStaking.GetUserInfo",
          "name": "",
          "type": "tuple"
        }
      ],
      "stateMutability": "view",
      "type": "function",
      "constant": true
    },
    {
      "inputs": [
        {
          "internalType": "uint256",
          "name": "amount",
          "type": "uint256"
        }
      ],
      "name": "deposit",
      "outputs": [],
      "stateMutability": "nonpayable",
      "type": "function"
    },
    {
      "inputs": [
        {
          "internalType": "uint256",
          "name": "amount",
          "type": "uint256"
        }
      ],
      "name": "withdraw",
      "outputs": [],
      "stateMutability": "nonpayable",
      "type": "function"
    },
    {
      "inputs": [],
      "name": "withdrawAll",
      "outputs": [],
      "stateMutability": "nonpayable",
      "type": "function"
    },
    {
      "inputs": [],
      "name": "claim",
      "outputs": [],
      "stateMutability": "nonpayable",
      "type": "function"
    }
  ],
  "bytecode": "0x60806040526064600255670de0b6b3a764000060035560006004557fffffffffffffffffffffffffffffffffffffffffffffffffffffffffffffffff6005553480156200004b57600080fd5b506200006c620000606200007260201b60201c565b6200007a60201b60201c565b6200013e565b600033905090565b60008060009054906101000a900473ffffffffffffffffffffffffffffffffffffffff169050816000806101000a81548173ffffffffffffffffffffffffffffffffffffffff021916908373ffffffffffffffffffffffffffffffffffffffff1602179055508173ffffffffffffffffffffffffffffffffffffffff168173ffffffffffffffffffffffffffffffffffffffff167f8be0079c531659141344cd1fd0a4f28419497f9722a3daafe3b4186f6b6457e060405160405180910390a35050565b61342e806200014e6000396000f3fe608060405234801561001057600080fd5b50600436106101735760003560e01c8063853828b6116100de578063c4511c6a11610097578063e7a1107f11610071578063e7a1107f146103e2578063ebce8389146103fe578063f2fde38b1461041a578063fcdea5791461043657610173565b8063c4511c6a1461038c578063da690f86146103a8578063db661b71146103c457610173565b8063853828b6146102dc5780638da5cb5b146102e65780638ed83271146103045780639be572f614610322578063ab6c25e214610340578063b6b55f251461037057610173565b80636386c1c7116101305780636386c1c71461022e578063645006ca1461025e57806366dd54a01461027c578063715018a61461029a578063762b1c92146102a45780637ab28707146102c057610173565b806301f59d16146101785780631959a002146101965780632a80cda3146101ca5780632e1a7d4d146101e65780634e71d92d146102025780635a2f3d091461020c575b600080fd5b610180610454565b60405161018d9190612bf0565b60405180910390f35b6101b060048036038101906101ab9190612452565b61045a565b6040516101c1959493929190612c0b565b60405180910390f35b6101e460048036038101906101df91906124d9565b61049d565b005b61020060048036038101906101fb91906124d9565b6105b4565b005b61020a6108ae565b005b610214610a67565b604051610225959493929190612c5e565b60405180910390f35b61024860048036038101906102439190612452565b610a8b565b6040516102559190612bd5565b60405180910390f35b610266610b5a565b6040516102739190612bf0565b60405180910390f35b610284610b60565b6040516102919190612bf0565b60405180910390f35b6102a2610b66565b005b6102be60048036038101906102b991906124d9565b610bee565b005b6102da60048036038101906102d591906124d9565b610d0d565b005b6102e4610e2c565b005b6102ee610e7f565b6040516102fb91906128dd565b60405180910390f35b61030c610ea8565b6040516103199190612bf0565b60405180910390f35b61032a610eae565b6040516103379190612bf0565b60405180910390f35b61035a600480360381019061035591906124d9565b610ebb565b6040516103679190612bd5565b60405180910390f35b61038a600480360381019061038591906124d9565b610f5e565b005b6103a660048036038101906103a191906124d9565b611298565b005b6103c260048036038101906103bd91906124d9565b6113b0565b005b6103cc6114c8565b6040516103d99190612958565b60405180910390f35b6103fc60048036038101906103f791906124d9565b6114ee565b005b610418600480360381019061041391906124ac565b6115c5565b005b610434600480360381019061042f9190612452565b6117e0565b005b61043e6118d8565b60405161044b9190612bf0565b60405180910390f35b61271081565b600b6020528060005260406000206000915090508060000154908060010154908060020154908060030154908060040160009054906101000a900460ff16905085565b6104a56118de565b73ffffffffffffffffffffffffffffffffffffffff166104c3610e7f565b73ffffffffffffffffffffffffffffffffffffffff1614610519576040517f08c379a000000000000000000000000000000000000000000000000000000000815260040161051090612af5565b60405180910390fd5b6000811161055c576040517f08c379a000000000000000000000000000000000000000000000000000000000815260040161055390612a15565b60405180910390fd5b806004819055503373ffffffffffffffffffffffffffffffffffffffff167f13b7d95c2b89c1966f7583083e8dae1ca6e827f518c12d87cc681d2652f0554a826040516105a99190612bf0565b60405180910390a250565b6000600b60003373ffffffffffffffffffffffffffffffffffffffff1673ffffffffffffffffffffffffffffffffffffffff1681526020019081526020016000209050600660040154816003015461060c9190612ce3565b421161064d576040517f08c379a0000000000000000000000000000000000000000000000000000000008152600401610644906129b5565b60405180910390fd5b60008211610690576040517f08c379a0000000000000000000000000000000000000000000000000000000008152600401610687906129d5565b60405180910390fd5b81816000015410156106d7576040517f08c379a00000000000000000000000000000000000000000000000000000000081526004016106ce90612b75565b60405180910390fd5b6106df6118e6565b600061072a826001015461071c64e8d4a5100061070e6006600101548760000154611a2890919063ffffffff16565b611a3e90919063ffffffff16565b611a5490919063ffffffff16565b905060008111156107555761074c818360020154611a6a90919063ffffffff16565b82600201819055505b60008311156107ec576107ab3384600160009054906101000a900473ffffffffffffffffffffffffffffffffffffffff1673ffffffffffffffffffffffffffffffffffffffff16611a809092919063ffffffff16565b6107c2838360000154611a5490919063ffffffff16565b82600001819055506107e283600660020154611a5490919063ffffffff16565b6006600201819055505b61081f64e8d4a510006108116006600101548560000154611a2890919063ffffffff16565b611a3e90919063ffffffff16565b82600101819055503373ffffffffffffffffffffffffffffffffffffffff167f884edad9ce6fa2440d8a54cc123490eb96d2768479d49ff9c7366125a94243648460405161086d9190612bf0565b60405180910390a26000826000015414156108a95760008260040160006101000a81548160ff0219169083151502179055506108a833611b06565b5b505050565b6000600b60003373ffffffffffffffffffffffffffffffffffffffff1673ffffffffffffffffffffffffffffffffffffffff16815260200190815260200160002090506108f96118e6565b6000610944826001015461093664e8d4a510006109286006600101548760000154611a2890919063ffffffff16565b611a3e90919063ffffffff16565b611a5490919063ffffffff16565b90506000811180610959575060008260020154115b15610a2857610975818360020154611a6a90919063ffffffff16565b8260020181905550600061098d338460020154611c38565b90503373ffffffffffffffffffffffffffffffffffffffff167f47cee97cb7acd717b3c0aa1435d004cd5b3c8c57d70dbceb4e4458bbd60e39d4826040516109d59190612bf0565b60405180910390a26109f4818460020154611a5490919063ffffffff16565b8360020181905550428360030181905550610a1d81600660030154611a5490919063ffffffff16565b600660030181905550505b610a5b64e8d4a51000610a4d6006600101548560000154611a2890919063ffffffff16565b611a3e90919063ffffffff16565b82600101819055505050565b60068060000154908060010154908060020154908060030154908060040154905085565b610a936123ba565b6000600b60008473ffffffffffffffffffffffffffffffffffffffff1673ffffffffffffffffffffffffffffffffffffffff1681526020019081526020016000209050610ade6123ba565b81600001548160000181815250506000816040018181525050600082600301541115610b23576006600401548260030154610b199190612ce3565b8160400181815250505b600354816060018181525050600660020154816080018181525050610b4784611d61565b8160200181815250508092505050919050565b60045481565b60025481565b610b6e6118de565b73ffffffffffffffffffffffffffffffffffffffff16610b8c610e7f565b73ffffffffffffffffffffffffffffffffffffffff1614610be2576040517f08c379a0000000000000000000000000000000000000000000000000000000008152600401610bd990612af5565b60405180910390fd5b610bec6000611f06565b565b610bf66118de565b73ffffffffffffffffffffffffffffffffffffffff16610c14610e7f565b73ffffffffffffffffffffffffffffffffffffffff1614610c6a576040517f08c379a0000000000000000000000000000000000000000000000000000000008152600401610c6190612af5565b60405180910390fd5b600060066000015414610cb2576040517f08c379a0000000000000000000000000000000000000000000000000000000008152600401610ca990612ad5565b60405180910390fd5b806006600001819055503373ffffffffffffffffffffffffffffffffffffffff167f5a10b5f49dd8fad36b4ab1cbca7032df7337fdc475a5616c796b654fe12eedac82604051610d029190612bf0565b60405180910390a250565b610d156118de565b73ffffffffffffffffffffffffffffffffffffffff16610d33610e7f565b73ffffffffffffffffffffffffffffffffffffffff1614610d89576040517f08c379a0000000000000000000000000000000000000000000000000000000008152600401610d8090612af5565b60405180910390fd5b60008111610dcc576040517f08c379a0000000000000000000000000000000000000000000000000000000008152600401610dc390612b35565b60405180910390fd5b610dd46118e6565b806003819055503373ffffffffffffffffffffffffffffffffffffffff167f61b3496552b7890ca02bbeeb6c4dff23525a6b0913e7f768acf2e9631ddd01ab82604051610e219190612bf0565b60405180910390a250565b6000600b60003373ffffffffffffffffffffffffffffffffffffffff1673ffffffffffffffffffffffffffffffffffffffff1681526020019081526020016000209050610e7c81600001546105b4565b50565b60008060009054906101000a900473ffffffffffffffffffffffffffffffffffffffff16905090565b60055481565b6000600c80549050905090565b610ec36123ba565b600c805490508210610f0a576040517f08c379a0000000000000000000000000000000000000000000000000000000008152600401610f0190612995565b60405180910390fd5b6000600c8381548110610f2057610f1f612f91565b5b9060005260206000200160009054906101000a900473ffffffffffffffffffffffffffffffffffffffff169050610f5681610a8b565b915050919050565b6000600b60003373ffffffffffffffffffffffffffffffffffffffff1673ffffffffffffffffffffffffffffffffffffffff16815260200190815260200160002090506000816000015483610fb39190612ce3565b90506004548110158015610fc8575060055481105b611007576040517f08c379a0000000000000000000000000000000000000000000000000000000008152600401610ffe90612bb5565b60405180910390fd5b61100f6118e6565b600082600001541115611094576000611067836001015461105964e8d4a5100061104b6006600101548860000154611a2890919063ffffffff16565b611a3e90919063ffffffff16565b611a5490919063ffffffff16565b9050600081111561109257611089818460020154611a6a90919063ffffffff16565b83600201819055505b505b600083111561116a576110ec333085600160009054906101000a900473ffffffffffffffffffffffffffffffffffffffff1673ffffffffffffffffffffffffffffffffffffffff16611fca909392919063ffffffff16565b61112761111861271061110a60025487611a2890919063ffffffff16565b611a3e90919063ffffffff16565b84611a5490919063ffffffff16565b9250611140838360000154611a6a90919063ffffffff16565b826000018190555061116083600660020154611a6a90919063ffffffff16565b6006600201819055505b61119d64e8d4a5100061118f6006600101548560000154611a2890919063ffffffff16565b611a3e90919063ffffffff16565b82600101819055504282600301819055508160040160009054906101000a900460ff1661124557600c339080600181540180825580915050600190039060005260206000200160009091909190916101000a81548173ffffffffffffffffffffffffffffffffffffffff021916908373ffffffffffffffffffffffffffffffffffffffff16021790555060018260040160006101000a81548160ff0219169083151502179055505b3373ffffffffffffffffffffffffffffffffffffffff167fe1fffcc4923d04b559f4d29a8bfc6cda04eb5b0d3c460751c2402c5c5cc9109c8460405161128b9190612bf0565b60405180910390a2505050565b6112a06118de565b73ffffffffffffffffffffffffffffffffffffffff166112be610e7f565b73ffffffffffffffffffffffffffffffffffffffff1614611314576040517f08c379a000000000000000000000000000000000000000000000000000000000815260040161130b90612af5565b60405180910390fd5b6004548111611358576040517f08c379a000000000000000000000000000000000000000000000000000000000815260040161134f90612a75565b60405180910390fd5b806005819055503373ffffffffffffffffffffffffffffffffffffffff167f25d66f0e838c8e1017ffaf311263451e176896b7e84ea505abee24bd2f4c3c0d826040516113a59190612bf0565b60405180910390a250565b6113b86118de565b73ffffffffffffffffffffffffffffffffffffffff166113d6610e7f565b73ffffffffffffffffffffffffffffffffffffffff161461142c576040517f08c379a000000000000000000000000000000000000000000000000000000000815260040161142390612af5565b60405180910390fd5b6127108110611470576040517f08c379a000000000000000000000000000000000000000000000000000000000815260040161146790612a55565b60405180910390fd5b806002819055503373ffffffffffffffffffffffffffffffffffffffff167fabacf824c0f88c833727f78e9b00022eee6c1f83b95f28da112f6ce8f1f2feec826040516114bd9190612bf0565b60405180910390a250565b600160009054906101000a900473ffffffffffffffffffffffffffffffffffffffff1681565b6114f66118de565b73ffffffffffffffffffffffffffffffffffffffff16611514610e7f565b73ffffffffffffffffffffffffffffffffffffffff161461156a576040517f08c379a000000000000000000000000000000000000000000000000000000000815260040161156190612af5565b60405180910390fd5b806006600401819055503373ffffffffffffffffffffffffffffffffffffffff167fd8cc5b1c2d4ad57f42e2453f312f23733af92cf5a3c36e9ebad5e585bf961f07826040516115ba9190612bf0565b60405180910390a250565b6115cd6118de565b73ffffffffffffffffffffffffffffffffffffffff166115eb610e7f565b73ffffffffffffffffffffffffffffffffffffffff1614611641576040517f08c379a000000000000000000000000000000000000000000000000000000000815260040161163890612af5565b60405180910390fd5b600073ffffffffffffffffffffffffffffffffffffffff168173ffffffffffffffffffffffffffffffffffffffff1614156116b1576040517f08c379a00000000000000000000000000000000000000000000000000000000081526004016116a890612a95565b60405180910390fd5b600073ffffffffffffffffffffffffffffffffffffffff16600160009054906101000a900473ffffffffffffffffffffffffffffffffffffffff1673ffffffffffffffffffffffffffffffffffffffff1614611742576040517f08c379a000000000000000000000000000000000000000000000000000000000815260040161173990612ab5565b60405180910390fd5b80600160006101000a81548173ffffffffffffffffffffffffffffffffffffffff021916908373ffffffffffffffffffffffffffffffffffffffff16021790555061178f62278d00612053565b3373ffffffffffffffffffffffffffffffffffffffff167f7200b4b8e61a8ab0efdf64c461c668e5e9b0f5e0b5df68cccc5ac667ecd24216826040516117d591906128dd565b60405180910390a250565b6117e86118de565b73ffffffffffffffffffffffffffffffffffffffff16611806610e7f565b73ffffffffffffffffffffffffffffffffffffffff161461185c576040517f08c379a000000000000000000000000000000000000000000000000000000000815260040161185390612af5565b60405180910390fd5b600073ffffffffffffffffffffffffffffffffffffffff168173ffffffffffffffffffffffffffffffffffffffff1614156118cc576040517f08c379a00000000000000000000000000000000000000000000000000000000081526004016118c3906129f5565b60405180910390fd5b6118d581611f06565b50565b60035481565b600033905090565b600060066000015411801561190057506006600001544310155b61193f576040517f08c379a000000000000000000000000000000000000000000000000000000000815260040161193690612b15565b60405180910390fd5b600660000154431161195057611a26565b6000600660020154905060006006600201541415611978574360066000018190555050611a26565b600061199260066000015443611a5490919063ffffffff16565b905060006119ab60035483611a2890919063ffffffff16565b90506119c581600660030154611a6a90919063ffffffff16565b600660030181905550611a0f6119fb846119ed64e8d4a5100085611a2890919063ffffffff16565b611a3e90919063ffffffff16565b600660010154611a6a90919063ffffffff16565b600660010181905550436006600001819055505050505b565b60008183611a369190612d6a565b905092915050565b60008183611a4c9190612d39565b905092915050565b60008183611a629190612dc4565b905092915050565b60008183611a789190612ce3565b905092915050565b611b018363a9059cbb60e01b8484604051602401611a9f92919061292f565b604051602081830303815290604052907bffffffffffffffffffffffffffffffffffffffffffffffffffffffff19166020820180517bffffffffffffffffffffffffffffffffffffffffffffffffffffffff83818316178352505050506120b8565b505050565b6000611b118261217f565b905060008190505b6001600c80549050611b2b9190612dc4565b811015611bec57600c600182611b419190612ce3565b81548110611b5257611b51612f91565b5b9060005260206000200160009054906101000a900473ffffffffffffffffffffffffffffffffffffffff16600c8281548110611b9157611b90612f91565b5b9060005260206000200160006101000a81548173ffffffffffffffffffffffffffffffffffffffff021916908373ffffffffffffffffffffffffffffffffffffffff1602179055508080611be490612ebb565b915050611b19565b50600c805480611bff57611bfe612f62565b5b6001900381819060005260206000200160006101000a81549073ffffffffffffffffffffffffffffffffffffffff021916905590555050565b600080600160009054906101000a900473ffffffffffffffffffffffffffffffffffffffff1673ffffffffffffffffffffffffffffffffffffffff166370a08231306040518263ffffffff1660e01b8152600401611c9691906128dd565b60206040518083038186803b158015611cae57600080fd5b505afa158015611cc2573d6000803e3d6000fd5b505050506040513d601f19601f82011682018060405250810190611ce69190612506565b9050600660030154831115611cfe5760066003015492505b80831115611d0a578092505b611d578484600160009054906101000a900473ffffffffffffffffffffffffffffffffffffffff1673ffffffffffffffffffffffffffffffffffffffff16611a809092919063ffffffff16565b8291505092915050565b600080600660000154118015611d7c57506006600001544310155b611dbb576040517f08c379a0000000000000000000000000000000000000000000000000000000008152600401611db290612b15565b60405180910390fd5b6000600b60008473ffffffffffffffffffffffffffffffffffffffff1673ffffffffffffffffffffffffffffffffffffffff1681526020019081526020016000209050600060066001015490506000600660020154905060066000015443118015611e27575060008114155b15611ea2576000611e4660066000015443611a5490919063ffffffff16565b90506000611e5f60035483611a2890919063ffffffff16565b9050611e9d611e8e84611e8064e8d4a5100085611a2890919063ffffffff16565b611a3e90919063ffffffff16565b85611a6a90919063ffffffff16565b935050505b611efc8360020154611eee8560010154611ee064e8d4a51000611ed2888a60000154611a2890919063ffffffff16565b611a3e90919063ffffffff16565b611a5490919063ffffffff16565b611a6a90919063ffffffff16565b9350505050919050565b60008060009054906101000a900473ffffffffffffffffffffffffffffffffffffffff169050816000806101000a81548173ffffffffffffffffffffffffffffffffffffffff021916908373ffffffffffffffffffffffffffffffffffffffff1602179055508173ffffffffffffffffffffffffffffffffffffffff168173ffffffffffffffffffffffffffffffffffffffff167f8be0079c531659141344cd1fd0a4f28419497f9722a3daafe3b4186f6b6457e060405160405180910390a35050565b61204d846323b872dd60e01b858585604051602401611feb939291906128f8565b604051602081830303815290604052907bffffffffffffffffffffffffffffffffffffffffffffffffffffffff19166020820180517bffffffffffffffffffffffffffffffffffffffffffffffffffffffff83818316178352505050506120b8565b50505050565b6040518060a0016040528060008152602001600081526020016000815260200160008152602001828152506006600082015181600001556020820151816001015560408201518160020155606082015181600301556080820151816004015590505050565b600061211a826040518060400160405280602081526020017f5361666545524332303a206c6f772d6c6576656c2063616c6c206661696c65648152508573ffffffffffffffffffffffffffffffffffffffff166122149092919063ffffffff16565b905060008151111561217a578080602001905181019061213a919061247f565b612179576040517f08c379a000000000000000000000000000000000000000000000000000000000815260040161217090612b95565b60405180910390fd5b5b505050565b600080600090505b8273ffffffffffffffffffffffffffffffffffffffff16600c82815481106121b2576121b1612f91565b5b9060005260206000200160009054906101000a900473ffffffffffffffffffffffffffffffffffffffff1673ffffffffffffffffffffffffffffffffffffffff161461220b57808061220390612ebb565b915050612187565b80915050919050565b6060612223848460008561222c565b90509392505050565b606082471015612271576040517f08c379a000000000000000000000000000000000000000000000000000000000815260040161226890612a35565b60405180910390fd5b61227a85612340565b6122b9576040517f08c379a00000000000000000000000000000000000000000000000000000000081526004016122b090612b55565b60405180910390fd5b6000808673ffffffffffffffffffffffffffffffffffffffff1685876040516122e291906128c6565b60006040518083038185875af1925050503d806000811461231f576040519150601f19603f3d011682016040523d82523d6000602084013e612324565b606091505b5091509150612334828286612353565b92505050949350505050565b600080823b905060008111915050919050565b60608315612363578290506123b3565b6000835111156123765782518084602001fd5b816040517f08c379a00000000000000000000000000000000000000000000000000000000081526004016123aa9190612973565b60405180910390fd5b9392505050565b6040518060a0016040528060008152602001600081526020016000815260200160008152602001600081525090565b6000813590506123f88161339c565b92915050565b60008151905061240d816133b3565b92915050565b600081359050612422816133ca565b92915050565b600081359050612437816133e1565b92915050565b60008151905061244c816133e1565b92915050565b60006020828403121561246857612467612fc0565b5b6000612476848285016123e9565b91505092915050565b60006020828403121561249557612494612fc0565b5b60006124a3848285016123fe565b91505092915050565b6000602082840312156124c2576124c1612fc0565b5b60006124d084828501612413565b91505092915050565b6000602082840312156124ef576124ee612fc0565b5b60006124fd84828501612428565b91505092915050565b60006020828403121561251c5761251b612fc0565b5b600061252a8482850161243d565b91505092915050565b61253c81612df8565b82525050565b61254b81612e0a565b82525050565b600061255c82612cb1565b6125668185612cc7565b9350612576818560208601612e88565b80840191505092915050565b61258b81612e52565b82525050565b600061259c82612cbc565b6125a68185612cd2565b93506125b6818560208601612e88565b6125bf81612fc5565b840191505092915050565b60006125d7602f83612cd2565b91506125e282612fd6565b604082019050919050565b60006125fa601883612cd2565b915061260582613025565b602082019050919050565b600061261d601883612cd2565b91506126288261304e565b602082019050919050565b6000612640602683612cd2565b915061264b82613077565b604082019050919050565b6000612663600d83612cd2565b915061266e826130c6565b602082019050919050565b6000612686602683612cd2565b9150612691826130ef565b604082019050919050565b60006126a9600b83612cd2565b91506126b48261313e565b602082019050919050565b60006126cc603483612cd2565b91506126d782613167565b604082019050919050565b60006126ef601b83612cd2565b91506126fa826131b6565b602082019050919050565b6000612712601283612cd2565b915061271d826131df565b602082019050919050565b6000612735601783612cd2565b915061274082613208565b602082019050919050565b6000612758602083612cd2565b915061276382613231565b602082019050919050565b600061277b601783612cd2565b91506127868261325a565b602082019050919050565b600061279e602983612cd2565b91506127a982613283565b604082019050919050565b60006127c1601d83612cd2565b91506127cc826132d2565b602082019050919050565b60006127e4601f83612cd2565b91506127ef826132fb565b602082019050919050565b6000612807602a83612cd2565b915061281282613324565b604082019050919050565b600061282a601683612cd2565b915061283582613373565b602082019050919050565b60a08201600082015161285660008501826128a8565b50602082015161286960208501826128a8565b50604082015161287c60408501826128a8565b50606082015161288f60608501826128a8565b5060808201516128a260808501826128a8565b50505050565b6128b181612e48565b82525050565b6128c081612e48565b82525050565b60006128d28284612551565b915081905092915050565b60006020820190506128f26000830184612533565b92915050565b600060608201905061290d6000830186612533565b61291a6020830185612533565b61292760408301846128b7565b949350505050565b60006040820190506129446000830185612533565b61295160208301846128b7565b9392505050565b600060208201905061296d6000830184612582565b92915050565b6000602082019050818103600083015261298d8184612591565b905092915050565b600060208201905081810360008301526129ae816125ca565b9050919050565b600060208201905081810360008301526129ce816125ed565b9050919050565b600060208201905081810360008301526129ee81612610565b9050919050565b60006020820190508181036000830152612a0e81612633565b9050919050565b60006020820190508181036000830152612a2e81612656565b9050919050565b60006020820190508181036000830152612a4e81612679565b9050919050565b60006020820190508181036000830152612a6e8161269c565b9050919050565b60006020820190508181036000830152612a8e816126bf565b9050919050565b60006020820190508181036000830152612aae816126e2565b9050919050565b60006020820190508181036000830152612ace81612705565b9050919050565b60006020820190508181036000830152612aee81612728565b9050919050565b60006020820190508181036000830152612b0e8161274b565b9050919050565b60006020820190508181036000830152612b2e8161276e565b9050919050565b60006020820190508181036000830152612b4e81612791565b9050919050565b60006020820190508181036000830152612b6e816127b4565b9050919050565b60006020820190508181036000830152612b8e816127d7565b9050919050565b60006020820190508181036000830152612bae816127fa565b9050919050565b60006020820190508181036000830152612bce8161281d565b9050919050565b600060a082019050612bea6000830184612840565b92915050565b6000602082019050612c0560008301846128b7565b92915050565b600060a082019050612c2060008301886128b7565b612c2d60208301876128b7565b612c3a60408301866128b7565b612c4760608301856128b7565b612c546080830184612542565b9695505050505050565b600060a082019050612c7360008301886128b7565b612c8060208301876128b7565b612c8d60408301866128b7565b612c9a60608301856128b7565b612ca760808301846128b7565b9695505050505050565b600081519050919050565b600081519050919050565b600081905092915050565b600082825260208201905092915050565b6000612cee82612e48565b9150612cf983612e48565b9250827fffffffffffffffffffffffffffffffffffffffffffffffffffffffffffffffff03821115612d2e57612d2d612f04565b5b828201905092915050565b6000612d4482612e48565b9150612d4f83612e48565b925082612d5f57612d5e612f33565b5b828204905092915050565b6000612d7582612e48565b9150612d8083612e48565b9250817fffffffffffffffffffffffffffffffffffffffffffffffffffffffffffffffff0483118215151615612db957612db8612f04565b5b828202905092915050565b6000612dcf82612e48565b9150612dda83612e48565b925082821015612ded57612dec612f04565b5b828203905092915050565b6000612e0382612e28565b9050919050565b60008115159050919050565b6000612e2182612df8565b9050919050565b600073ffffffffffffffffffffffffffffffffffffffff82169050919050565b6000819050919050565b6000612e5d82612e64565b9050919050565b6000612e6f82612e76565b9050919050565b6000612e8182612e28565b9050919050565b60005b83811015612ea6578082015181840152602081019050612e8b565b83811115612eb5576000848401525b50505050565b6000612ec682612e48565b91507fffffffffffffffffffffffffffffffffffffffffffffffffffffffffffffffff821415612ef957612ef8612f04565b5b600182019050919050565b7f4e487b7100000000000000000000000000000000000000000000000000000000600052601160045260246000fd5b7f4e487b7100000000000000000000000000000000000000000000000000000000600052601260045260246000fd5b7f4e487b7100000000000000000000000000000000000000000000000000000000600052603160045260246000fd5b7f4e487b7100000000000000000000000000000000000000000000000000000000600052603260045260246000fd5b600080fd5b6000601f19601f8301169050919050565b7f54686520706f736974696f6e206973206e6f74206c657373207468616e20746860008201527f652073697a65206f662075736572730000000000000000000000000000000000602082015250565b7f596f752063616e6e6f7420776974686472617720796574210000000000000000600082015250565b7f5769746864726177696e67206d6f7265207468616e2030210000000000000000600082015250565b7f4f776e61626c653a206e6577206f776e657220697320746865207a65726f206160008201527f6464726573730000000000000000000000000000000000000000000000000000602082015250565b7f696e76616c69642076616c756500000000000000000000000000000000000000600082015250565b7f416464726573733a20696e73756666696369656e742062616c616e636520666f60008201527f722063616c6c0000000000000000000000000000000000000000000000000000602082015250565b7f696e76616c696420666565000000000000000000000000000000000000000000600082015250565b7f696e76616c69642076616c75652c2073686f756c64206265206772656174657260008201527f207468616e206d696e696e756d20616d6f756e74000000000000000000000000602082015250565b7f546f6b656e20616464726573732063616e2774206265207a65726f0000000000600082015250565b7f546f6b656e20616c726561647920736574210000000000000000000000000000600082015250565b7f5374616b696e6720616c72656164792073746172746564000000000000000000600082015250565b7f4f776e61626c653a2063616c6c6572206973206e6f7420746865206f776e6572600082015250565b7f5374616b696e67206e6f74207965742073746172746564000000000000000000600082015250565b7f45554c45522070657220626c6f636b2073686f756c642062652067726561746560008201527f72207468616e2030210000000000000000000000000000000000000000000000602082015250565b7f416464726573733a2063616c6c20746f206e6f6e2d636f6e7472616374000000600082015250565b7f5769746864726177696e67206d6f7265207468616e20796f7520686176652100600082015250565b7f5361666545524332303a204552433230206f7065726174696f6e20646964206e60008201527f6f74207375636365656400000000000000000000000000000000000000000000602082015250565b7f696e76616c6964206465706f73697420616d6f756e7400000000000000000000600082015250565b6133a581612df8565b81146133b057600080fd5b50565b6133bc81612e0a565b81146133c757600080fd5b50565b6133d381612e16565b81146133de57600080fd5b50565b6133ea81612e48565b81146133f557600080fd5b5056fea26469706673582212205dad20ba8de91c1f8384fa225a921e356e2d2378c72fb0eb22c53382a2b42a0964736f6c63430008070033",
  "immutableReferences": {},
  "source": "//SPDX-License-Identifier: Unlicense\npragma solidity 0.8.7;\n\nimport \"@openzeppelin/contracts/access/Ownable.sol\";\nimport \"@openzeppelin/contracts/token/ERC20/utils/SafeERC20.sol\";\nimport \"@openzeppelin/contracts/utils/math/SafeMath.sol\";\n\ncontract EulerStaking is Ownable {\n  using SafeMath for uint256;\n  using SafeERC20 for IERC20;\n\n  struct UserInfo {\n    uint256 amount;\n    uint256 rewardDebt;\n    uint256 pendingRewards;\n    uint256 lastClaim;\n    bool exists;\n  }\n\n  struct GetUserInfo {\n    uint256 amount;\n    uint256 pendingRewards;\n    uint256 withdrawAvaliable;\n    uint256 eulerPerBlock;\n    uint256 tvl;\n  }\n\n  struct PoolInfo {\n    uint256 lastRewardBlock;\n    uint256 accEulerPerShare;\n    uint256 depositedAmount;\n    uint256 rewardsAmount;\n    uint256 lockupDuration;\n  }\n\n  uint256 public constant maxFee = 10000;\n\n  IERC20 public euler;\n  uint256 public eulerTxFee = 100;\n  uint256 public eulerPerBlock = uint256(1 ether);\n  uint256 public minDepositAmount = 0;\n  uint256 public maxDepositAmount = type(uint256).max;\n\n  PoolInfo public poolInfo;\n  mapping(address => UserInfo) public userInfo;\n  address[] private users;\n\n  event Deposit(address indexed user, uint256 amount);\n  event Withdraw(address indexed user, uint256 amount);\n  event Claim(address indexed user, uint256 amount);\n  event SetEulerPerBlock(address indexed user, uint256 newEulerPerBlock);\n  event SetMinDepositAmount(address indexed user, uint256 newMinDepositAmount);\n  event SetMaxDepositAmount(address indexed user, uint256 newMaxDepositAmount);\n  event SetEulerTxFee(address indexed user, uint256 newEulerTxFee);\n  event SetLockupDuration(address indexed user, uint256 newLockupDuration);\n  event StartStaking(address indexed user, uint256 startBlock);\n  event SetEulerToken(address indexed user,address token);\n\n  function addPool(uint256 _lockupDuration) internal {\n    poolInfo = PoolInfo({\n        lastRewardBlock: 0,\n        accEulerPerShare: 0,\n        depositedAmount: 0,\n        rewardsAmount: 0,\n        lockupDuration: _lockupDuration\n    });\n  }\n\n  function setEulerToken(IERC20 _euler) external onlyOwner {\n    require(address(_euler) != address(0), \"Token address can't be zero\");\n    require(address(euler) == address(0), \"Token already set!\");\n    euler = _euler;\n    addPool(30 days);\n    emit SetEulerToken(msg.sender, address(_euler));\n  }\n\n  function startStaking(uint256 startBlock) external onlyOwner {\n    require(poolInfo.lastRewardBlock == 0, \"Staking already started\");\n    poolInfo.lastRewardBlock = startBlock;\n    emit StartStaking(msg.sender, startBlock);\n  }\n\n  function setLockupDuration(uint256 _lockupDuration) external onlyOwner {\n    poolInfo.lockupDuration = _lockupDuration;\n    emit SetLockupDuration(msg.sender, _lockupDuration);\n  }\n\n  function setEulerPerBlock(uint256 _eulerPerBlock) external onlyOwner {\n    require(_eulerPerBlock > 0, \"EULER per block should be greater than 0!\");\n\n    updatePool();\n    eulerPerBlock = _eulerPerBlock;\n    emit SetEulerPerBlock(msg.sender, _eulerPerBlock);\n  }\n\n  function setMinDepositAmount(uint256 _amount) external onlyOwner {\n    require(_amount > 0, \"invalid value\");\n\n    minDepositAmount = _amount;\n    emit SetMinDepositAmount(msg.sender, _amount);\n  }\n\n  function setMaxDepositAmount(uint256 _amount) external onlyOwner {\n    require(\n      _amount > minDepositAmount,\n      \"invalid value, should be greater than mininum amount\"\n    );\n\n    maxDepositAmount = _amount;\n    emit SetMaxDepositAmount(msg.sender, _amount);\n  }\n\n  function setEulerTxFee(uint256 _fee) external onlyOwner {\n    require(_fee < 10000, \"invalid fee\");\n\n    eulerTxFee = _fee;\n    emit SetEulerTxFee(msg.sender, _fee);\n  }\n\n  function pendingRewards(address _user) private view returns (uint256) {\n    require(\n      poolInfo.lastRewardBlock > 0 &&\n        block.number >= poolInfo.lastRewardBlock,\n      \"Staking not yet started\"\n    );\n    UserInfo storage user = userInfo[_user];\n    uint256 accEulerPerShare = poolInfo.accEulerPerShare;\n    uint256 depositedAmount = poolInfo.depositedAmount;\n    if (block.number > poolInfo.lastRewardBlock && depositedAmount != 0) {\n\n      uint256 multiplier = block.number.sub(poolInfo.lastRewardBlock);\n      uint256 eulerReward = multiplier.mul(eulerPerBlock);\n\n      accEulerPerShare = accEulerPerShare.add(\n        eulerReward.mul(1e12).div(depositedAmount)\n      );\n    }\n    return\n      user.amount.mul(accEulerPerShare).div(1e12).sub(user.rewardDebt).add(\n        user.pendingRewards\n      );\n  }\n\n  function getUserInfo(address _user)\n    public\n    view\n    returns (GetUserInfo memory) {\n\n        UserInfo storage user = userInfo[_user];\n\n        GetUserInfo memory userAux;\n\n        userAux.amount = user.amount;\n\n        userAux.withdrawAvaliable = 0;\n\n        if(user.lastClaim > 0) {\n\n            userAux.withdrawAvaliable = user.lastClaim + poolInfo.lockupDuration;\n        }\n\n        userAux.eulerPerBlock = eulerPerBlock;\n\n        userAux.tvl = poolInfo.depositedAmount;\n\n        userAux.pendingRewards = pendingRewards(_user);\n\n        return userAux;\n  }\n\n  function getTotalUsers() external view\n    returns (uint256) {\n\n    return users.length;\n  }\n\n  function getUserInfoByPosition(uint256 position) external view\n    returns (GetUserInfo memory) {\n\n        require(position < users.length, 'The position is not less than the size of users');\n\n        address user = users[position];\n\n        return getUserInfo(user);\n  }\n\n  function updatePool() internal {\n    require(\n      poolInfo.lastRewardBlock > 0 &&\n        block.number >= poolInfo.lastRewardBlock,\n      \"Staking not yet started\"\n    );\n\n    if (block.number <= poolInfo.lastRewardBlock) {\n      return;\n    }\n    uint256 depositedAmount = poolInfo.depositedAmount;\n    if (poolInfo.depositedAmount == 0) {\n      poolInfo.lastRewardBlock = block.number;\n      return;\n    }\n    uint256 multiplier = block.number.sub(poolInfo.lastRewardBlock);\n    uint256 eulerReward = multiplier.mul(eulerPerBlock);\n\n    poolInfo.rewardsAmount = poolInfo.rewardsAmount.add(eulerReward);\n    poolInfo.accEulerPerShare = poolInfo.accEulerPerShare.add(\n      eulerReward.mul(1e12).div(depositedAmount)\n    );\n    poolInfo.lastRewardBlock = block.number;\n  }\n\n  function deposit(uint256 amount) external {\n\n    UserInfo storage user = userInfo[msg.sender];\n\n    uint256 sumAmount = amount + user.amount;\n\n    require(\n      sumAmount >= minDepositAmount && sumAmount < maxDepositAmount,\n      \"invalid deposit amount\"\n    );\n\n    updatePool();\n    if (user.amount > 0) {\n      uint256 pending = user.amount.mul(poolInfo.accEulerPerShare).div(1e12).sub(\n        user.rewardDebt\n      );\n      if (pending > 0) {\n        user.pendingRewards = user.pendingRewards.add(pending);\n      }\n    }\n    if (amount > 0) {\n      euler.safeTransferFrom(address(msg.sender), address(this), amount);\n      // Lost 1% fee from transaction\n      amount = amount.sub(amount.mul(eulerTxFee).div(maxFee));\n      user.amount = user.amount.add(amount);\n      poolInfo.depositedAmount = poolInfo.depositedAmount.add(amount);\n    }\n    user.rewardDebt = user.amount.mul(poolInfo.accEulerPerShare).div(1e12);\n    user.lastClaim = block.timestamp;\n\n    if(!user.exists) {\n        users.push(msg.sender);\n        user.exists = true;\n    }\n\n    emit Deposit(msg.sender, amount);\n  }\n\n  function withdraw(uint256 amount) public {\n    UserInfo storage user = userInfo[msg.sender];\n    require(\n      block.timestamp > user.lastClaim + poolInfo.lockupDuration,\n      \"You cannot withdraw yet!\"\n    );\n    require(amount > 0, \"Withdrawing more than 0!\");\n    require(user.amount >= amount, \"Withdrawing more than you have!\");\n    updatePool();\n    uint256 pending = user.amount.mul(poolInfo.accEulerPerShare).div(1e12).sub(\n      user.rewardDebt\n    );\n    if (pending > 0) {\n      user.pendingRewards = user.pendingRewards.add(pending);\n    }\n    if (amount > 0) {\n      euler.safeTransfer(address(msg.sender), amount);\n      user.amount = user.amount.sub(amount);\n      poolInfo.depositedAmount = poolInfo.depositedAmount.sub(amount);\n    }\n    user.rewardDebt = user.amount.mul(poolInfo.accEulerPerShare).div(1e12);\n    emit Withdraw(msg.sender, amount);\n\n    if(user.amount == 0) {\n\n        user.exists = false;\n\n        removeUser(msg.sender);\n    }\n  }\n\n  function withdrawAll() external {\n    UserInfo storage user = userInfo[msg.sender];\n\n    withdraw(user.amount);\n  }\n\n  function claim() external {\n    UserInfo storage user = userInfo[msg.sender];\n    updatePool();\n    uint256 pending = user.amount.mul(poolInfo.accEulerPerShare).div(1e12).sub(\n      user.rewardDebt\n    );\n    if (pending > 0 || user.pendingRewards > 0) {\n      user.pendingRewards = user.pendingRewards.add(pending);\n      uint256 claimedAmount = safeEulerTransfer(\n        msg.sender,\n        user.pendingRewards\n      );\n      emit Claim(msg.sender, claimedAmount);\n      user.pendingRewards = user.pendingRewards.sub(claimedAmount);\n      user.lastClaim = block.timestamp;\n      poolInfo.rewardsAmount = poolInfo.rewardsAmount.sub(claimedAmount);\n    }\n    user.rewardDebt = user.amount.mul(poolInfo.accEulerPerShare).div(1e12);\n  }\n\n  function removeUser(address user) internal {\n\n    uint index = find(user);\n\n    for (uint i = index; i < users.length - 1; i++) {\n\n        users[i] = users[i + 1];\n    }\n\n    users.pop();\n  }\n\n  function find(address user) internal view returns(uint)  {\n\n    uint i = 0;\n\n    while (users[i] != user) i++;\n\n    return i;\n  }\n\n  function safeEulerTransfer(\n    address to,\n    uint256 amount\n  ) internal returns (uint256) {\n    uint256 _bal = euler.balanceOf(address(this));\n    if (amount > poolInfo.rewardsAmount) amount = poolInfo.rewardsAmount;\n    if (amount > _bal) amount = _bal;\n    euler.safeTransfer(to, amount);\n    return amount;\n  }\n}\n",
  "sourcePath": "/home/asilva/Entorno/euler/contracts/contracts/EulerStaking.sol",
  "compiler": {
    "name": "solc",
    "version": "0.8.7+commit.e28d00a7.Emscripten.clang"
  },
  "schemaVersion": "3.4.3",
  "updatedAt": "2021-09-08T17:20:33.121Z",
  "networkType": "ethereum",
  "devdoc": {
    "kind": "dev",
    "methods": {
      "owner()": {
        "details": "Returns the address of the current owner."
      },
      "renounceOwnership()": {
        "details": "Leaves the contract without owner. It will not be possible to call `onlyOwner` functions anymore. Can only be called by the current owner. NOTE: Renouncing ownership will leave the contract without an owner, thereby removing any functionality that is only available to the owner."
      },
      "transferOwnership(address)": {
        "details": "Transfers ownership of the contract to a new account (`newOwner`). Can only be called by the current owner."
      }
    },
    "version": 1
  },
  "userdoc": {
    "kind": "user",
    "methods": {},
    "version": 1
  }
}